{
  "contractName": "ERC1190Tradable",
  "abi": [
    {
      "inputs": [
        {
          "internalType": "string",
          "name": "tokenName",
          "type": "string"
        },
        {
          "internalType": "string",
          "name": "tokenSymbol",
          "type": "string"
        },
        {
          "internalType": "string",
          "name": "tokenBaseUri",
          "type": "string"
        }
      ],
      "stateMutability": "nonpayable",
      "type": "constructor"
    },
    {
      "anonymous": false,
      "inputs": [
        {
          "indexed": true,
          "internalType": "address",
          "name": "owner",
          "type": "address"
        },
        {
          "indexed": true,
          "internalType": "address",
          "name": "approved",
          "type": "address"
        },
        {
          "indexed": true,
          "internalType": "uint256",
          "name": "tokenId",
          "type": "uint256"
        }
      ],
      "name": "Approval",
      "type": "event"
    },
    {
      "anonymous": false,
      "inputs": [
        {
          "indexed": true,
          "internalType": "address",
          "name": "owner",
          "type": "address"
        },
        {
          "indexed": true,
          "internalType": "address",
          "name": "operator",
          "type": "address"
        },
        {
          "indexed": true,
          "internalType": "bool",
          "name": "approved",
          "type": "bool"
        }
      ],
      "name": "ApprovalForAll",
      "type": "event"
    },
    {
      "anonymous": false,
      "inputs": [
        {
          "indexed": true,
          "internalType": "address",
          "name": "renter",
          "type": "address"
        },
        {
          "indexed": true,
          "internalType": "uint256",
          "name": "tokenId",
          "type": "uint256"
        },
        {
          "indexed": false,
          "internalType": "uint256",
          "name": "rentExpirationDateInMillis",
          "type": "uint256"
        }
      ],
      "name": "AssetRented",
      "type": "event"
    },
    {
      "anonymous": false,
      "inputs": [
        {
          "indexed": true,
          "internalType": "address",
          "name": "previousOwner",
          "type": "address"
        },
        {
          "indexed": true,
          "internalType": "address",
          "name": "newOwner",
          "type": "address"
        }
      ],
      "name": "OwnershipTransferred",
      "type": "event"
    },
    {
      "anonymous": false,
      "inputs": [
        {
          "indexed": false,
          "internalType": "address",
          "name": "creator",
          "type": "address"
        },
        {
          "indexed": false,
          "internalType": "uint8",
          "name": "royaltyForRental",
          "type": "uint8"
        },
        {
          "indexed": false,
          "internalType": "uint8",
          "name": "royaltyForOwnershipTransfer",
          "type": "uint8"
        },
        {
          "indexed": false,
          "internalType": "uint256",
          "name": "tokenId",
          "type": "uint256"
        }
      ],
      "name": "TokenMinted",
      "type": "event"
    },
    {
      "anonymous": false,
      "inputs": [
        {
          "indexed": true,
          "internalType": "address",
          "name": "from",
          "type": "address"
        },
        {
          "indexed": true,
          "internalType": "address",
          "name": "to",
          "type": "address"
        },
        {
          "indexed": true,
          "internalType": "uint256",
          "name": "tokenId",
          "type": "uint256"
        }
      ],
      "name": "TransferCreativeLicense",
      "type": "event"
    },
    {
      "anonymous": false,
      "inputs": [
        {
          "indexed": true,
          "internalType": "address",
          "name": "from",
          "type": "address"
        },
        {
          "indexed": true,
          "internalType": "address",
          "name": "to",
          "type": "address"
        },
        {
          "indexed": true,
          "internalType": "uint256",
          "name": "tokenId",
          "type": "uint256"
        }
      ],
      "name": "TransferOwnershipLicense",
      "type": "event"
    },
    {
      "inputs": [
        {
          "internalType": "address",
          "name": "to",
          "type": "address"
        },
        {
          "internalType": "uint256",
          "name": "tokenId",
          "type": "uint256"
        }
      ],
      "name": "approve",
      "outputs": [],
      "stateMutability": "nonpayable",
      "type": "function"
    },
    {
      "inputs": [
        {
          "internalType": "address",
          "name": "creativeOwner",
          "type": "address"
        }
      ],
      "name": "balanceOfCreativeOwner",
      "outputs": [
        {
          "internalType": "uint256",
          "name": "",
          "type": "uint256"
        }
      ],
      "stateMutability": "view",
      "type": "function"
    },
    {
      "inputs": [
        {
          "internalType": "address",
          "name": "owner",
          "type": "address"
        }
      ],
      "name": "balanceOfOwner",
      "outputs": [
        {
          "internalType": "uint256",
          "name": "",
          "type": "uint256"
        }
      ],
      "stateMutability": "view",
      "type": "function"
    },
    {
      "inputs": [
        {
          "internalType": "address",
          "name": "renter",
          "type": "address"
        }
      ],
      "name": "balanceOfRenter",
      "outputs": [
        {
          "internalType": "uint256",
          "name": "",
          "type": "uint256"
        }
      ],
      "stateMutability": "view",
      "type": "function"
    },
    {
      "inputs": [
        {
          "internalType": "uint256",
          "name": "tokenId",
          "type": "uint256"
        }
      ],
      "name": "creativeOwnerOf",
      "outputs": [
        {
          "internalType": "address",
          "name": "",
          "type": "address"
        }
      ],
      "stateMutability": "view",
      "type": "function"
    },
    {
      "inputs": [
        {
          "internalType": "uint256",
          "name": "tokenId",
          "type": "uint256"
        }
      ],
      "name": "getApproved",
      "outputs": [
        {
          "internalType": "address",
          "name": "",
          "type": "address"
        }
      ],
      "stateMutability": "view",
      "type": "function"
    },
    {
      "inputs": [
        {
          "internalType": "uint256",
          "name": "tokenId",
          "type": "uint256"
        },
        {
          "internalType": "address",
          "name": "renter",
          "type": "address"
        }
      ],
      "name": "getRentalDate",
      "outputs": [
        {
          "internalType": "uint256",
          "name": "",
          "type": "uint256"
        }
      ],
      "stateMutability": "view",
      "type": "function"
    },
    {
      "inputs": [
        {
          "internalType": "address",
          "name": "owner",
          "type": "address"
        },
        {
          "internalType": "address",
          "name": "operator",
          "type": "address"
        }
      ],
      "name": "isApprovedForAll",
      "outputs": [
        {
          "internalType": "bool",
          "name": "",
          "type": "bool"
        }
      ],
      "stateMutability": "view",
      "type": "function"
    },
    {
      "inputs": [],
      "name": "name",
      "outputs": [
        {
          "internalType": "string",
          "name": "",
          "type": "string"
        }
      ],
      "stateMutability": "view",
      "type": "function"
    },
    {
      "inputs": [],
      "name": "owner",
      "outputs": [
        {
          "internalType": "address",
          "name": "",
          "type": "address"
        }
      ],
      "stateMutability": "view",
      "type": "function"
    },
    {
      "inputs": [
        {
          "internalType": "uint256",
          "name": "tokenId",
          "type": "uint256"
        }
      ],
      "name": "ownerOf",
      "outputs": [
        {
          "internalType": "address",
          "name": "",
          "type": "address"
        }
      ],
      "stateMutability": "view",
      "type": "function"
    },
    {
      "inputs": [],
      "name": "renounceOwnership",
      "outputs": [],
      "stateMutability": "nonpayable",
      "type": "function"
    },
    {
      "inputs": [
        {
          "internalType": "uint256",
          "name": "tokenId",
          "type": "uint256"
        }
      ],
      "name": "rentersOf",
      "outputs": [
        {
          "internalType": "address[]",
          "name": "",
          "type": "address[]"
        }
      ],
      "stateMutability": "view",
      "type": "function"
    },
    {
      "inputs": [
        {
          "internalType": "uint256",
          "name": "_tokenId",
          "type": "uint256"
        }
      ],
      "name": "royaltyForOwnershipTransfer",
      "outputs": [
        {
          "internalType": "uint8",
          "name": "",
          "type": "uint8"
        }
      ],
      "stateMutability": "view",
      "type": "function"
    },
    {
      "inputs": [
        {
          "internalType": "uint256",
          "name": "_tokenId",
          "type": "uint256"
        }
      ],
      "name": "royaltyForRental",
      "outputs": [
        {
          "internalType": "uint8",
          "name": "",
          "type": "uint8"
        }
      ],
      "stateMutability": "view",
      "type": "function"
    },
    {
      "inputs": [
        {
          "internalType": "address",
          "name": "from",
          "type": "address"
        },
        {
          "internalType": "address",
          "name": "to",
          "type": "address"
        },
        {
          "internalType": "uint256",
          "name": "tokenId",
          "type": "uint256"
        }
      ],
      "name": "safeTransferCreativeLicense",
      "outputs": [],
      "stateMutability": "nonpayable",
      "type": "function"
    },
    {
      "inputs": [
        {
          "internalType": "address",
          "name": "from",
          "type": "address"
        },
        {
          "internalType": "address",
          "name": "to",
          "type": "address"
        },
        {
          "internalType": "uint256",
          "name": "tokenId",
          "type": "uint256"
        },
        {
          "internalType": "bytes",
          "name": "data",
          "type": "bytes"
        }
      ],
      "name": "safeTransferCreativeLicense",
      "outputs": [],
      "stateMutability": "nonpayable",
      "type": "function"
    },
    {
      "inputs": [
        {
          "internalType": "address",
          "name": "from",
          "type": "address"
        },
        {
          "internalType": "address",
          "name": "to",
          "type": "address"
        },
        {
          "internalType": "uint256",
          "name": "tokenId",
          "type": "uint256"
        },
        {
          "internalType": "bytes",
          "name": "data",
          "type": "bytes"
        }
      ],
      "name": "safeTransferOwnershipLicense",
      "outputs": [],
      "stateMutability": "nonpayable",
      "type": "function"
    },
    {
      "inputs": [
        {
          "internalType": "address",
          "name": "from",
          "type": "address"
        },
        {
          "internalType": "address",
          "name": "to",
          "type": "address"
        },
        {
          "internalType": "uint256",
          "name": "tokenId",
          "type": "uint256"
        }
      ],
      "name": "safeTransferOwnershipLicense",
      "outputs": [],
      "stateMutability": "nonpayable",
      "type": "function"
    },
    {
      "inputs": [
        {
          "internalType": "address",
          "name": "operator",
          "type": "address"
        },
        {
          "internalType": "bool",
          "name": "approved",
          "type": "bool"
        }
      ],
      "name": "setApprovalForAll",
      "outputs": [],
      "stateMutability": "nonpayable",
      "type": "function"
    },
    {
      "inputs": [
        {
          "internalType": "bytes4",
          "name": "interfaceId",
          "type": "bytes4"
        }
      ],
      "name": "supportsInterface",
      "outputs": [
        {
          "internalType": "bool",
          "name": "",
          "type": "bool"
        }
      ],
      "stateMutability": "view",
      "type": "function"
    },
    {
      "inputs": [],
      "name": "symbol",
      "outputs": [
        {
          "internalType": "string",
          "name": "",
          "type": "string"
        }
      ],
      "stateMutability": "view",
      "type": "function"
    },
    {
      "inputs": [
        {
          "internalType": "uint256",
          "name": "tokenId",
          "type": "uint256"
        }
      ],
      "name": "tokenURI",
      "outputs": [
        {
          "internalType": "string",
          "name": "",
          "type": "string"
        }
      ],
      "stateMutability": "view",
      "type": "function"
    },
    {
      "inputs": [
        {
          "internalType": "address",
          "name": "newOwner",
          "type": "address"
        }
      ],
      "name": "transferOwnership",
      "outputs": [],
      "stateMutability": "nonpayable",
      "type": "function"
    },
    {
      "inputs": [
        {
          "internalType": "uint256",
          "name": "tokenId",
          "type": "uint256"
        },
        {
          "internalType": "uint256",
          "name": "currentDate",
          "type": "uint256"
        },
        {
          "internalType": "address",
          "name": "renter",
          "type": "address"
        }
      ],
      "name": "updateEndRentalDate",
      "outputs": [
        {
          "internalType": "uint256",
          "name": "",
          "type": "uint256"
        }
      ],
      "stateMutability": "nonpayable",
      "type": "function"
    },
    {
      "inputs": [],
      "name": "availableTokens",
      "outputs": [
        {
          "internalType": "uint256",
          "name": "",
          "type": "uint256"
        }
      ],
      "stateMutability": "view",
      "type": "function"
    },
    {
      "inputs": [
        {
          "internalType": "uint256",
          "name": "tokenId",
          "type": "uint256"
        }
      ],
      "name": "ownershipPriceOf",
      "outputs": [
        {
          "internalType": "uint256",
          "name": "",
          "type": "uint256"
        }
      ],
      "stateMutability": "view",
      "type": "function"
    },
    {
      "inputs": [
        {
          "internalType": "uint256",
          "name": "tokenId",
          "type": "uint256"
        }
      ],
      "name": "creativeOwnershipPriceOf",
      "outputs": [
        {
          "internalType": "uint256",
          "name": "",
          "type": "uint256"
        }
      ],
      "stateMutability": "view",
      "type": "function"
    },
    {
      "inputs": [
        {
          "internalType": "uint256",
          "name": "tokenId",
          "type": "uint256"
        }
      ],
      "name": "rentalPriceOf",
      "outputs": [
        {
          "internalType": "uint256",
          "name": "",
          "type": "uint256"
        }
      ],
      "stateMutability": "view",
      "type": "function"
    },
    {
      "inputs": [
        {
          "internalType": "address",
          "name": "creator",
          "type": "address"
        },
        {
          "internalType": "string",
          "name": "file",
          "type": "string"
        },
        {
          "internalType": "uint8",
          "name": "rentalRoyalty",
          "type": "uint8"
        },
        {
          "internalType": "uint8",
          "name": "ownershipTransferRoyalty",
          "type": "uint8"
        }
      ],
      "name": "mint",
      "outputs": [
        {
          "internalType": "uint256",
          "name": "",
          "type": "uint256"
        }
      ],
      "stateMutability": "nonpayable",
      "type": "function"
    },
    {
      "inputs": [
        {
          "internalType": "uint256",
          "name": "tokenId",
          "type": "uint256"
        },
        {
          "internalType": "uint256",
          "name": "priceInWei",
          "type": "uint256"
        }
      ],
      "name": "setOwnershipLicensePrice",
      "outputs": [],
      "stateMutability": "nonpayable",
      "type": "function"
    },
    {
      "inputs": [
        {
          "internalType": "uint256",
          "name": "tokenId",
          "type": "uint256"
        },
        {
          "internalType": "uint256",
          "name": "priceInWei",
          "type": "uint256"
        }
      ],
      "name": "setCreativeLicensePrice",
      "outputs": [],
      "stateMutability": "nonpayable",
      "type": "function"
    },
    {
      "inputs": [
        {
          "internalType": "uint256",
          "name": "tokenId",
          "type": "uint256"
        },
        {
          "internalType": "uint256",
          "name": "priceInWei",
          "type": "uint256"
        }
      ],
      "name": "setRentalPrice",
      "outputs": [],
      "stateMutability": "nonpayable",
      "type": "function"
    },
    {
      "inputs": [
        {
          "internalType": "uint256",
          "name": "tokenId",
          "type": "uint256"
        },
        {
          "internalType": "uint256",
          "name": "rentStartingDateInMillis",
          "type": "uint256"
        },
        {
          "internalType": "uint256",
          "name": "rentExpirationDateInMillis",
          "type": "uint256"
        }
      ],
      "name": "rentAsset",
      "outputs": [],
      "stateMutability": "payable",
      "type": "function"
    },
    {
      "inputs": [
        {
          "internalType": "address",
          "name": "renter",
          "type": "address"
        },
        {
          "internalType": "uint256",
          "name": "tokenId",
          "type": "uint256"
        },
        {
          "internalType": "uint256",
          "name": "rentExpirationDateInMillis",
          "type": "uint256"
        }
      ],
      "name": "rentAsset",
      "outputs": [],
      "stateMutability": "nonpayable",
      "type": "function"
    },
    {
      "inputs": [
        {
          "internalType": "address",
          "name": "from",
          "type": "address"
        },
        {
          "internalType": "address",
          "name": "to",
          "type": "address"
        },
        {
          "internalType": "uint256",
          "name": "tokenId",
          "type": "uint256"
        }
      ],
      "name": "transferOwnershipLicense",
      "outputs": [],
      "stateMutability": "nonpayable",
      "type": "function"
    },
    {
      "inputs": [
        {
          "internalType": "uint256",
          "name": "tokenId",
          "type": "uint256"
        },
        {
          "internalType": "address",
          "name": "to",
          "type": "address"
        }
      ],
      "name": "transferOwnershipLicense",
      "outputs": [],
      "stateMutability": "nonpayable",
      "type": "function"
    },
    {
      "inputs": [
        {
          "internalType": "uint256",
          "name": "tokenId",
          "type": "uint256"
        }
      ],
      "name": "obtainOwnershipLicense",
      "outputs": [],
      "stateMutability": "payable",
      "type": "function"
    },
    {
      "inputs": [
        {
          "internalType": "uint256",
          "name": "tokenId",
          "type": "uint256"
        },
        {
          "internalType": "address",
          "name": "to",
          "type": "address"
        }
      ],
      "name": "transferCreativeLicense",
      "outputs": [],
      "stateMutability": "nonpayable",
      "type": "function"
    },
    {
      "inputs": [
        {
          "internalType": "address",
          "name": "from",
          "type": "address"
        },
        {
          "internalType": "address",
          "name": "to",
          "type": "address"
        },
        {
          "internalType": "uint256",
          "name": "tokenId",
          "type": "uint256"
        }
      ],
      "name": "transferCreativeLicense",
      "outputs": [],
      "stateMutability": "nonpayable",
      "type": "function"
    },
    {
      "inputs": [
        {
          "internalType": "uint256",
          "name": "tokenId",
          "type": "uint256"
        }
      ],
      "name": "obtainCreativeLicense",
      "outputs": [],
      "stateMutability": "payable",
      "type": "function"
    }
  ],
  "bytecode": "0x60806040523480156200001157600080fd5b506040516200485f3803806200485f833981016040819052620000349162000268565b8251839083906200004d906000906020850190620000f5565b50805162000063906001906020840190620000f5565b505050620000806200007a6200009f60201b60201c565b620000a3565b805162000095906010906020840190620000f5565b5050505062000336565b3390565b600e80546001600160a01b038381166001600160a01b0319831681179093556040519116919082907f8be0079c531659141344cd1fd0a4f28419497f9722a3daafe3b4186f6b6457e090600090a35050565b8280546200010390620002f9565b90600052602060002090601f01602090048101928262000127576000855562000172565b82601f106200014257805160ff191683800117855562000172565b8280016001018555821562000172579182015b828111156200017257825182559160200191906001019062000155565b506200018092915062000184565b5090565b5b8082111562000180576000815560010162000185565b634e487b7160e01b600052604160045260246000fd5b600082601f830112620001c357600080fd5b81516001600160401b0380821115620001e057620001e06200019b565b604051601f8301601f19908116603f011681019082821181831017156200020b576200020b6200019b565b816040528381526020925086838588010111156200022857600080fd5b600091505b838210156200024c57858201830151818301840152908201906200022d565b838211156200025e5760008385830101525b9695505050505050565b6000806000606084860312156200027e57600080fd5b83516001600160401b03808211156200029657600080fd5b620002a487838801620001b1565b94506020860151915080821115620002bb57600080fd5b620002c987838801620001b1565b93506040860151915080821115620002e057600080fd5b50620002ef86828701620001b1565b9150509250925092565b600181811c908216806200030e57607f821691505b602082108114156200033057634e487b7160e01b600052602260045260246000fd5b50919050565b61451980620003466000396000f3fe6080604052600436106102c65760003560e01c80638c4b5a9211610179578063bf0a660b116100d6578063e985e9c51161008a578063f2fde38b11610064578063f2fde38b146107d5578063f3e4198e146107f5578063f9de1d831461081557600080fd5b8063e985e9c51461074c578063ec2b20ac14610795578063ef1e00e0146107b557600080fd5b8063c66130d7116100bb578063c66130d7146106ec578063c87b56dd1461070c578063de8e7bab1461072c57600080fd5b8063bf0a660b146106ac578063c588ea5c146106cc57600080fd5b80639f2cd0e41161012d578063a333818c11610112578063a333818c1461064c578063aad1b61714610679578063afe9a4ff1461069957600080fd5b80639f2cd0e41461060c578063a22cb4651461062c57600080fd5b80638da5cb5b1161015e5780638da5cb5b146105b957806395d89b41146105d75780639940a11a146105ec57600080fd5b80638c4b5a92146105795780638d6cf8bc1461059957600080fd5b806341fb748b116102275780636ebd773d116101db578063715018a6116101c0578063715018a61461052457806379b66eb714610539578063851fcadd1461055957600080fd5b80636ebd773d146104e45780636f9025161461050457600080fd5b80634cd5ca8e1161020c5780634cd5ca8e1461048f5780636352211e146104af57806369bb4dc2146104cf57600080fd5b806341fb748b146104415780634909d94e1461046f57600080fd5b80630c2e6c161161027e57806325d8a3581161026357806325d8a358146103cf57806325dc1264146104015780633c7342341461042157600080fd5b80630c2e6c161461039c578063224157ea146103af57600080fd5b8063081812fc116102af578063081812fc14610322578063095ea7b31461035a5780630b97be961461037c57600080fd5b806301ffc9a7146102cb57806306fdde0314610300575b600080fd5b3480156102d757600080fd5b506102eb6102e6366004613e33565b610828565b60405190151581526020015b60405180910390f35b34801561030c57600080fd5b506103156108ec565b6040516102f79190613ea8565b34801561032e57600080fd5b5061034261033d366004613ebb565b61097e565b6040516001600160a01b0390911681526020016102f7565b34801561036657600080fd5b5061037a610375366004613ef0565b610a01565b005b34801561038857600080fd5b5061037a610397366004613f30565b610c13565b61037a6103aa36600461400c565b610cc1565b3480156103bb57600080fd5b506103426103ca366004613ebb565b611052565b3480156103db57600080fd5b506103ef6103ea366004613ebb565b6110dd565b60405160ff90911681526020016102f7565b34801561040d57600080fd5b5061037a61041c366004614038565b6110e8565b34801561042d57600080fd5b5061037a61043c366004613f30565b611108565b34801561044d57600080fd5b5061046161045c366004614074565b6111b6565b6040519081526020016102f7565b34801561047b57600080fd5b5061037a61048a366004614038565b61152d565b34801561049b57600080fd5b506104616104aa3660046140a9565b6115da565b3480156104bb57600080fd5b506103426104ca366004613ebb565b611674565b3480156104db57600080fd5b506104616116ff565b3480156104f057600080fd5b5061037a6104ff3660046140c4565b61170f565b34801561051057600080fd5b5061046161051f366004613ebb565b611847565b34801561053057600080fd5b5061037a6118c4565b34801561054557600080fd5b5061037a6105543660046140f0565b61192a565b34801561056557600080fd5b506104616105743660046140c4565b611a40565b34801561058557600080fd5b5061037a610594366004614038565b611b35565b3480156105a557600080fd5b5061037a6105b43660046140c4565b611b50565b3480156105c557600080fd5b50600e546001600160a01b0316610342565b3480156105e357600080fd5b50610315611c76565b3480156105f857600080fd5b50610461610607366004614123565b611c85565b34801561061857600080fd5b5061037a610627366004614038565b611d7a565b34801561063857600080fd5b5061037a6106473660046141c8565b611e27565b34801561065857600080fd5b5061066c610667366004613ebb565b611e36565b6040516102f79190614204565b34801561068557600080fd5b506104616106943660046140a9565b611ea2565b61037a6106a7366004613ebb565b611f2a565b3480156106b857600080fd5b506104616106c7366004613ebb565b6121ef565b3480156106d857600080fd5b506103ef6106e7366004613ebb565b61226c565b3480156106f857600080fd5b506104616107073660046140a9565b612277565b34801561071857600080fd5b50610315610727366004613ebb565b612311565b34801561073857600080fd5b5061037a6107473660046140f0565b612467565b34801561075857600080fd5b506102eb610767366004614251565b6001600160a01b039182166000908152600c6020908152604080832093909416825291909152205460ff1690565b3480156107a157600080fd5b5061037a6107b03660046140f0565b61257d565b3480156107c157600080fd5b506104616107d0366004613ebb565b612693565b3480156107e157600080fd5b5061037a6107f03660046140a9565b612710565b34801561080157600080fd5b5061037a61081036600461427b565b6127f2565b61037a610823366004613ebb565b6127fd565b60007fffffffff000000000000000000000000000000000000000000000000000000008216158061089a57507fffffffff0000000000000000000000000000000000000000000000000000000082167f5b5e139f00000000000000000000000000000000000000000000000000000000145b806108e657507f01ffc9a7000000000000000000000000000000000000000000000000000000007fffffffff000000000000000000000000000000000000000000000000000000008316145b92915050565b6060600080546108fb906142ae565b80601f0160208091040260200160405190810160405280929190818152602001828054610927906142ae565b80156109745780601f1061094957610100808354040283529160200191610974565b820191906000526020600020905b81548152906001019060200180831161095757829003601f168201915b5050505050905090565b600061098982612b92565b6109e55760405162461bcd60e51b815260206004820152602260248201527f455243313139303a2054686520746f6b656e20646f6573206e6f7420657869736044820152613a1760f11b60648201526084015b60405180910390fd5b506000908152600960205260409020546001600160a01b031690565b6000610a0c82611674565b90506000610a1983611052565b9050816001600160a01b0316846001600160a01b03161415610aa35760405162461bcd60e51b815260206004820152602a60248201527f455243313139303a2043616e6e6f7420617070726f766520746865206375727260448201527f656e74206f776e65722e0000000000000000000000000000000000000000000060648201526084016109dc565b806001600160a01b0316846001600160a01b03161415610b2b5760405162461bcd60e51b815260206004820152603360248201527f455243313139303a2043616e6e6f7420617070726f766520746865206375727260448201527f656e74206372656174697665206f776e65722e0000000000000000000000000060648201526084016109dc565b336001600160a01b0383161480610b4a5750336001600160a01b038216145b80610b5a5750610b5a8233610767565b80610b6a5750610b6a8133610767565b610c025760405162461bcd60e51b815260206004820152605b60248201527f455243313139303a205468652073656e646572206973206e656974686572207460448201527f68652028637265617469766529206f776e6572206f662074686520746f6b656e60648201527f206e6f7220617070726f76656420746f206d616e6167652069742e0000000000608482015260a4016109dc565b610c0d828585612bd1565b50505050565b610c1d3383612c3a565b610cb55760405162461bcd60e51b815260206004820152604a60248201527f455243313139303a205468652073656e646572206973206e656974686572207460448201527f6865206f776e6572206e6f7220617070726f76656420746f206d616e6167652060648201527f74686520746f6b656e2e00000000000000000000000000000000000000000000608482015260a4016109dc565b610c0d84848484612d1a565b610cca83612b92565b610d295760405162461bcd60e51b815260206004820152602a60248201527f455243313139305472616461626c653a2054686520746f6b656e20646f6573206044820152693737ba1032bc34b9ba1760b11b60648201526084016109dc565b600083815260136020526040902054610dd05760405162461bcd60e51b815260206004820152604160248201527f455243313139305472616461626c653a205468652061737365742072656c617460448201527f656420746f207468697320746f6b656e206973206e6f742072656e7461626c6560648201527f2e00000000000000000000000000000000000000000000000000000000000000608482015260a4016109dc565b60006103e8610ddf84846142ff565b610de99190614316565b905060008111610e615760405162461bcd60e51b815260206004820152603260248201527f455243313139305472616461626c653a205468652072656e74616c2074696d6560448201527f206d75737420626520706f7369746976652e000000000000000000000000000060648201526084016109dc565b600084815260136020526040812054610e7a9083614338565b905080341015610f185760405162461bcd60e51b815260206004820152605560248201527f455243313139305472616461626c653a2054686520616d6f756e74206f66207760448201527f65692073656e74206973206e6f742073756666696369656e7420746f20636f7660648201527f6572207468652072656e7420657870656e7365732e0000000000000000000000608482015260a4016109dc565b6000610f2386611674565b90506000610f3087611052565b9050610f3d3388876127f2565b806001600160a01b0316826001600160a01b03161415610f92576040516001600160a01b038316903480156108fc02916000818181858888f19350505050158015610f8c573d6000803e3d6000fd5b50611049565b6000610f9d88612da5565b90506001600160a01b0383166108fc6064610fb88482614357565b610fc59060ff1634614338565b610fcf9190614316565b6040518115909202916000818181858888f19350505050158015610ff7573d6000803e3d6000fd5b506001600160a01b0382166108fc606461101460ff851634614338565b61101e9190614316565b6040518115909202916000818181858888f19350505050158015611046573d6000803e3d6000fd5b50505b50505050505050565b6000818152600360205260408120546001600160a01b0316806108e65760405162461bcd60e51b815260206004820152603460248201527f455243313139303a204e6f626f647920686173206372656174697665206f776e60448201527f657273686970206f76657220746f6b656e49642e00000000000000000000000060648201526084016109dc565b60006108e682612e1d565b61110383838360405180602001604052806000815250611108565b505050565b6111123383612e95565b6111aa5760405162461bcd60e51b815260206004820152605360248201527f455243313139303a205468652073656e646572206973206e656974686572207460448201527f6865206372656174697665206f776e6572206e6f7220617070726f766564207460648201527f6f206d616e6167652074686520746f6b656e2e00000000000000000000000000608482015260a4016109dc565b610c0d84848484612f02565b60006111c184612b92565b6112185760405162461bcd60e51b815260206004820152602260248201527f455243313139303a2054686520746f6b656e20646f6573206e6f7420657869736044820152613a1760f11b60648201526084016109dc565b6001600160a01b0382166112825760405162461bcd60e51b815260206004820152602b60248201527f455243313139303a2072656e7465722063616e6e6f7420626520746865207a6560448201526a39379030b2323932b9b99760a91b60648201526084016109dc565b60008481526004602090815260408083206001600160a01b03861684529091529020546113175760405162461bcd60e51b815260206004820152602d60248201527f455243313139303a205468652072656e74657220686173206e6f742072656e7460448201527f65642074686520746f6b656e2e0000000000000000000000000000000000000060648201526084016109dc565b60008481526004602090815260408083206001600160a01b0386168452909152902054838110156115015760008581526004602090815260408083206001600160a01b03871684529091528120819055805b60008781526005602052604090205481108015611384575081155b156114d057600087815260056020526040902080546001600160a01b0387169190839081106113b5576113b561437a565b6000918252602090912001546001600160a01b031614156114be57600087815260056020526040902080546113ec906001906142ff565b815481106113fc576113fc61437a565b60009182526020808320909101548983526005909152604090912080546001600160a01b0390921691839081106114355761143561437a565b6000918252602080832091909101805473ffffffffffffffffffffffffffffffffffffffff19166001600160a01b03949094169390931790925588815260059091526040902080548061148a5761148a614390565b6000828152602090208101600019908101805473ffffffffffffffffffffffffffffffffffffffff19169055019055600191505b806114c8816143a6565b915050611369565b506001600160a01b03841660009081526008602052604081208054600192906114fa9084906142ff565b9091555050505b505060008381526004602090815260408083206001600160a01b03851684529091529020549392505050565b6115373382612c3a565b6115cf5760405162461bcd60e51b815260206004820152604a60248201527f455243313139303a205468652073656e646572206973206e656974686572207460448201527f6865206f776e6572206e6f7220617070726f76656420746f206d616e6167652060648201527f74686520746f6b656e2e00000000000000000000000000000000000000000000608482015260a4016109dc565b611103838383612f19565b60006001600160a01b0382166116585760405162461bcd60e51b815260206004820152603260248201527f455243313139303a2063726561746976654f776e65722063616e6e6f7420626560448201527f20746865207a65726f20616464726573732e000000000000000000000000000060648201526084016109dc565b506001600160a01b031660009081526007602052604090205490565b6000818152600260205260408120546001600160a01b0316806108e65760405162461bcd60e51b815260206004820152602b60248201527f455243313139303a204e6f626f647920686173206f776e657273686970206f7660448201527f657220746f6b656e49642e00000000000000000000000000000000000000000060648201526084016109dc565b600061170a600f5490565b905090565b6001600160a01b0381166117b15760405162461bcd60e51b815260206004820152604a60248201527f455243313139305472616461626c653a2043616e6e6f74207472616e7366657260448201527f20746865206372656174697665206c6963656e736520746f20746865207a657260648201527f6f20616464726573732e00000000000000000000000000000000000000000000608482015260a4016109dc565b60006117bc83611052565b9050336001600160a01b0382161461183c5760405162461bcd60e51b815260206004820152603e60248201527f455243313139305472616461626c653a205468652073656e64657220646f657360448201527f206e6f74206f776e20746865206372656174697665206c6963656e73652e000060648201526084016109dc565b611103818385611d7a565b600061185282612b92565b6118b15760405162461bcd60e51b815260206004820152602a60248201527f455243313139305472616461626c653a2054686520746f6b656e20646f6573206044820152693737ba1032bc34b9ba1760b11b60648201526084016109dc565b5060009081526012602052604090205490565b600e546001600160a01b0316331461191e5760405162461bcd60e51b815260206004820181905260248201527f4f776e61626c653a2063616c6c6572206973206e6f7420746865206f776e657260448201526064016109dc565b6119286000613121565b565b61193382612b92565b6119925760405162461bcd60e51b815260206004820152602a60248201527f455243313139305472616461626c653a2054686520746f6b656e20646f6573206044820152693737ba1032bc34b9ba1760b11b60648201526084016109dc565b60008111611a2e5760405162461bcd60e51b815260206004820152604360248201527f455243313139305472616461626c653a20546865206f776e657273686970206c60448201527f6963656e736520636f7374206d7573742062652067726561746572207468616e60648201527f20302e0000000000000000000000000000000000000000000000000000000000608482015260a4016109dc565b60009182526011602052604090912055565b6000611a4b83612b92565b611aa25760405162461bcd60e51b815260206004820152602260248201527f455243313139303a2054686520746f6b656e20646f6573206e6f7420657869736044820152613a1760f11b60648201526084016109dc565b6001600160a01b038216611b0c5760405162461bcd60e51b815260206004820152602b60248201527f455243313139303a2072656e7465722063616e6e6f7420626520746865207a6560448201526a39379030b2323932b9b99760a91b60648201526084016109dc565b5060009182526004602090815260408084206001600160a01b0393909316845291905290205490565b61110383838360405180602001604052806000815250610c13565b6001600160a01b038116611be05760405162461bcd60e51b815260206004820152604b60248201527f455243313139305472616461626c653a2043616e6e6f74207472616e7366657260448201527f20746865206f776e657273686970206c6963656e736520746f20746865207a6560648201526a39379030b2323932b9b99760a91b608482015260a4016109dc565b6000611beb83611674565b9050336001600160a01b03821614611c6b5760405162461bcd60e51b815260206004820152603f60248201527f455243313139305472616461626c653a205468652073656e64657220646f657360448201527f206e6f74206f776e20746865206f776e657273686970206c6963656e73652e0060648201526084016109dc565b61110381838561152d565b6060600180546108fb906142ae565b600e546000906001600160a01b03163314611ce25760405162461bcd60e51b815260206004820181905260248201527f4f776e61626c653a2063616c6c6572206973206e6f7420746865206f776e657260448201526064016109dc565b611cf0600f80546001019055565b6000611cfb600f5490565b9050611d078782613180565b611d12818787613386565b611d1d8185856133ff565b604080516001600160a01b038916815260ff86811660208301528516818301526060810183905290517fd3df8e557dd2db4e6ed42c0bc93d8dceae1dae9bd0d8bfa2c69d68759fceab539181900360800190a19695505050505050565b611d843382612e95565b611e1c5760405162461bcd60e51b815260206004820152605360248201527f455243313139303a205468652073656e646572206973206e656974686572207460448201527f6865206372656174697665206f776e6572206e6f7220617070726f766564207460648201527f6f206d616e6167652074686520746f6b656e2e00000000000000000000000000608482015260a4016109dc565b611103838383613589565b611e32338383613791565b5050565b600081815260056020908152604091829020805483518184028101840190945280845260609392830182828015611e9657602002820191906000526020600020905b81546001600160a01b03168152600190910190602001808311611e78575b50505050509050919050565b60006001600160a01b038216611f0e5760405162461bcd60e51b815260206004820152602b60248201527f455243313139303a2072656e7465722063616e6e6f7420626520746865207a6560448201526a39379030b2323932b9b99760a91b60648201526084016109dc565b506001600160a01b031660009081526008602052604090205490565b611f3381612b92565b611f925760405162461bcd60e51b815260206004820152602a60248201527f455243313139305472616461626c653a2054686520746f6b656e20646f6573206044820152693737ba1032bc34b9ba1760b11b60648201526084016109dc565b6000818152601260205260409020546120395760405162461bcd60e51b815260206004820152604a60248201527f455243313139305472616461626c653a20546865206372656174697665206c6960448201527f63656e7365206f66207468697320746f6b656e2063616e6e6f7420626520747260648201527f616e736665727265642e00000000000000000000000000000000000000000000608482015260a4016109dc565b6000818152601260205260409020543410156121095760405162461bcd60e51b815260206004820152606b60248201527f455243313139305472616461626c653a2054686520616d6f756e74206f66207760448201527f65692073656e74206973206e6f742073756666696369656e7420666f72206f6260648201527f7461696e696e6720746865206372656174697665206c6963656e7365206f662060848201527f7468697320746f6b656e2e00000000000000000000000000000000000000000060a482015260c4016109dc565b336121a25760405162461bcd60e51b815260206004820152604a60248201527f455243313139305472616461626c653a2043616e6e6f74207472616e7366657260448201527f20746865206372656174697665206c6963656e736520746f20746865207a657260648201527f6f20616464726573732e00000000000000000000000000000000000000000000608482015260a4016109dc565b60006121ad82611052565b90506121ba813384611d7a565b6040516001600160a01b038216903480156108fc02916000818181858888f19350505050158015611103573d6000803e3d6000fd5b60006121fa82612b92565b6122595760405162461bcd60e51b815260206004820152602a60248201527f455243313139305472616461626c653a2054686520746f6b656e20646f6573206044820152693737ba1032bc34b9ba1760b11b60648201526084016109dc565b5060009081526013602052604090205490565b60006108e682612da5565b60006001600160a01b0382166122f55760405162461bcd60e51b815260206004820152602a60248201527f455243313139303a206f776e65722063616e6e6f7420626520746865207a657260448201527f6f20616464726573732e0000000000000000000000000000000000000000000060648201526084016109dc565b506001600160a01b031660009081526006602052604090205490565b606061231c82612b92565b6123735760405162461bcd60e51b815260206004820152602260248201527f455243313139303a2054686520746f6b656e20646f6573206e6f7420657869736044820152613a1760f11b60648201526084016109dc565b6000828152600d60205260408120805461238c906142ae565b9050116124015760405162461bcd60e51b815260206004820152602960248201527f455243313139303a204e6f2066696c65206173736f63696174656420746f207460448201527f686520746f6b656e2e000000000000000000000000000000000000000000000060648201526084016109dc565b600061240b61387f565b9050600081511161242b5760405180602001604052806000815250612460565b80600d60008581526020019081526020016000206040516020016124509291906143c1565b6040516020818303038152906040525b9392505050565b61247082612b92565b6124cf5760405162461bcd60e51b815260206004820152602a60248201527f455243313139305472616461626c653a2054686520746f6b656e20646f6573206044820152693737ba1032bc34b9ba1760b11b60648201526084016109dc565b6000811161256b5760405162461bcd60e51b815260206004820152604260248201527f455243313139305472616461626c653a20546865206372656174697665206c6960448201527f63656e736520636f7374206d7573742062652067726561746572207468616e2060648201527f302e000000000000000000000000000000000000000000000000000000000000608482015260a4016109dc565b60009182526012602052604090912055565b61258682612b92565b6125e55760405162461bcd60e51b815260206004820152602a60248201527f455243313139305472616461626c653a2054686520746f6b656e20646f6573206044820152693737ba1032bc34b9ba1760b11b60648201526084016109dc565b600081116126815760405162461bcd60e51b815260206004820152604360248201527f455243313139305472616461626c653a205468652072656e74616c20636f737460448201527f20706572207365636f6e64206d7573742062652067726561746572207468616e60648201527f20302e0000000000000000000000000000000000000000000000000000000000608482015260a4016109dc565b60009182526013602052604090912055565b600061269e82612b92565b6126fd5760405162461bcd60e51b815260206004820152602a60248201527f455243313139305472616461626c653a2054686520746f6b656e20646f6573206044820152693737ba1032bc34b9ba1760b11b60648201526084016109dc565b5060009081526011602052604090205490565b600e546001600160a01b0316331461276a5760405162461bcd60e51b815260206004820181905260248201527f4f776e61626c653a2063616c6c6572206973206e6f7420746865206f776e657260448201526064016109dc565b6001600160a01b0381166127e65760405162461bcd60e51b815260206004820152602660248201527f4f776e61626c653a206e6577206f776e657220697320746865207a65726f206160448201527f646472657373000000000000000000000000000000000000000000000000000060648201526084016109dc565b6127ef81613121565b50565b61110383838361388e565b61280681612b92565b6128655760405162461bcd60e51b815260206004820152602a60248201527f455243313139305472616461626c653a2054686520746f6b656e20646f6573206044820152693737ba1032bc34b9ba1760b11b60648201526084016109dc565b60008181526011602052604090205461290c5760405162461bcd60e51b815260206004820152604b60248201527f455243313139305472616461626c653a20546865206f776e657273686970206c60448201527f6963656e7365206f66207468697320746f6b656e2063616e6e6f74206265207460648201527f72616e736665727265642e000000000000000000000000000000000000000000608482015260a4016109dc565b6000818152601160205260409020543410156129dc5760405162461bcd60e51b815260206004820152606c60248201527f455243313139305472616461626c653a2054686520616d6f756e74206f66207760448201527f65692073656e74206973206e6f742073756666696369656e7420666f72206f6260648201527f7461696e696e6720746865206f776e657273686970206c6963656e7365206f6660848201527f207468697320746f6b656e2e000000000000000000000000000000000000000060a482015260c4016109dc565b33612a635760405162461bcd60e51b815260206004820152604b60248201527f455243313139305472616461626c653a2043616e6e6f74207472616e7366657260448201527f20746865206f776e657273686970206c6963656e736520746f20746865207a6560648201526a39379030b2323932b9b99760a91b608482015260a4016109dc565b6000612a6e82611674565b90506000612a7b83611052565b9050612a8882338561152d565b806001600160a01b0316826001600160a01b03161415612ad7576040516001600160a01b038316903480156108fc02916000818181858888f19350505050158015610c0d573d6000803e3d6000fd5b6000612ae284612e1d565b90506001600160a01b0383166108fc6064612afd8482614357565b612b0a9060ff1634614338565b612b149190614316565b6040518115909202916000818181858888f19350505050158015612b3c573d6000803e3d6000fd5b506001600160a01b0382166108fc6064612b5960ff851634614338565b612b639190614316565b6040518115909202916000818181858888f19350505050158015612b8b573d6000803e3d6000fd5b5050505050565b6000818152600260205260408120546001600160a01b0316158015906108e65750506000908152600360205260409020546001600160a01b0316151590565b600081815260096020526040808220805473ffffffffffffffffffffffffffffffffffffffff19166001600160a01b0386811691821790925591518493918716917f8c5be1e5ebec7d5bd14f71427d1e84f3dd0314c0f7b2291e5b200ac8c7c3b92591a4505050565b6000612c4582612b92565b612c9c5760405162461bcd60e51b815260206004820152602260248201527f455243313139303a2054686520746f6b656e20646f6573206e6f7420657869736044820152613a1760f11b60648201526084016109dc565b6000612ca783611674565b9050806001600160a01b0316846001600160a01b03161480612ce25750836001600160a01b0316612cd78461097e565b6001600160a01b0316145b80612d1257506001600160a01b038082166000908152600c602090815260408083209388168352929052205460ff165b949350505050565b612d25848484612f19565b612d3184848484613a1b565b610c0d576040805162461bcd60e51b81526020600482015260248101919091527f455243313139303a205472616e7366657220746f20636f6e7472616374206e6f60448201527f7420696d706c656d656e74696e6720494552433131393052656365697665722e60648201526084016109dc565b6000612db082612b92565b612e075760405162461bcd60e51b815260206004820152602260248201527f455243313139303a2054686520746f6b656e20646f6573206e6f7420657869736044820152613a1760f11b60648201526084016109dc565b506000908152600a602052604090205460ff1690565b6000612e2882612b92565b612e7f5760405162461bcd60e51b815260206004820152602260248201527f455243313139303a2054686520746f6b656e20646f6573206e6f7420657869736044820152613a1760f11b60648201526084016109dc565b506000908152600b602052604090205460ff1690565b6000612ea082612b92565b612ef75760405162461bcd60e51b815260206004820152602260248201527f455243313139303a2054686520746f6b656e20646f6573206e6f7420657869736044820152613a1760f11b60648201526084016109dc565b6000612ca783611052565b612f0d848484613589565b612d3184848484613bbb565b6000612f2482611674565b9050836001600160a01b0316816001600160a01b031614612fd35760405162461bcd60e51b815260206004820152604260248201527f455243313139303a2043616e6e6f74207472616e7366657220746865206f776e60448201527f657273686970206c6963656e7365206966206974206973206e6f74206f776e6560648201527f642e000000000000000000000000000000000000000000000000000000000000608482015260a4016109dc565b6001600160a01b03831661304f5760405162461bcd60e51b815260206004820152602d60248201527f455243313139303a2043616e6e6f74207472616e7366657220746f207468652060448201527f7a65726f20616464726573732e0000000000000000000000000000000000000060648201526084016109dc565b61305b81600084612bd1565b6001600160a01b03841660009081526006602052604081208054600192906130849084906142ff565b90915550506001600160a01b03831660009081526006602052604081208054600192906130b2908490614472565b9091555050600082815260026020526040808220805473ffffffffffffffffffffffffffffffffffffffff19166001600160a01b0387811691821790925591518593918816917fe80a6bc7d5973fd4e185e65f6809de784f12b41b6e342e215b7d37669cd3cc7f91a450505050565b600e80546001600160a01b0383811673ffffffffffffffffffffffffffffffffffffffff19831681179093556040519116919082907f8be0079c531659141344cd1fd0a4f28419497f9722a3daafe3b4186f6b6457e090600090a35050565b6001600160a01b0382166131fc5760405162461bcd60e51b815260206004820152602760248201527f455243313139303a20746f2063616e6e6f7420626520746865207a65726f206160448201527f6464726573732e0000000000000000000000000000000000000000000000000060648201526084016109dc565b61320581612b92565b156132785760405162461bcd60e51b815260206004820152602260248201527f455243313139303a2054686520746f6b656e20616c726561647920657869737460448201527f732e00000000000000000000000000000000000000000000000000000000000060648201526084016109dc565b6001600160a01b03821660009081526006602052604081208054600192906132a1908490614472565b90915550506001600160a01b03821660009081526007602052604081208054600192906132cf908490614472565b9091555050600081815260026020908152604080832080546001600160a01b03871673ffffffffffffffffffffffffffffffffffffffff199182168117909255600390935281842080549093168117909255518392907fe80a6bc7d5973fd4e185e65f6809de784f12b41b6e342e215b7d37669cd3cc7f908290a460405181906001600160a01b038416906000907f17e7f9521d748f438723d107c498592c030975fd52ce9ca0ff758b7b96cb36ca908290a45050565b61338f83612b92565b6133e65760405162461bcd60e51b815260206004820152602260248201527f455243313139303a2054686520746f6b656e20646f6573206e6f7420657869736044820152613a1760f11b60648201526084016109dc565b6000838152600d60205260409020610c0d908383613d6c565b61340883612b92565b61345f5760405162461bcd60e51b815260206004820152602260248201527f455243313139303a2054686520746f6b656e20646f6573206e6f7420657869736044820152613a1760f11b60648201526084016109dc565b60648260ff1611156134d95760405162461bcd60e51b815260206004820152603160248201527f455243313139303a20526f79616c747920666f722072656e74616c206f75742060448201527f6f662072616e6765205b302c3130305d2e00000000000000000000000000000060648201526084016109dc565b60648160ff1611156135535760405162461bcd60e51b815260206004820152603d60248201527f455243313139303a20526f79616c747920666f72206f776e657273686970207460448201527f72616e73666572206f7574206f662072616e6765205b302c3130305d2e00000060648201526084016109dc565b6000928352600a60209081526040808520805460ff1990811660ff96871617909155600b90925290932080549093169116179055565b600061359482611052565b9050836001600160a01b0316816001600160a01b0316146136435760405162461bcd60e51b815260206004820152604260248201527f455243313139303a2043616e6e6f74207472616e7366657220746865206f776e60448201527f657273686970206c6963656e7365206966206974206973206e6f74206f776e6560648201527f642e000000000000000000000000000000000000000000000000000000000000608482015260a4016109dc565b6001600160a01b0383166136bf5760405162461bcd60e51b815260206004820152602d60248201527f455243313139303a2043616e6e6f74207472616e7366657220746f207468652060448201527f7a65726f20616464726573732e0000000000000000000000000000000000000060648201526084016109dc565b6136cb81600084612bd1565b6001600160a01b03841660009081526007602052604081208054600192906136f49084906142ff565b90915550506001600160a01b0383166000908152600760205260408120805460019290613722908490614472565b9091555050600082815260036020526040808220805473ffffffffffffffffffffffffffffffffffffffff19166001600160a01b0387811691821790925591518593918816917f17e7f9521d748f438723d107c498592c030975fd52ce9ca0ff758b7b96cb36ca91a450505050565b816001600160a01b0316836001600160a01b031614156138195760405162461bcd60e51b815260206004820152602c60248201527f455243313139303a20546865206f776e65722063616e6e6f7420617070726f7660448201527f6520746865697273656c662e000000000000000000000000000000000000000060648201526084016109dc565b6001600160a01b038381166000818152600c6020908152604080832094871680845294909152808220805460ff19168615159081179091559051909392917f17307eab39ab6107e8899845ad3d59bd9653f200f220920489ca2b5937696c3191a4505050565b6060601080546108fb906142ae565b6001600160a01b0383166138f85760405162461bcd60e51b815260206004820152602b60248201527f455243313139303a2072656e7465722063616e6e6f7420626520746865207a6560448201526a39379030b2323932b9b99760a91b60648201526084016109dc565b61390182612b92565b6139585760405162461bcd60e51b815260206004820152602260248201527f455243313139303a2054686520746f6b656e20646f6573206e6f7420657869736044820152613a1760f11b60648201526084016109dc565b60008281526004602090815260408083206001600160a01b0387168085529083528184208590558584526005835281842080546001818101835591865284862001805473ffffffffffffffffffffffffffffffffffffffff191683179055908452600890925282208054919290916139d1908490614472565b909155505060405181815282906001600160a01b038516907fbde1f9520db9dbbe765a8fa71cf09322ecafa1c2ac591112fe5b2f137549d6de9060200160405180910390a3505050565b60006001600160a01b0384163b15613bb0576040517f6b6ea7610000000000000000000000000000000000000000000000000000000081526001600160a01b03851690636b6ea76190613a7890339089908890889060040161448a565b6020604051808303816000875af1925050508015613ab3575060408051601f3d908101601f19168201909252613ab0918101906144c6565b60015b613b65573d808015613ae1576040519150601f19603f3d011682016040523d82523d6000602084013e613ae6565b606091505b508051613b5d576040805162461bcd60e51b81526020600482015260248101919091527f455243313139303a205472616e7366657220746f20636f6e7472616374206e6f60448201527f7420696d706c656d656e74696e6720494552433131393052656365697665722e60648201526084016109dc565b805181602001fd5b7fffffffff00000000000000000000000000000000000000000000000000000000167f6b6ea76100000000000000000000000000000000000000000000000000000000149050612d12565b506001949350505050565b60006001600160a01b0384163b15613bb0576040517f996206e00000000000000000000000000000000000000000000000000000000081526001600160a01b0385169063996206e090613c1890339089908890889060040161448a565b6020604051808303816000875af1925050508015613c53575060408051601f3d908101601f19168201909252613c50918101906144c6565b60015b613d21573d808015613c81576040519150601f19603f3d011682016040523d82523d6000602084013e613c86565b606091505b508051613b5d5760405162461bcd60e51b815260206004820152605560248201527f455243313139303a205472696564207472616e7366657220746f20636f6e747260448201527f616374206e6f7420696d706c656d656e74696e6720494552433131393043726560648201527f61746976654c6963656e736552656365697665722e0000000000000000000000608482015260a4016109dc565b7fffffffff00000000000000000000000000000000000000000000000000000000167f996206e000000000000000000000000000000000000000000000000000000000149050612d12565b828054613d78906142ae565b90600052602060002090601f016020900481019282613d9a5760008555613de0565b82601f10613db35782800160ff19823516178555613de0565b82800160010185558215613de0579182015b82811115613de0578235825591602001919060010190613dc5565b50613dec929150613df0565b5090565b5b80821115613dec5760008155600101613df1565b7fffffffff00000000000000000000000000000000000000000000000000000000811681146127ef57600080fd5b600060208284031215613e4557600080fd5b813561246081613e05565b60005b83811015613e6b578181015183820152602001613e53565b83811115610c0d5750506000910152565b60008151808452613e94816020860160208601613e50565b601f01601f19169290920160200192915050565b6020815260006124606020830184613e7c565b600060208284031215613ecd57600080fd5b5035919050565b80356001600160a01b0381168114613eeb57600080fd5b919050565b60008060408385031215613f0357600080fd5b613f0c83613ed4565b946020939093013593505050565b634e487b7160e01b600052604160045260246000fd5b60008060008060808587031215613f4657600080fd5b613f4f85613ed4565b9350613f5d60208601613ed4565b925060408501359150606085013567ffffffffffffffff80821115613f8157600080fd5b818701915087601f830112613f9557600080fd5b813581811115613fa757613fa7613f1a565b604051601f8201601f19908116603f01168101908382118183101715613fcf57613fcf613f1a565b816040528281528a6020848701011115613fe857600080fd5b82602086016020830137600060208483010152809550505050505092959194509250565b60008060006060848603121561402157600080fd5b505081359360208301359350604090920135919050565b60008060006060848603121561404d57600080fd5b61405684613ed4565b925061406460208501613ed4565b9150604084013590509250925092565b60008060006060848603121561408957600080fd5b83359250602084013591506140a060408501613ed4565b90509250925092565b6000602082840312156140bb57600080fd5b61246082613ed4565b600080604083850312156140d757600080fd5b823591506140e760208401613ed4565b90509250929050565b6000806040838503121561410357600080fd5b50508035926020909101359150565b803560ff81168114613eeb57600080fd5b60008060008060006080868803121561413b57600080fd5b61414486613ed4565b9450602086013567ffffffffffffffff8082111561416157600080fd5b818801915088601f83011261417557600080fd5b81358181111561418457600080fd5b89602082850101111561419657600080fd5b6020830196508095505050506141ae60408701614112565b91506141bc60608701614112565b90509295509295909350565b600080604083850312156141db57600080fd5b6141e483613ed4565b9150602083013580151581146141f957600080fd5b809150509250929050565b6020808252825182820181905260009190848201906040850190845b818110156142455783516001600160a01b031683529284019291840191600101614220565b50909695505050505050565b6000806040838503121561426457600080fd5b61426d83613ed4565b91506140e760208401613ed4565b60008060006060848603121561429057600080fd5b61429984613ed4565b95602085013595506040909401359392505050565b600181811c908216806142c257607f821691505b602082108114156142e357634e487b7160e01b600052602260045260246000fd5b50919050565b634e487b7160e01b600052601160045260246000fd5b600082821015614311576143116142e9565b500390565b60008261433357634e487b7160e01b600052601260045260246000fd5b500490565b6000816000190483118215151615614352576143526142e9565b500290565b600060ff821660ff841680821015614371576143716142e9565b90039392505050565b634e487b7160e01b600052603260045260246000fd5b634e487b7160e01b600052603160045260246000fd5b60006000198214156143ba576143ba6142e9565b5060010190565b6000835160206143d48285838901613e50565b845491840191600090600181811c90808316806143f257607f831692505b85831081141561441057634e487b7160e01b85526022600452602485fd5b808015614424576001811461443557614462565b60ff19851688528388019550614462565b60008b81526020902060005b8581101561445a5781548a820152908401908801614441565b505083880195505b50939a9950505050505050505050565b60008219821115614485576144856142e9565b500190565b60006001600160a01b038087168352808616602084015250836040830152608060608301526144bc6080830184613e7c565b9695505050505050565b6000602082840312156144d857600080fd5b815161246081613e0556fea26469706673582212204869c1daac692707a17c316c5f7a3418939a0487a81ff6069ae3d121fe5c2cbf64736f6c634300080b0033",
  "immutableReferences": {},
  "source": "// SPDX-License-Identifier: MIT\npragma solidity >=0.4.22 <0.9.0;\n\nimport \"./ERC1190.sol\";\nimport \"@openzeppelin/contracts/utils/Counters.sol\";\nimport \"@openzeppelin/contracts/access/Ownable.sol\";\n\n/**\n * @dev Implementation of ERC1190 with payable methods.\n */\ncontract ERC1190Tradable is ERC1190, Ownable {\n    using Counters for Counters.Counter;\n    Counters.Counter private _tokenIds;\n\n    event TokenMinted(\n        address creator,\n        uint8 royaltyForRental,\n        uint8 royaltyForOwnershipTransfer,\n        uint256 tokenId\n    );\n\n    // Base URI\n    string private _base;\n\n    // The price in wei of each token that can be owned.\n    mapping(uint256 => uint256) private _ownershipPrice;\n\n    // The price in wei of each token that can be creative owned.\n    mapping(uint256 => uint256) private _creativePrice;\n\n    // The price in wei of each token that can be rented.\n    mapping(uint256 => uint256) private _rentalPrice;\n\n    /**\n     * @dev See {ERC1190-constructor}.\n     */\n    constructor(\n        string memory tokenName,\n        string memory tokenSymbol,\n        string memory tokenBaseUri\n    ) ERC1190(tokenName, tokenSymbol) {\n        _base = tokenBaseUri;\n    }\n\n    function availableTokens() external view returns (uint256) {\n        return _tokenIds.current();\n    }\n\n    function ownershipPriceOf(uint256 tokenId) external view returns (uint256) {\n        require(_exists(tokenId), \"ERC1190Tradable: The token does not exist.\");\n\n        return _ownershipPrice[tokenId];\n    }\n\n    function creativeOwnershipPriceOf(uint256 tokenId) external view returns (uint256) {\n        require(_exists(tokenId), \"ERC1190Tradable: The token does not exist.\");\n        \n        return _creativePrice[tokenId];\n    }\n\n    function rentalPriceOf(uint256 tokenId) external view returns (uint256) {\n        require(_exists(tokenId), \"ERC1190Tradable: The token does not exist.\");\n        \n        return _rentalPrice[tokenId];\n    }\n\n    /**\n     * See {ERC1190-_baseURI}.\n     */\n    function _baseURI() internal view virtual override returns (string memory) {\n        return _base;\n    }\n\n    /**\n     * @dev Generates a new token and assigns its ownership and creative\n     * license to `creator`.\n     * The royalties are set via `rentalRoyalty` and `ownershipTransferRoyalty`.\n     */\n    function mint(\n        address creator,\n        string calldata file,\n        uint8 rentalRoyalty,\n        uint8 ownershipTransferRoyalty\n    ) external onlyOwner returns (uint256) {\n        _tokenIds.increment();\n\n        uint256 newItemId = _tokenIds.current();\n        super._mint(creator, newItemId);\n        super._associateFile(newItemId, file);\n        super._setRoyalties(\n            newItemId,\n            rentalRoyalty,\n            ownershipTransferRoyalty\n        );\n\n        emit TokenMinted(creator, rentalRoyalty, ownershipTransferRoyalty, newItemId);\n\n        return newItemId;\n    }\n\n    /**\n     * @dev Sets the price for acquiring property of the ownership license of token\n     * `tokenId`.\n     *\n     * Requirements:\n     *\n     * - `tokenId` must exist.\n     * - `priceInWei` must be greater than 0.\n     */\n    function setOwnershipLicensePrice(uint256 tokenId, uint256 priceInWei)\n        external\n    {\n        require(\n            super._exists(tokenId),\n            \"ERC1190Tradable: The token does not exist.\"\n        );\n\n        require(\n            priceInWei > 0,\n            \"ERC1190Tradable: The ownership license cost must be greater than 0.\"\n        );\n\n        _ownershipPrice[tokenId] = priceInWei;\n    }\n\n    /**\n     * @dev Sets the price for acquiring property of the creative license of token\n     * `tokenId`.\n     *\n     * Requirements:\n     *\n     * - `tokenId` must exist.\n     * - `priceInWei` must be greater than 0.\n     */\n    function setCreativeLicensePrice(uint256 tokenId, uint256 priceInWei)\n        external\n    {\n        require(\n            super._exists(tokenId),\n            \"ERC1190Tradable: The token does not exist.\"\n        );\n\n        require(\n            priceInWei > 0,\n            \"ERC1190Tradable: The creative license cost must be greater than 0.\"\n        );\n\n        _creativePrice[tokenId] = priceInWei;\n    }\n\n    /**\n     * @dev Sets the price for renting `tokenId` for 1 second.\n     *\n     * Requirements:\n     *\n     * - `tokenId` must exist.\n     * - `priceInWei` must be greater than 0.\n     */\n    function setRentalPrice(uint256 tokenId, uint256 priceInWei) external {\n        require(\n            super._exists(tokenId),\n            \"ERC1190Tradable: The token does not exist.\"\n        );\n\n        require(\n            priceInWei > 0,\n            \"ERC1190Tradable: The rental cost per second must be greater than 0.\"\n        );\n\n        _rentalPrice[tokenId] = priceInWei;\n    }\n\n    /**\n     * @dev Rents the token `tokenId` for a total amount of `rentExpirationDateInMillis` ms.\n     *\n     * Requirements:\n     *\n     * - `tokenId` must exist.\n     * - A rental price must have been set via {setRentalPrice}.\n     * - `rentExpirationDateInMillis` should correspond to a future date.\n     * - `rentExpirationDateInMillis` - `rentStartingDateInMillis` should be greater than 0.\n     * - the sent money should be enough to cover the renting expenses.\n     */\n    function rentAsset(uint256 tokenId, uint256 rentStartingDateInMillis, uint256 rentExpirationDateInMillis)\n        external\n        payable\n    {\n        require(\n            super._exists(tokenId),\n            \"ERC1190Tradable: The token does not exist.\"\n        );\n\n        require(\n            _rentalPrice[tokenId] > 0,\n            \"ERC1190Tradable: The asset related to this token is not rentable.\"\n        );\n\n        uint256 rentTimeInSeconds = (rentExpirationDateInMillis - rentStartingDateInMillis) / 1000;\n\n        require(\n            rentTimeInSeconds > 0,\n            \"ERC1190Tradable: The rental time must be positive.\"\n        );\n\n        uint256 rentalTotalPrice = rentTimeInSeconds * _rentalPrice[tokenId];\n\n        require(\n            msg.value >= rentalTotalPrice,\n            \"ERC1190Tradable: The amount of wei sent is not sufficient to cover the rent expenses.\"\n        );\n\n        address payable owner = payable(super.ownerOf(tokenId));\n        address payable creativeOwner = payable(super.creativeOwnerOf(tokenId));\n\n        super.rentAsset(\n            super._msgSender(),\n            tokenId,\n            rentExpirationDateInMillis\n        );\n\n        if (owner == creativeOwner) {\n            owner.transfer(msg.value);\n        } else {\n            uint8 royalty = super._royaltyForRental(tokenId);\n\n            owner.transfer((msg.value * (100 - royalty)) / 100);\n            creativeOwner.transfer((msg.value * royalty) / 100);\n        }\n    }\n\n    /**\n     * @dev Transfers the ownership license from the current owner to the account `to`.\n     *\n     * Requirements:\n     *\n     * - `tokenId` must exist.\n     * - the sender of the request must be the owner.\n     * - the receiver account `to` must not be the zero address.\n     */\n    function transferOwnershipLicense(uint256 tokenId, address to) external {\n        require(\n            to != address(0),\n            \"ERC1190Tradable: Cannot transfer the ownership license to the zero address.\"\n        );\n\n        address owner = super.ownerOf(tokenId);\n\n        require(\n            super._msgSender() == owner,\n            \"ERC1190Tradable: The sender does not own the ownership license.\"\n        );\n\n        super.transferOwnershipLicense(owner, to, tokenId);\n    }\n\n    /**\n     * @dev Transfers the ownership license from the current owner to the sender of the request.\n     *\n     * Requirements:\n     *\n     * - `tokenId` must exist.\n     * - A ownership license price must have been set via {setOwnershipLicensePrice}.\n     * - the sent money should be enough to cover the license expense.\n     */\n    function obtainOwnershipLicense(uint256 tokenId) external payable {\n        require(\n            super._exists(tokenId),\n            \"ERC1190Tradable: The token does not exist.\"\n        );\n\n        require(\n            _ownershipPrice[tokenId] > 0,\n            \"ERC1190Tradable: The ownership license of this token cannot be transferred.\"\n        );\n\n        require(\n            msg.value >= _ownershipPrice[tokenId],\n            \"ERC1190Tradable: The amount of wei sent is not sufficient for obtaining the ownership license of this token.\"\n        );\n\n        require(\n            super._msgSender() != address(0),\n            \"ERC1190Tradable: Cannot transfer the ownership license to the zero address.\"\n        );\n\n        address payable owner = payable(super.ownerOf(tokenId));\n        address payable creativeOwner = payable(super.creativeOwnerOf(tokenId));\n\n        super.transferOwnershipLicense(owner, super._msgSender(), tokenId);\n\n        if (owner == creativeOwner) {\n            owner.transfer(msg.value);\n        } else {\n            uint8 royalty = super._royaltyForOwnershipTransfer(tokenId);\n            owner.transfer((msg.value * (100 - royalty)) / 100);\n            creativeOwner.transfer((msg.value * royalty) / 100);\n        }\n    }\n\n    /**\n     * @dev Transfers the creative license from the current creative owner to the account `to`.\n     *\n     * Requirements:\n     *\n     * - `tokenId` must exist.\n     * - the sender of the request must be the creative owner.\n     * - the receiver account `to` must not be the zero address.\n     */\n    function transferCreativeLicense(uint256 tokenId, address to) external {\n        require(\n            to != address(0),\n            \"ERC1190Tradable: Cannot transfer the creative license to the zero address.\"\n        );\n\n        address creativeOwner = super.creativeOwnerOf(tokenId);\n\n        require(\n            super._msgSender() == creativeOwner,\n            \"ERC1190Tradable: The sender does not own the creative license.\"\n        );\n\n        super.transferCreativeLicense(creativeOwner, to, tokenId);\n    }\n\n    /**\n     * @dev Transfers the creative license from the current owner to the sender of the request.\n     *\n     * Requirements:\n     *\n     * - `tokenId` must exist.\n     * - A creative license price must have been set via {setCreativeLicensePrice}.\n     * - the sent money should be enough to cover the license expense.\n     */\n    function obtainCreativeLicense(uint256 tokenId) external payable {\n        require(\n            super._exists(tokenId),\n            \"ERC1190Tradable: The token does not exist.\"\n        );\n\n        require(\n            _creativePrice[tokenId] > 0,\n            \"ERC1190Tradable: The creative license of this token cannot be transferred.\"\n        );\n\n        require(\n            msg.value >= _creativePrice[tokenId],\n            \"ERC1190Tradable: The amount of wei sent is not sufficient for obtaining the creative license of this token.\"\n        );\n\n        require(\n            super._msgSender() != address(0),\n            \"ERC1190Tradable: Cannot transfer the creative license to the zero address.\"\n        );\n\n        address payable creativeOwner = payable(super.creativeOwnerOf(tokenId));\n\n        super.transferCreativeLicense(\n            creativeOwner,\n            super._msgSender(),\n            tokenId\n        );\n\n        creativeOwner.transfer(msg.value);\n    }\n}\n",
  "sourcePath": "non-fungible-royalty-token/contracts/ERC1190Tradable.sol",
  "compiler": {
    "name": "solc",
    "version": "0.8.11+commit.d7f03943.Emscripten.clang"
  },
  "schemaVersion": "3.4.4",
  "updatedAt": "2022-02-06T10:14:52.933Z",
  "devdoc": {
    "details": "Implementation of ERC1190 with payable methods.",
    "kind": "dev",
    "methods": {
      "approve(address,uint256)": {
        "details": "See {IERC1190-approve}."
      },
      "balanceOfCreativeOwner(address)": {
        "details": "See {IERC1190-balanceOfCreativeOwner}."
      },
      "balanceOfOwner(address)": {
        "details": "See {IERC1190-balanceOfOwner}."
      },
      "balanceOfRenter(address)": {
        "details": "See {IERC1190-balanceOfRenter}."
      },
      "constructor": {
        "details": "See {ERC1190-constructor}."
      },
      "creativeOwnerOf(uint256)": {
        "details": "See {IERC1190-creativeOwnerOf}."
      },
      "getApproved(uint256)": {
        "details": "See {IERC1190-getApproved}."
      },
      "getRentalDate(uint256,address)": {
        "details": "See {IERC1190-getRentalDate}."
      },
      "isApprovedForAll(address,address)": {
        "details": "See {IERC1190-isApprovedForAll}."
      },
      "mint(address,string,uint8,uint8)": {
        "details": "Generates a new token and assigns its ownership and creative license to `creator`. The royalties are set via `rentalRoyalty` and `ownershipTransferRoyalty`."
      },
      "name()": {
        "details": "See {IERC1190Metadata-name}."
      },
      "obtainCreativeLicense(uint256)": {
        "details": "Transfers the creative license from the current owner to the sender of the request. Requirements: - `tokenId` must exist. - A creative license price must have been set via {setCreativeLicensePrice}. - the sent money should be enough to cover the license expense."
      },
      "obtainOwnershipLicense(uint256)": {
        "details": "Transfers the ownership license from the current owner to the sender of the request. Requirements: - `tokenId` must exist. - A ownership license price must have been set via {setOwnershipLicensePrice}. - the sent money should be enough to cover the license expense."
      },
      "owner()": {
        "details": "Returns the address of the current owner."
      },
      "ownerOf(uint256)": {
        "details": "See {IERC1190-ownerOf}."
      },
      "renounceOwnership()": {
        "details": "Leaves the contract without owner. It will not be possible to call `onlyOwner` functions anymore. Can only be called by the current owner. NOTE: Renouncing ownership will leave the contract without an owner, thereby removing any functionality that is only available to the owner."
      },
      "rentAsset(address,uint256,uint256)": {
        "details": "See {IERC1190-rentAsset}."
      },
      "rentAsset(uint256,uint256,uint256)": {
        "details": "Rents the token `tokenId` for a total amount of `rentExpirationDateInMillis` ms. Requirements: - `tokenId` must exist. - A rental price must have been set via {setRentalPrice}. - `rentExpirationDateInMillis` should correspond to a future date. - `rentExpirationDateInMillis` - `rentStartingDateInMillis` should be greater than 0. - the sent money should be enough to cover the renting expenses."
      },
      "rentersOf(uint256)": {
        "details": "See {IERC1190-rentersOf}."
      },
      "safeTransferCreativeLicense(address,address,uint256)": {
        "details": "See {IERC1190-safeTransferCreativeLicense}."
      },
      "safeTransferCreativeLicense(address,address,uint256,bytes)": {
        "details": "See {IERC1190-safeTransferCreativeLicense}."
      },
      "safeTransferOwnershipLicense(address,address,uint256)": {
        "details": "See {IERC1190-safeTransferOwnershipLicense}."
      },
      "safeTransferOwnershipLicense(address,address,uint256,bytes)": {
        "details": "See {IERC1190-safeTransferOwnershipLicense}."
      },
      "setApprovalForAll(address,bool)": {
        "details": "See {IERC1190-setApprovalForAll}."
      },
      "setCreativeLicensePrice(uint256,uint256)": {
        "details": "Sets the price for acquiring property of the creative license of token `tokenId`. Requirements: - `tokenId` must exist. - `priceInWei` must be greater than 0."
      },
      "setOwnershipLicensePrice(uint256,uint256)": {
        "details": "Sets the price for acquiring property of the ownership license of token `tokenId`. Requirements: - `tokenId` must exist. - `priceInWei` must be greater than 0."
      },
      "setRentalPrice(uint256,uint256)": {
        "details": "Sets the price for renting `tokenId` for 1 second. Requirements: - `tokenId` must exist. - `priceInWei` must be greater than 0."
      },
      "supportsInterface(bytes4)": {
        "details": "See {IERC165-supportsInterface}."
      },
      "symbol()": {
        "details": "See {IERC1190Metadata-symbol}."
      },
      "tokenURI(uint256)": {
        "details": "See {IERC1190Metadata-tokenURI}."
      },
      "transferCreativeLicense(address,address,uint256)": {
        "details": "See {IERC1190-transferCreativeLicense}."
      },
      "transferCreativeLicense(uint256,address)": {
        "details": "Transfers the creative license from the current creative owner to the account `to`. Requirements: - `tokenId` must exist. - the sender of the request must be the creative owner. - the receiver account `to` must not be the zero address."
      },
      "transferOwnership(address)": {
        "details": "Transfers ownership of the contract to a new account (`newOwner`). Can only be called by the current owner."
      },
      "transferOwnershipLicense(address,address,uint256)": {
        "details": "See {IERC1190-transferOwnershipLicense}."
      },
      "transferOwnershipLicense(uint256,address)": {
        "details": "Transfers the ownership license from the current owner to the account `to`. Requirements: - `tokenId` must exist. - the sender of the request must be the owner. - the receiver account `to` must not be the zero address."
      },
      "updateEndRentalDate(uint256,uint256,address)": {
        "details": "See {IERC1190-updateEndRentalDate}."
      }
    },
    "version": 1
  },
  "userdoc": {
    "kind": "user",
    "methods": {},
    "version": 1
  }
}