{
  "contractName": "ERC1190Tradable",
  "abi": [
    {
      "inputs": [
        {
          "internalType": "string",
          "name": "tokenName",
          "type": "string"
        },
        {
          "internalType": "string",
          "name": "tokenSymbol",
          "type": "string"
        },
        {
          "internalType": "string",
          "name": "tokenBaseUri",
          "type": "string"
        }
      ],
      "stateMutability": "nonpayable",
      "type": "constructor"
    },
    {
      "anonymous": false,
      "inputs": [
        {
          "indexed": true,
          "internalType": "address",
          "name": "owner",
          "type": "address"
        },
        {
          "indexed": true,
          "internalType": "address",
          "name": "approved",
          "type": "address"
        },
        {
          "indexed": true,
          "internalType": "uint256",
          "name": "tokenId",
          "type": "uint256"
        }
      ],
      "name": "Approval",
      "type": "event"
    },
    {
      "anonymous": false,
      "inputs": [
        {
          "indexed": true,
          "internalType": "address",
          "name": "owner",
          "type": "address"
        },
        {
          "indexed": true,
          "internalType": "address",
          "name": "operator",
          "type": "address"
        },
        {
          "indexed": true,
          "internalType": "bool",
          "name": "approved",
          "type": "bool"
        }
      ],
      "name": "ApprovalForAll",
      "type": "event"
    },
    {
      "anonymous": false,
      "inputs": [
        {
          "indexed": true,
          "internalType": "address",
          "name": "renter",
          "type": "address"
        },
        {
          "indexed": true,
          "internalType": "uint256",
          "name": "tokenId",
          "type": "uint256"
        },
        {
          "indexed": false,
          "internalType": "uint256",
          "name": "rentExpirationDateInMillis",
          "type": "uint256"
        }
      ],
      "name": "AssetRented",
      "type": "event"
    },
    {
      "anonymous": false,
      "inputs": [
        {
          "indexed": true,
          "internalType": "address",
          "name": "previousOwner",
          "type": "address"
        },
        {
          "indexed": true,
          "internalType": "address",
          "name": "newOwner",
          "type": "address"
        }
      ],
      "name": "OwnershipTransferred",
      "type": "event"
    },
    {
      "anonymous": false,
      "inputs": [
        {
          "indexed": false,
          "internalType": "address",
          "name": "creator",
          "type": "address"
        },
        {
          "indexed": false,
          "internalType": "uint8",
          "name": "royaltyForRental",
          "type": "uint8"
        },
        {
          "indexed": false,
          "internalType": "uint8",
          "name": "royaltyForOwnershipTransfer",
          "type": "uint8"
        },
        {
          "indexed": false,
          "internalType": "uint256",
          "name": "tokenId",
          "type": "uint256"
        }
      ],
      "name": "TokenMinted",
      "type": "event"
    },
    {
      "anonymous": false,
      "inputs": [
        {
          "indexed": true,
          "internalType": "address",
          "name": "from",
          "type": "address"
        },
        {
          "indexed": true,
          "internalType": "address",
          "name": "to",
          "type": "address"
        },
        {
          "indexed": true,
          "internalType": "uint256",
          "name": "tokenId",
          "type": "uint256"
        }
      ],
      "name": "TransferCreativeLicense",
      "type": "event"
    },
    {
      "anonymous": false,
      "inputs": [
        {
          "indexed": true,
          "internalType": "address",
          "name": "from",
          "type": "address"
        },
        {
          "indexed": true,
          "internalType": "address",
          "name": "to",
          "type": "address"
        },
        {
          "indexed": true,
          "internalType": "uint256",
          "name": "tokenId",
          "type": "uint256"
        }
      ],
      "name": "TransferOwnershipLicense",
      "type": "event"
    },
    {
      "inputs": [
        {
          "internalType": "address",
          "name": "to",
          "type": "address"
        },
        {
          "internalType": "uint256",
          "name": "tokenId",
          "type": "uint256"
        }
      ],
      "name": "approve",
      "outputs": [],
      "stateMutability": "nonpayable",
      "type": "function"
    },
    {
      "inputs": [
        {
          "internalType": "address",
          "name": "creativeOwner",
          "type": "address"
        }
      ],
      "name": "balanceOfCreativeOwner",
      "outputs": [
        {
          "internalType": "uint256",
          "name": "",
          "type": "uint256"
        }
      ],
      "stateMutability": "view",
      "type": "function"
    },
    {
      "inputs": [
        {
          "internalType": "address",
          "name": "owner",
          "type": "address"
        }
      ],
      "name": "balanceOfOwner",
      "outputs": [
        {
          "internalType": "uint256",
          "name": "",
          "type": "uint256"
        }
      ],
      "stateMutability": "view",
      "type": "function"
    },
    {
      "inputs": [
        {
          "internalType": "address",
          "name": "renter",
          "type": "address"
        }
      ],
      "name": "balanceOfRenter",
      "outputs": [
        {
          "internalType": "uint256",
          "name": "",
          "type": "uint256"
        }
      ],
      "stateMutability": "view",
      "type": "function"
    },
    {
      "inputs": [
        {
          "internalType": "uint256",
          "name": "tokenId",
          "type": "uint256"
        }
      ],
      "name": "creativeOwnerOf",
      "outputs": [
        {
          "internalType": "address",
          "name": "",
          "type": "address"
        }
      ],
      "stateMutability": "view",
      "type": "function"
    },
    {
      "inputs": [
        {
          "internalType": "uint256",
          "name": "tokenId",
          "type": "uint256"
        }
      ],
      "name": "getApproved",
      "outputs": [
        {
          "internalType": "address",
          "name": "",
          "type": "address"
        }
      ],
      "stateMutability": "view",
      "type": "function"
    },
    {
      "inputs": [
        {
          "internalType": "uint256",
          "name": "tokenId",
          "type": "uint256"
        },
        {
          "internalType": "address",
          "name": "renter",
          "type": "address"
        }
      ],
      "name": "getRentalDate",
      "outputs": [
        {
          "internalType": "uint256",
          "name": "",
          "type": "uint256"
        }
      ],
      "stateMutability": "view",
      "type": "function"
    },
    {
      "inputs": [
        {
          "internalType": "address",
          "name": "owner",
          "type": "address"
        },
        {
          "internalType": "address",
          "name": "operator",
          "type": "address"
        }
      ],
      "name": "isApprovedForAll",
      "outputs": [
        {
          "internalType": "bool",
          "name": "",
          "type": "bool"
        }
      ],
      "stateMutability": "view",
      "type": "function"
    },
    {
      "inputs": [],
      "name": "name",
      "outputs": [
        {
          "internalType": "string",
          "name": "",
          "type": "string"
        }
      ],
      "stateMutability": "view",
      "type": "function"
    },
    {
      "inputs": [],
      "name": "owner",
      "outputs": [
        {
          "internalType": "address",
          "name": "",
          "type": "address"
        }
      ],
      "stateMutability": "view",
      "type": "function"
    },
    {
      "inputs": [
        {
          "internalType": "uint256",
          "name": "tokenId",
          "type": "uint256"
        }
      ],
      "name": "ownerOf",
      "outputs": [
        {
          "internalType": "address",
          "name": "",
          "type": "address"
        }
      ],
      "stateMutability": "view",
      "type": "function"
    },
    {
      "inputs": [],
      "name": "renounceOwnership",
      "outputs": [],
      "stateMutability": "nonpayable",
      "type": "function"
    },
    {
      "inputs": [
        {
          "internalType": "uint256",
          "name": "tokenId",
          "type": "uint256"
        }
      ],
      "name": "rentersOf",
      "outputs": [
        {
          "internalType": "address[]",
          "name": "",
          "type": "address[]"
        }
      ],
      "stateMutability": "view",
      "type": "function"
    },
    {
      "inputs": [
        {
          "internalType": "uint256",
          "name": "_tokenId",
          "type": "uint256"
        }
      ],
      "name": "royaltyForOwnershipTransfer",
      "outputs": [
        {
          "internalType": "uint8",
          "name": "",
          "type": "uint8"
        }
      ],
      "stateMutability": "view",
      "type": "function"
    },
    {
      "inputs": [
        {
          "internalType": "uint256",
          "name": "_tokenId",
          "type": "uint256"
        }
      ],
      "name": "royaltyForRental",
      "outputs": [
        {
          "internalType": "uint8",
          "name": "",
          "type": "uint8"
        }
      ],
      "stateMutability": "view",
      "type": "function"
    },
    {
      "inputs": [
        {
          "internalType": "address",
          "name": "from",
          "type": "address"
        },
        {
          "internalType": "address",
          "name": "to",
          "type": "address"
        },
        {
          "internalType": "uint256",
          "name": "tokenId",
          "type": "uint256"
        }
      ],
      "name": "safeTransferCreativeLicense",
      "outputs": [],
      "stateMutability": "nonpayable",
      "type": "function"
    },
    {
      "inputs": [
        {
          "internalType": "address",
          "name": "from",
          "type": "address"
        },
        {
          "internalType": "address",
          "name": "to",
          "type": "address"
        },
        {
          "internalType": "uint256",
          "name": "tokenId",
          "type": "uint256"
        },
        {
          "internalType": "bytes",
          "name": "data",
          "type": "bytes"
        }
      ],
      "name": "safeTransferCreativeLicense",
      "outputs": [],
      "stateMutability": "nonpayable",
      "type": "function"
    },
    {
      "inputs": [
        {
          "internalType": "address",
          "name": "from",
          "type": "address"
        },
        {
          "internalType": "address",
          "name": "to",
          "type": "address"
        },
        {
          "internalType": "uint256",
          "name": "tokenId",
          "type": "uint256"
        },
        {
          "internalType": "bytes",
          "name": "data",
          "type": "bytes"
        }
      ],
      "name": "safeTransferOwnershipLicense",
      "outputs": [],
      "stateMutability": "nonpayable",
      "type": "function"
    },
    {
      "inputs": [
        {
          "internalType": "address",
          "name": "from",
          "type": "address"
        },
        {
          "internalType": "address",
          "name": "to",
          "type": "address"
        },
        {
          "internalType": "uint256",
          "name": "tokenId",
          "type": "uint256"
        }
      ],
      "name": "safeTransferOwnershipLicense",
      "outputs": [],
      "stateMutability": "nonpayable",
      "type": "function"
    },
    {
      "inputs": [
        {
          "internalType": "address",
          "name": "operator",
          "type": "address"
        },
        {
          "internalType": "bool",
          "name": "approved",
          "type": "bool"
        }
      ],
      "name": "setApprovalForAll",
      "outputs": [],
      "stateMutability": "nonpayable",
      "type": "function"
    },
    {
      "inputs": [
        {
          "internalType": "bytes4",
          "name": "interfaceId",
          "type": "bytes4"
        }
      ],
      "name": "supportsInterface",
      "outputs": [
        {
          "internalType": "bool",
          "name": "",
          "type": "bool"
        }
      ],
      "stateMutability": "view",
      "type": "function"
    },
    {
      "inputs": [],
      "name": "symbol",
      "outputs": [
        {
          "internalType": "string",
          "name": "",
          "type": "string"
        }
      ],
      "stateMutability": "view",
      "type": "function"
    },
    {
      "inputs": [
        {
          "internalType": "uint256",
          "name": "tokenId",
          "type": "uint256"
        }
      ],
      "name": "tokenURI",
      "outputs": [
        {
          "internalType": "string",
          "name": "",
          "type": "string"
        }
      ],
      "stateMutability": "view",
      "type": "function"
    },
    {
      "inputs": [
        {
          "internalType": "address",
          "name": "newOwner",
          "type": "address"
        }
      ],
      "name": "transferOwnership",
      "outputs": [],
      "stateMutability": "nonpayable",
      "type": "function"
    },
    {
      "inputs": [
        {
          "internalType": "uint256",
          "name": "tokenId",
          "type": "uint256"
        },
        {
          "internalType": "address",
          "name": "renter",
          "type": "address"
        }
      ],
      "name": "updateEndRentalDate",
      "outputs": [
        {
          "internalType": "uint256",
          "name": "",
          "type": "uint256"
        }
      ],
      "stateMutability": "nonpayable",
      "type": "function"
    },
    {
      "inputs": [],
      "name": "availableTokens",
      "outputs": [
        {
          "internalType": "uint256",
          "name": "",
          "type": "uint256"
        }
      ],
      "stateMutability": "view",
      "type": "function"
    },
    {
      "inputs": [
        {
          "internalType": "uint256",
          "name": "tokenId",
          "type": "uint256"
        }
      ],
      "name": "ownershipPriceOf",
      "outputs": [
        {
          "internalType": "uint256",
          "name": "",
          "type": "uint256"
        }
      ],
      "stateMutability": "view",
      "type": "function"
    },
    {
      "inputs": [
        {
          "internalType": "uint256",
          "name": "tokenId",
          "type": "uint256"
        }
      ],
      "name": "creativeOwnershipPriceOf",
      "outputs": [
        {
          "internalType": "uint256",
          "name": "",
          "type": "uint256"
        }
      ],
      "stateMutability": "view",
      "type": "function"
    },
    {
      "inputs": [
        {
          "internalType": "uint256",
          "name": "tokenId",
          "type": "uint256"
        }
      ],
      "name": "rentalPriceOf",
      "outputs": [
        {
          "internalType": "uint256",
          "name": "",
          "type": "uint256"
        }
      ],
      "stateMutability": "view",
      "type": "function"
    },
    {
      "inputs": [
        {
          "internalType": "address",
          "name": "creator",
          "type": "address"
        },
        {
          "internalType": "string",
          "name": "file",
          "type": "string"
        },
        {
          "internalType": "uint8",
          "name": "rentalRoyalty",
          "type": "uint8"
        },
        {
          "internalType": "uint8",
          "name": "ownershipTransferRoyalty",
          "type": "uint8"
        }
      ],
      "name": "mint",
      "outputs": [
        {
          "internalType": "uint256",
          "name": "",
          "type": "uint256"
        }
      ],
      "stateMutability": "nonpayable",
      "type": "function"
    },
    {
      "inputs": [
        {
          "internalType": "uint256",
          "name": "tokenId",
          "type": "uint256"
        },
        {
          "internalType": "uint256",
          "name": "priceInWei",
          "type": "uint256"
        }
      ],
      "name": "setOwnershipLicensePrice",
      "outputs": [],
      "stateMutability": "nonpayable",
      "type": "function"
    },
    {
      "inputs": [
        {
          "internalType": "uint256",
          "name": "tokenId",
          "type": "uint256"
        },
        {
          "internalType": "uint256",
          "name": "priceInWei",
          "type": "uint256"
        }
      ],
      "name": "setCreativeLicensePrice",
      "outputs": [],
      "stateMutability": "nonpayable",
      "type": "function"
    },
    {
      "inputs": [
        {
          "internalType": "uint256",
          "name": "tokenId",
          "type": "uint256"
        },
        {
          "internalType": "uint256",
          "name": "priceInWei",
          "type": "uint256"
        }
      ],
      "name": "setRentalPrice",
      "outputs": [],
      "stateMutability": "nonpayable",
      "type": "function"
    },
    {
      "inputs": [
        {
          "internalType": "uint256",
          "name": "tokenId",
          "type": "uint256"
        },
        {
          "internalType": "uint256",
          "name": "rentExpirationDateInMillis",
          "type": "uint256"
        }
      ],
      "name": "rentAsset",
      "outputs": [],
      "stateMutability": "payable",
      "type": "function"
    },
    {
      "inputs": [
        {
          "internalType": "address",
          "name": "renter",
          "type": "address"
        },
        {
          "internalType": "uint256",
          "name": "tokenId",
          "type": "uint256"
        },
        {
          "internalType": "uint256",
          "name": "rentExpirationDateInMillis",
          "type": "uint256"
        }
      ],
      "name": "rentAsset",
      "outputs": [],
      "stateMutability": "nonpayable",
      "type": "function"
    },
    {
      "inputs": [
        {
          "internalType": "address",
          "name": "from",
          "type": "address"
        },
        {
          "internalType": "address",
          "name": "to",
          "type": "address"
        },
        {
          "internalType": "uint256",
          "name": "tokenId",
          "type": "uint256"
        }
      ],
      "name": "transferOwnershipLicense",
      "outputs": [],
      "stateMutability": "nonpayable",
      "type": "function"
    },
    {
      "inputs": [
        {
          "internalType": "uint256",
          "name": "tokenId",
          "type": "uint256"
        },
        {
          "internalType": "address",
          "name": "to",
          "type": "address"
        }
      ],
      "name": "transferOwnershipLicense",
      "outputs": [],
      "stateMutability": "nonpayable",
      "type": "function"
    },
    {
      "inputs": [
        {
          "internalType": "uint256",
          "name": "tokenId",
          "type": "uint256"
        }
      ],
      "name": "obtainOwnershipLicense",
      "outputs": [],
      "stateMutability": "payable",
      "type": "function"
    },
    {
      "inputs": [
        {
          "internalType": "uint256",
          "name": "tokenId",
          "type": "uint256"
        },
        {
          "internalType": "address",
          "name": "to",
          "type": "address"
        }
      ],
      "name": "transferCreativeLicense",
      "outputs": [],
      "stateMutability": "nonpayable",
      "type": "function"
    },
    {
      "inputs": [
        {
          "internalType": "address",
          "name": "from",
          "type": "address"
        },
        {
          "internalType": "address",
          "name": "to",
          "type": "address"
        },
        {
          "internalType": "uint256",
          "name": "tokenId",
          "type": "uint256"
        }
      ],
      "name": "transferCreativeLicense",
      "outputs": [],
      "stateMutability": "nonpayable",
      "type": "function"
    },
    {
      "inputs": [
        {
          "internalType": "uint256",
          "name": "tokenId",
          "type": "uint256"
        }
      ],
      "name": "obtainCreativeLicense",
      "outputs": [],
      "stateMutability": "payable",
      "type": "function"
    }
  ],
  "bytecode": "0x60806040523480156200001157600080fd5b506040516200480638038062004806833981016040819052620000349162000268565b8251839083906200004d906000906020850190620000f5565b50805162000063906001906020840190620000f5565b505050620000806200007a6200009f60201b60201c565b620000a3565b805162000095906010906020840190620000f5565b5050505062000336565b3390565b600e80546001600160a01b038381166001600160a01b0319831681179093556040519116919082907f8be0079c531659141344cd1fd0a4f28419497f9722a3daafe3b4186f6b6457e090600090a35050565b8280546200010390620002f9565b90600052602060002090601f01602090048101928262000127576000855562000172565b82601f106200014257805160ff191683800117855562000172565b8280016001018555821562000172579182015b828111156200017257825182559160200191906001019062000155565b506200018092915062000184565b5090565b5b8082111562000180576000815560010162000185565b634e487b7160e01b600052604160045260246000fd5b600082601f830112620001c357600080fd5b81516001600160401b0380821115620001e057620001e06200019b565b604051601f8301601f19908116603f011681019082821181831017156200020b576200020b6200019b565b816040528381526020925086838588010111156200022857600080fd5b600091505b838210156200024c57858201830151818301840152908201906200022d565b838211156200025e5760008385830101525b9695505050505050565b6000806000606084860312156200027e57600080fd5b83516001600160401b03808211156200029657600080fd5b620002a487838801620001b1565b94506020860151915080821115620002bb57600080fd5b620002c987838801620001b1565b93506040860151915080821115620002e057600080fd5b50620002ef86828701620001b1565b9150509250925092565b600181811c908216806200030e57607f821691505b602082108114156200033057634e487b7160e01b600052602260045260246000fd5b50919050565b6144c080620003466000396000f3fe6080604052600436106102c65760003560e01c80638d6cf8bc11610179578063bf0a660b116100d6578063e985e9c51161008a578063f2fde38b11610064578063f2fde38b146107d5578063f3e4198e146107f5578063f9de1d831461081557600080fd5b8063e985e9c51461074c578063ec2b20ac14610795578063ef1e00e0146107b557600080fd5b8063c66130d7116100bb578063c66130d7146106ec578063c87b56dd1461070c578063de8e7bab1461072c57600080fd5b8063bf0a660b146106ac578063c588ea5c146106cc57600080fd5b8063a22cb4651161012d578063aad1b61711610112578063aad1b61714610666578063afe9a4ff14610686578063b042ce941461069957600080fd5b8063a22cb46514610619578063a333818c1461063957600080fd5b806395d89b411161015e57806395d89b41146105c45780639940a11a146105d95780639f2cd0e4146105f957600080fd5b80638d6cf8bc146105865780638da5cb5b146105a657600080fd5b80634909d94e116102275780636f902516116101db57806379b66eb7116101c057806379b66eb714610526578063851fcadd146105465780638c4b5a921461056657600080fd5b80636f902516146104f1578063715018a61461051157600080fd5b80636352211e1161020c5780636352211e1461049c57806369bb4dc2146104bc5780636ebd773d146104d157600080fd5b80634909d94e1461045c5780634cd5ca8e1461047c57600080fd5b8063102fc4541161027e57806325d8a3581161026357806325d8a358146103ea57806325dc12641461041c5780633c7342341461043c57600080fd5b8063102fc4541461039c578063224157ea146103ca57600080fd5b8063081812fc116102af578063081812fc14610322578063095ea7b31461035a5780630b97be961461037c57600080fd5b806301ffc9a7146102cb57806306fdde0314610300575b600080fd5b3480156102d757600080fd5b506102eb6102e6366004613e3b565b610828565b60405190151581526020015b60405180910390f35b34801561030c57600080fd5b506103156108ec565b6040516102f79190613eb0565b34801561032e57600080fd5b5061034261033d366004613ec3565b61097e565b6040516001600160a01b0390911681526020016102f7565b34801561036657600080fd5b5061037a610375366004613ef8565b610a01565b005b34801561038857600080fd5b5061037a610397366004613f38565b610c13565b3480156103a857600080fd5b506103bc6103b7366004614014565b610cc1565b6040519081526020016102f7565b3480156103d657600080fd5b506103426103e5366004613ec3565b611041565b3480156103f657600080fd5b5061040a610405366004613ec3565b6110cc565b60405160ff90911681526020016102f7565b34801561042857600080fd5b5061037a610437366004614040565b6110d7565b34801561044857600080fd5b5061037a610457366004613f38565b6110f7565b34801561046857600080fd5b5061037a610477366004614040565b6111a5565b34801561048857600080fd5b506103bc61049736600461407c565b611252565b3480156104a857600080fd5b506103426104b7366004613ec3565b6112ec565b3480156104c857600080fd5b506103bc611377565b3480156104dd57600080fd5b5061037a6104ec366004614014565b611387565b3480156104fd57600080fd5b506103bc61050c366004613ec3565b6114bf565b34801561051d57600080fd5b5061037a61153c565b34801561053257600080fd5b5061037a610541366004614097565b6115a2565b34801561055257600080fd5b506103bc610561366004614014565b6116b8565b34801561057257600080fd5b5061037a610581366004614040565b6117ad565b34801561059257600080fd5b5061037a6105a1366004614014565b6117c8565b3480156105b257600080fd5b50600e546001600160a01b0316610342565b3480156105d057600080fd5b506103156118ee565b3480156105e557600080fd5b506103bc6105f43660046140ca565b6118fd565b34801561060557600080fd5b5061037a610614366004614040565b6119f2565b34801561062557600080fd5b5061037a61063436600461416f565b611a9f565b34801561064557600080fd5b50610659610654366004613ec3565b611aae565b6040516102f791906141ab565b34801561067257600080fd5b506103bc61068136600461407c565b611b1a565b61037a610694366004613ec3565b611ba2565b61037a6106a7366004614097565b611e67565b3480156106b857600080fd5b506103bc6106c7366004613ec3565b6121f7565b3480156106d857600080fd5b5061040a6106e7366004613ec3565b612274565b3480156106f857600080fd5b506103bc61070736600461407c565b61227f565b34801561071857600080fd5b50610315610727366004613ec3565b612319565b34801561073857600080fd5b5061037a610747366004614097565b61246f565b34801561075857600080fd5b506102eb6107673660046141f8565b6001600160a01b039182166000908152600c6020908152604080832093909416825291909152205460ff1690565b3480156107a157600080fd5b5061037a6107b0366004614097565b612585565b3480156107c157600080fd5b506103bc6107d0366004613ec3565b61269b565b3480156107e157600080fd5b5061037a6107f036600461407c565b612718565b34801561080157600080fd5b5061037a610810366004614222565b6127fa565b61037a610823366004613ec3565b612805565b60007fffffffff000000000000000000000000000000000000000000000000000000008216158061089a57507fffffffff0000000000000000000000000000000000000000000000000000000082167f5b5e139f00000000000000000000000000000000000000000000000000000000145b806108e657507f01ffc9a7000000000000000000000000000000000000000000000000000000007fffffffff000000000000000000000000000000000000000000000000000000008316145b92915050565b6060600080546108fb90614255565b80601f016020809104026020016040519081016040528092919081815260200182805461092790614255565b80156109745780601f1061094957610100808354040283529160200191610974565b820191906000526020600020905b81548152906001019060200180831161095757829003601f168201915b5050505050905090565b600061098982612b9a565b6109e55760405162461bcd60e51b815260206004820152602260248201527f455243313139303a2054686520746f6b656e20646f6573206e6f7420657869736044820152613a1760f11b60648201526084015b60405180910390fd5b506000908152600960205260409020546001600160a01b031690565b6000610a0c826112ec565b90506000610a1983611041565b9050816001600160a01b0316846001600160a01b03161415610aa35760405162461bcd60e51b815260206004820152602a60248201527f455243313139303a2043616e6e6f7420617070726f766520746865206375727260448201527f656e74206f776e65722e0000000000000000000000000000000000000000000060648201526084016109dc565b806001600160a01b0316846001600160a01b03161415610b2b5760405162461bcd60e51b815260206004820152603360248201527f455243313139303a2043616e6e6f7420617070726f766520746865206375727260448201527f656e74206372656174697665206f776e65722e0000000000000000000000000060648201526084016109dc565b336001600160a01b0383161480610b4a5750336001600160a01b038216145b80610b5a5750610b5a8233610767565b80610b6a5750610b6a8133610767565b610c025760405162461bcd60e51b815260206004820152605b60248201527f455243313139303a205468652073656e646572206973206e656974686572207460448201527f68652028637265617469766529206f776e6572206f662074686520746f6b656e60648201527f206e6f7220617070726f76656420746f206d616e6167652069742e0000000000608482015260a4016109dc565b610c0d828585612bd9565b50505050565b610c1d3383612c42565b610cb55760405162461bcd60e51b815260206004820152604a60248201527f455243313139303a205468652073656e646572206973206e656974686572207460448201527f6865206f776e6572206e6f7220617070726f76656420746f206d616e6167652060648201527f74686520746f6b656e2e00000000000000000000000000000000000000000000608482015260a4016109dc565b610c0d84848484612d22565b6000610ccc83612b9a565b610d235760405162461bcd60e51b815260206004820152602260248201527f455243313139303a2054686520746f6b656e20646f6573206e6f7420657869736044820152613a1760f11b60648201526084016109dc565b6001600160a01b038216610d8d5760405162461bcd60e51b815260206004820152602b60248201527f455243313139303a2072656e7465722063616e6e6f7420626520746865207a6560448201526a39379030b2323932b9b99760a91b60648201526084016109dc565b60008381526004602090815260408083206001600160a01b0386168452909152902054610e225760405162461bcd60e51b815260206004820152602d60248201527f455243313139303a205468652072656e74657220686173206e6f742072656e7460448201527f65642074686520746f6b656e2e0000000000000000000000000000000000000060648201526084016109dc565b60008381526004602090815260408083206001600160a01b0386168452909152902054610e51426103e86142a6565b8110156110175760008481526004602090815260408083206001600160a01b03871684529091528120819055805b60008681526005602052604090205481108015610e9a575081155b15610fe657600086815260056020526040902080546001600160a01b038716919083908110610ecb57610ecb6142c5565b6000918252602090912001546001600160a01b03161415610fd45760008681526005602052604090208054610f02906001906142db565b81548110610f1257610f126142c5565b60009182526020808320909101548883526005909152604090912080546001600160a01b039092169183908110610f4b57610f4b6142c5565b6000918252602080832091909101805473ffffffffffffffffffffffffffffffffffffffff19166001600160a01b039490941693909317909255878152600590915260409020805480610fa057610fa06142f2565b6000828152602090208101600019908101805473ffffffffffffffffffffffffffffffffffffffff19169055019055600191505b80610fde81614308565b915050610e7f565b506001600160a01b03841660009081526008602052604081208054600192906110109084906142db565b9091555050505b505060009182526004602090815260408084206001600160a01b0393909316845291905290205490565b6000818152600360205260408120546001600160a01b0316806108e65760405162461bcd60e51b815260206004820152603460248201527f455243313139303a204e6f626f647920686173206372656174697665206f776e60448201527f657273686970206f76657220746f6b656e49642e00000000000000000000000060648201526084016109dc565b60006108e682612dad565b6110f2838383604051806020016040528060008152506110f7565b505050565b6111013383612e25565b6111995760405162461bcd60e51b815260206004820152605360248201527f455243313139303a205468652073656e646572206973206e656974686572207460448201527f6865206372656174697665206f776e6572206e6f7220617070726f766564207460648201527f6f206d616e6167652074686520746f6b656e2e00000000000000000000000000608482015260a4016109dc565b610c0d84848484612e92565b6111af3382612c42565b6112475760405162461bcd60e51b815260206004820152604a60248201527f455243313139303a205468652073656e646572206973206e656974686572207460448201527f6865206f776e6572206e6f7220617070726f76656420746f206d616e6167652060648201527f74686520746f6b656e2e00000000000000000000000000000000000000000000608482015260a4016109dc565b6110f2838383612ea9565b60006001600160a01b0382166112d05760405162461bcd60e51b815260206004820152603260248201527f455243313139303a2063726561746976654f776e65722063616e6e6f7420626560448201527f20746865207a65726f20616464726573732e000000000000000000000000000060648201526084016109dc565b506001600160a01b031660009081526007602052604090205490565b6000818152600260205260408120546001600160a01b0316806108e65760405162461bcd60e51b815260206004820152602b60248201527f455243313139303a204e6f626f647920686173206f776e657273686970206f7660448201527f657220746f6b656e49642e00000000000000000000000000000000000000000060648201526084016109dc565b6000611382600f5490565b905090565b6001600160a01b0381166114295760405162461bcd60e51b815260206004820152604a60248201527f455243313139305472616461626c653a2043616e6e6f74207472616e7366657260448201527f20746865206372656174697665206c6963656e736520746f20746865207a657260648201527f6f20616464726573732e00000000000000000000000000000000000000000000608482015260a4016109dc565b600061143483611041565b9050336001600160a01b038216146114b45760405162461bcd60e51b815260206004820152603e60248201527f455243313139305472616461626c653a205468652073656e64657220646f657360448201527f206e6f74206f776e20746865206372656174697665206c6963656e73652e000060648201526084016109dc565b6110f28183856119f2565b60006114ca82612b9a565b6115295760405162461bcd60e51b815260206004820152602a60248201527f455243313139305472616461626c653a2054686520746f6b656e20646f6573206044820152693737ba1032bc34b9ba1760b11b60648201526084016109dc565b5060009081526012602052604090205490565b600e546001600160a01b031633146115965760405162461bcd60e51b815260206004820181905260248201527f4f776e61626c653a2063616c6c6572206973206e6f7420746865206f776e657260448201526064016109dc565b6115a060006130b1565b565b6115ab82612b9a565b61160a5760405162461bcd60e51b815260206004820152602a60248201527f455243313139305472616461626c653a2054686520746f6b656e20646f6573206044820152693737ba1032bc34b9ba1760b11b60648201526084016109dc565b600081116116a65760405162461bcd60e51b815260206004820152604360248201527f455243313139305472616461626c653a20546865206f776e657273686970206c60448201527f6963656e736520636f7374206d7573742062652067726561746572207468616e60648201527f20302e0000000000000000000000000000000000000000000000000000000000608482015260a4016109dc565b60009182526011602052604090912055565b60006116c383612b9a565b61171a5760405162461bcd60e51b815260206004820152602260248201527f455243313139303a2054686520746f6b656e20646f6573206e6f7420657869736044820152613a1760f11b60648201526084016109dc565b6001600160a01b0382166117845760405162461bcd60e51b815260206004820152602b60248201527f455243313139303a2072656e7465722063616e6e6f7420626520746865207a6560448201526a39379030b2323932b9b99760a91b60648201526084016109dc565b5060009182526004602090815260408084206001600160a01b0393909316845291905290205490565b6110f283838360405180602001604052806000815250610c13565b6001600160a01b0381166118585760405162461bcd60e51b815260206004820152604b60248201527f455243313139305472616461626c653a2043616e6e6f74207472616e7366657260448201527f20746865206f776e657273686970206c6963656e736520746f20746865207a6560648201526a39379030b2323932b9b99760a91b608482015260a4016109dc565b6000611863836112ec565b9050336001600160a01b038216146118e35760405162461bcd60e51b815260206004820152603f60248201527f455243313139305472616461626c653a205468652073656e64657220646f657360448201527f206e6f74206f776e20746865206f776e657273686970206c6963656e73652e0060648201526084016109dc565b6110f28183856111a5565b6060600180546108fb90614255565b600e546000906001600160a01b0316331461195a5760405162461bcd60e51b815260206004820181905260248201527f4f776e61626c653a2063616c6c6572206973206e6f7420746865206f776e657260448201526064016109dc565b611968600f80546001019055565b6000611973600f5490565b905061197f8782613110565b61198a818787613316565b61199581858561338f565b604080516001600160a01b038916815260ff86811660208301528516818301526060810183905290517fd3df8e557dd2db4e6ed42c0bc93d8dceae1dae9bd0d8bfa2c69d68759fceab539181900360800190a19695505050505050565b6119fc3382612e25565b611a945760405162461bcd60e51b815260206004820152605360248201527f455243313139303a205468652073656e646572206973206e656974686572207460448201527f6865206372656174697665206f776e6572206e6f7220617070726f766564207460648201527f6f206d616e6167652074686520746f6b656e2e00000000000000000000000000608482015260a4016109dc565b6110f2838383613519565b611aaa338383613721565b5050565b600081815260056020908152604091829020805483518184028101840190945280845260609392830182828015611b0e57602002820191906000526020600020905b81546001600160a01b03168152600190910190602001808311611af0575b50505050509050919050565b60006001600160a01b038216611b865760405162461bcd60e51b815260206004820152602b60248201527f455243313139303a2072656e7465722063616e6e6f7420626520746865207a6560448201526a39379030b2323932b9b99760a91b60648201526084016109dc565b506001600160a01b031660009081526008602052604090205490565b611bab81612b9a565b611c0a5760405162461bcd60e51b815260206004820152602a60248201527f455243313139305472616461626c653a2054686520746f6b656e20646f6573206044820152693737ba1032bc34b9ba1760b11b60648201526084016109dc565b600081815260126020526040902054611cb15760405162461bcd60e51b815260206004820152604a60248201527f455243313139305472616461626c653a20546865206372656174697665206c6960448201527f63656e7365206f66207468697320746f6b656e2063616e6e6f7420626520747260648201527f616e736665727265642e00000000000000000000000000000000000000000000608482015260a4016109dc565b600081815260126020526040902054341015611d815760405162461bcd60e51b815260206004820152606b60248201527f455243313139305472616461626c653a2054686520616d6f756e74206f66207760448201527f65692073656e74206973206e6f742073756666696369656e7420666f72206f6260648201527f7461696e696e6720746865206372656174697665206c6963656e7365206f662060848201527f7468697320746f6b656e2e00000000000000000000000000000000000000000060a482015260c4016109dc565b33611e1a5760405162461bcd60e51b815260206004820152604a60248201527f455243313139305472616461626c653a2043616e6e6f74207472616e7366657260448201527f20746865206372656174697665206c6963656e736520746f20746865207a657260648201527f6f20616464726573732e00000000000000000000000000000000000000000000608482015260a4016109dc565b6000611e2582611041565b9050611e328133846119f2565b6040516001600160a01b038216903480156108fc02916000818181858888f193505050501580156110f2573d6000803e3d6000fd5b611e7082612b9a565b611ecf5760405162461bcd60e51b815260206004820152602a60248201527f455243313139305472616461626c653a2054686520746f6b656e20646f6573206044820152693737ba1032bc34b9ba1760b11b60648201526084016109dc565b600082815260136020526040902054611f765760405162461bcd60e51b815260206004820152604160248201527f455243313139305472616461626c653a205468652061737365742072656c617460448201527f656420746f207468697320746f6b656e206973206e6f742072656e7461626c6560648201527f2e00000000000000000000000000000000000000000000000000000000000000608482015260a4016109dc565b600042611f856103e884614323565b611f8f91906142db565b9050600081116120075760405162461bcd60e51b815260206004820152603260248201527f455243313139305472616461626c653a205468652072656e74616c2074696d6560448201527f206d75737420626520706f7369746976652e000000000000000000000000000060648201526084016109dc565b60008381526013602052604081205461202090836142a6565b9050803410156120be5760405162461bcd60e51b815260206004820152605560248201527f455243313139305472616461626c653a2054686520616d6f756e74206f66207760448201527f65692073656e74206973206e6f742073756666696369656e7420746f20636f7660648201527f6572207468652072656e7420657870656e7365732e0000000000000000000000608482015260a4016109dc565b60006120c9856112ec565b905060006120d686611041565b90506120e33387876127fa565b806001600160a01b0316826001600160a01b03161415612138576040516001600160a01b038316903480156108fc02916000818181858888f19350505050158015612132573d6000803e3d6000fd5b506121ef565b60006121438761380f565b90506001600160a01b0383166108fc606461215e8482614345565b61216b9060ff16346142a6565b6121759190614323565b6040518115909202916000818181858888f1935050505015801561219d573d6000803e3d6000fd5b506001600160a01b0382166108fc60646121ba60ff8516346142a6565b6121c49190614323565b6040518115909202916000818181858888f193505050501580156121ec573d6000803e3d6000fd5b50505b505050505050565b600061220282612b9a565b6122615760405162461bcd60e51b815260206004820152602a60248201527f455243313139305472616461626c653a2054686520746f6b656e20646f6573206044820152693737ba1032bc34b9ba1760b11b60648201526084016109dc565b5060009081526013602052604090205490565b60006108e68261380f565b60006001600160a01b0382166122fd5760405162461bcd60e51b815260206004820152602a60248201527f455243313139303a206f776e65722063616e6e6f7420626520746865207a657260448201527f6f20616464726573732e0000000000000000000000000000000000000000000060648201526084016109dc565b506001600160a01b031660009081526006602052604090205490565b606061232482612b9a565b61237b5760405162461bcd60e51b815260206004820152602260248201527f455243313139303a2054686520746f6b656e20646f6573206e6f7420657869736044820152613a1760f11b60648201526084016109dc565b6000828152600d60205260408120805461239490614255565b9050116124095760405162461bcd60e51b815260206004820152602960248201527f455243313139303a204e6f2066696c65206173736f63696174656420746f207460448201527f686520746f6b656e2e000000000000000000000000000000000000000000000060648201526084016109dc565b6000612413613887565b905060008151116124335760405180602001604052806000815250612468565b80600d6000858152602001908152602001600020604051602001612458929190614368565b6040516020818303038152906040525b9392505050565b61247882612b9a565b6124d75760405162461bcd60e51b815260206004820152602a60248201527f455243313139305472616461626c653a2054686520746f6b656e20646f6573206044820152693737ba1032bc34b9ba1760b11b60648201526084016109dc565b600081116125735760405162461bcd60e51b815260206004820152604260248201527f455243313139305472616461626c653a20546865206372656174697665206c6960448201527f63656e736520636f7374206d7573742062652067726561746572207468616e2060648201527f302e000000000000000000000000000000000000000000000000000000000000608482015260a4016109dc565b60009182526012602052604090912055565b61258e82612b9a565b6125ed5760405162461bcd60e51b815260206004820152602a60248201527f455243313139305472616461626c653a2054686520746f6b656e20646f6573206044820152693737ba1032bc34b9ba1760b11b60648201526084016109dc565b600081116126895760405162461bcd60e51b815260206004820152604360248201527f455243313139305472616461626c653a205468652072656e74616c20636f737460448201527f20706572207365636f6e64206d7573742062652067726561746572207468616e60648201527f20302e0000000000000000000000000000000000000000000000000000000000608482015260a4016109dc565b60009182526013602052604090912055565b60006126a682612b9a565b6127055760405162461bcd60e51b815260206004820152602a60248201527f455243313139305472616461626c653a2054686520746f6b656e20646f6573206044820152693737ba1032bc34b9ba1760b11b60648201526084016109dc565b5060009081526011602052604090205490565b600e546001600160a01b031633146127725760405162461bcd60e51b815260206004820181905260248201527f4f776e61626c653a2063616c6c6572206973206e6f7420746865206f776e657260448201526064016109dc565b6001600160a01b0381166127ee5760405162461bcd60e51b815260206004820152602660248201527f4f776e61626c653a206e6577206f776e657220697320746865207a65726f206160448201527f646472657373000000000000000000000000000000000000000000000000000060648201526084016109dc565b6127f7816130b1565b50565b6110f2838383613896565b61280e81612b9a565b61286d5760405162461bcd60e51b815260206004820152602a60248201527f455243313139305472616461626c653a2054686520746f6b656e20646f6573206044820152693737ba1032bc34b9ba1760b11b60648201526084016109dc565b6000818152601160205260409020546129145760405162461bcd60e51b815260206004820152604b60248201527f455243313139305472616461626c653a20546865206f776e657273686970206c60448201527f6963656e7365206f66207468697320746f6b656e2063616e6e6f74206265207460648201527f72616e736665727265642e000000000000000000000000000000000000000000608482015260a4016109dc565b6000818152601160205260409020543410156129e45760405162461bcd60e51b815260206004820152606c60248201527f455243313139305472616461626c653a2054686520616d6f756e74206f66207760448201527f65692073656e74206973206e6f742073756666696369656e7420666f72206f6260648201527f7461696e696e6720746865206f776e657273686970206c6963656e7365206f6660848201527f207468697320746f6b656e2e000000000000000000000000000000000000000060a482015260c4016109dc565b33612a6b5760405162461bcd60e51b815260206004820152604b60248201527f455243313139305472616461626c653a2043616e6e6f74207472616e7366657260448201527f20746865206f776e657273686970206c6963656e736520746f20746865207a6560648201526a39379030b2323932b9b99760a91b608482015260a4016109dc565b6000612a76826112ec565b90506000612a8383611041565b9050612a908233856111a5565b806001600160a01b0316826001600160a01b03161415612adf576040516001600160a01b038316903480156108fc02916000818181858888f19350505050158015610c0d573d6000803e3d6000fd5b6000612aea84612dad565b90506001600160a01b0383166108fc6064612b058482614345565b612b129060ff16346142a6565b612b1c9190614323565b6040518115909202916000818181858888f19350505050158015612b44573d6000803e3d6000fd5b506001600160a01b0382166108fc6064612b6160ff8516346142a6565b612b6b9190614323565b6040518115909202916000818181858888f19350505050158015612b93573d6000803e3d6000fd5b5050505050565b6000818152600260205260408120546001600160a01b0316158015906108e65750506000908152600360205260409020546001600160a01b0316151590565b600081815260096020526040808220805473ffffffffffffffffffffffffffffffffffffffff19166001600160a01b0386811691821790925591518493918716917f8c5be1e5ebec7d5bd14f71427d1e84f3dd0314c0f7b2291e5b200ac8c7c3b92591a4505050565b6000612c4d82612b9a565b612ca45760405162461bcd60e51b815260206004820152602260248201527f455243313139303a2054686520746f6b656e20646f6573206e6f7420657869736044820152613a1760f11b60648201526084016109dc565b6000612caf836112ec565b9050806001600160a01b0316846001600160a01b03161480612cea5750836001600160a01b0316612cdf8461097e565b6001600160a01b0316145b80612d1a57506001600160a01b038082166000908152600c602090815260408083209388168352929052205460ff165b949350505050565b612d2d848484612ea9565b612d3984848484613a23565b610c0d576040805162461bcd60e51b81526020600482015260248101919091527f455243313139303a205472616e7366657220746f20636f6e7472616374206e6f60448201527f7420696d706c656d656e74696e6720494552433131393052656365697665722e60648201526084016109dc565b6000612db882612b9a565b612e0f5760405162461bcd60e51b815260206004820152602260248201527f455243313139303a2054686520746f6b656e20646f6573206e6f7420657869736044820152613a1760f11b60648201526084016109dc565b506000908152600b602052604090205460ff1690565b6000612e3082612b9a565b612e875760405162461bcd60e51b815260206004820152602260248201527f455243313139303a2054686520746f6b656e20646f6573206e6f7420657869736044820152613a1760f11b60648201526084016109dc565b6000612caf83611041565b612e9d848484613519565b612d3984848484613bc3565b6000612eb4826112ec565b9050836001600160a01b0316816001600160a01b031614612f635760405162461bcd60e51b815260206004820152604260248201527f455243313139303a2043616e6e6f74207472616e7366657220746865206f776e60448201527f657273686970206c6963656e7365206966206974206973206e6f74206f776e6560648201527f642e000000000000000000000000000000000000000000000000000000000000608482015260a4016109dc565b6001600160a01b038316612fdf5760405162461bcd60e51b815260206004820152602d60248201527f455243313139303a2043616e6e6f74207472616e7366657220746f207468652060448201527f7a65726f20616464726573732e0000000000000000000000000000000000000060648201526084016109dc565b612feb81600084612bd9565b6001600160a01b03841660009081526006602052604081208054600192906130149084906142db565b90915550506001600160a01b0383166000908152600660205260408120805460019290613042908490614419565b9091555050600082815260026020526040808220805473ffffffffffffffffffffffffffffffffffffffff19166001600160a01b0387811691821790925591518593918816917fe80a6bc7d5973fd4e185e65f6809de784f12b41b6e342e215b7d37669cd3cc7f91a450505050565b600e80546001600160a01b0383811673ffffffffffffffffffffffffffffffffffffffff19831681179093556040519116919082907f8be0079c531659141344cd1fd0a4f28419497f9722a3daafe3b4186f6b6457e090600090a35050565b6001600160a01b03821661318c5760405162461bcd60e51b815260206004820152602760248201527f455243313139303a20746f2063616e6e6f7420626520746865207a65726f206160448201527f6464726573732e0000000000000000000000000000000000000000000000000060648201526084016109dc565b61319581612b9a565b156132085760405162461bcd60e51b815260206004820152602260248201527f455243313139303a2054686520746f6b656e20616c726561647920657869737460448201527f732e00000000000000000000000000000000000000000000000000000000000060648201526084016109dc565b6001600160a01b0382166000908152600660205260408120805460019290613231908490614419565b90915550506001600160a01b038216600090815260076020526040812080546001929061325f908490614419565b9091555050600081815260026020908152604080832080546001600160a01b03871673ffffffffffffffffffffffffffffffffffffffff199182168117909255600390935281842080549093168117909255518392907fe80a6bc7d5973fd4e185e65f6809de784f12b41b6e342e215b7d37669cd3cc7f908290a460405181906001600160a01b038416906000907f17e7f9521d748f438723d107c498592c030975fd52ce9ca0ff758b7b96cb36ca908290a45050565b61331f83612b9a565b6133765760405162461bcd60e51b815260206004820152602260248201527f455243313139303a2054686520746f6b656e20646f6573206e6f7420657869736044820152613a1760f11b60648201526084016109dc565b6000838152600d60205260409020610c0d908383613d74565b61339883612b9a565b6133ef5760405162461bcd60e51b815260206004820152602260248201527f455243313139303a2054686520746f6b656e20646f6573206e6f7420657869736044820152613a1760f11b60648201526084016109dc565b60648260ff1611156134695760405162461bcd60e51b815260206004820152603160248201527f455243313139303a20526f79616c747920666f722072656e74616c206f75742060448201527f6f662072616e6765205b302c3130305d2e00000000000000000000000000000060648201526084016109dc565b60648160ff1611156134e35760405162461bcd60e51b815260206004820152603d60248201527f455243313139303a20526f79616c747920666f72206f776e657273686970207460448201527f72616e73666572206f7574206f662072616e6765205b302c3130305d2e00000060648201526084016109dc565b6000928352600a60209081526040808520805460ff1990811660ff96871617909155600b90925290932080549093169116179055565b600061352482611041565b9050836001600160a01b0316816001600160a01b0316146135d35760405162461bcd60e51b815260206004820152604260248201527f455243313139303a2043616e6e6f74207472616e7366657220746865206f776e60448201527f657273686970206c6963656e7365206966206974206973206e6f74206f776e6560648201527f642e000000000000000000000000000000000000000000000000000000000000608482015260a4016109dc565b6001600160a01b03831661364f5760405162461bcd60e51b815260206004820152602d60248201527f455243313139303a2043616e6e6f74207472616e7366657220746f207468652060448201527f7a65726f20616464726573732e0000000000000000000000000000000000000060648201526084016109dc565b61365b81600084612bd9565b6001600160a01b03841660009081526007602052604081208054600192906136849084906142db565b90915550506001600160a01b03831660009081526007602052604081208054600192906136b2908490614419565b9091555050600082815260036020526040808220805473ffffffffffffffffffffffffffffffffffffffff19166001600160a01b0387811691821790925591518593918816917f17e7f9521d748f438723d107c498592c030975fd52ce9ca0ff758b7b96cb36ca91a450505050565b816001600160a01b0316836001600160a01b031614156137a95760405162461bcd60e51b815260206004820152602c60248201527f455243313139303a20546865206f776e65722063616e6e6f7420617070726f7660448201527f6520746865697273656c662e000000000000000000000000000000000000000060648201526084016109dc565b6001600160a01b038381166000818152600c6020908152604080832094871680845294909152808220805460ff19168615159081179091559051909392917f17307eab39ab6107e8899845ad3d59bd9653f200f220920489ca2b5937696c3191a4505050565b600061381a82612b9a565b6138715760405162461bcd60e51b815260206004820152602260248201527f455243313139303a2054686520746f6b656e20646f6573206e6f7420657869736044820152613a1760f11b60648201526084016109dc565b506000908152600a602052604090205460ff1690565b6060601080546108fb90614255565b6001600160a01b0383166139005760405162461bcd60e51b815260206004820152602b60248201527f455243313139303a2072656e7465722063616e6e6f7420626520746865207a6560448201526a39379030b2323932b9b99760a91b60648201526084016109dc565b61390982612b9a565b6139605760405162461bcd60e51b815260206004820152602260248201527f455243313139303a2054686520746f6b656e20646f6573206e6f7420657869736044820152613a1760f11b60648201526084016109dc565b60008281526004602090815260408083206001600160a01b0387168085529083528184208590558584526005835281842080546001818101835591865284862001805473ffffffffffffffffffffffffffffffffffffffff191683179055908452600890925282208054919290916139d9908490614419565b909155505060405181815282906001600160a01b038516907fbde1f9520db9dbbe765a8fa71cf09322ecafa1c2ac591112fe5b2f137549d6de9060200160405180910390a3505050565b60006001600160a01b0384163b15613bb8576040517f6b6ea7610000000000000000000000000000000000000000000000000000000081526001600160a01b03851690636b6ea76190613a80903390899088908890600401614431565b6020604051808303816000875af1925050508015613abb575060408051601f3d908101601f19168201909252613ab89181019061446d565b60015b613b6d573d808015613ae9576040519150601f19603f3d011682016040523d82523d6000602084013e613aee565b606091505b508051613b65576040805162461bcd60e51b81526020600482015260248101919091527f455243313139303a205472616e7366657220746f20636f6e7472616374206e6f60448201527f7420696d706c656d656e74696e6720494552433131393052656365697665722e60648201526084016109dc565b805181602001fd5b7fffffffff00000000000000000000000000000000000000000000000000000000167f6b6ea76100000000000000000000000000000000000000000000000000000000149050612d1a565b506001949350505050565b60006001600160a01b0384163b15613bb8576040517f996206e00000000000000000000000000000000000000000000000000000000081526001600160a01b0385169063996206e090613c20903390899088908890600401614431565b6020604051808303816000875af1925050508015613c5b575060408051601f3d908101601f19168201909252613c589181019061446d565b60015b613d29573d808015613c89576040519150601f19603f3d011682016040523d82523d6000602084013e613c8e565b606091505b508051613b655760405162461bcd60e51b815260206004820152605560248201527f455243313139303a205472696564207472616e7366657220746f20636f6e747260448201527f616374206e6f7420696d706c656d656e74696e6720494552433131393043726560648201527f61746976654c6963656e736552656365697665722e0000000000000000000000608482015260a4016109dc565b7fffffffff00000000000000000000000000000000000000000000000000000000167f996206e000000000000000000000000000000000000000000000000000000000149050612d1a565b828054613d8090614255565b90600052602060002090601f016020900481019282613da25760008555613de8565b82601f10613dbb5782800160ff19823516178555613de8565b82800160010185558215613de8579182015b82811115613de8578235825591602001919060010190613dcd565b50613df4929150613df8565b5090565b5b80821115613df45760008155600101613df9565b7fffffffff00000000000000000000000000000000000000000000000000000000811681146127f757600080fd5b600060208284031215613e4d57600080fd5b813561246881613e0d565b60005b83811015613e73578181015183820152602001613e5b565b83811115610c0d5750506000910152565b60008151808452613e9c816020860160208601613e58565b601f01601f19169290920160200192915050565b6020815260006124686020830184613e84565b600060208284031215613ed557600080fd5b5035919050565b80356001600160a01b0381168114613ef357600080fd5b919050565b60008060408385031215613f0b57600080fd5b613f1483613edc565b946020939093013593505050565b634e487b7160e01b600052604160045260246000fd5b60008060008060808587031215613f4e57600080fd5b613f5785613edc565b9350613f6560208601613edc565b925060408501359150606085013567ffffffffffffffff80821115613f8957600080fd5b818701915087601f830112613f9d57600080fd5b813581811115613faf57613faf613f22565b604051601f8201601f19908116603f01168101908382118183101715613fd757613fd7613f22565b816040528281528a6020848701011115613ff057600080fd5b82602086016020830137600060208483010152809550505050505092959194509250565b6000806040838503121561402757600080fd5b8235915061403760208401613edc565b90509250929050565b60008060006060848603121561405557600080fd5b61405e84613edc565b925061406c60208501613edc565b9150604084013590509250925092565b60006020828403121561408e57600080fd5b61246882613edc565b600080604083850312156140aa57600080fd5b50508035926020909101359150565b803560ff81168114613ef357600080fd5b6000806000806000608086880312156140e257600080fd5b6140eb86613edc565b9450602086013567ffffffffffffffff8082111561410857600080fd5b818801915088601f83011261411c57600080fd5b81358181111561412b57600080fd5b89602082850101111561413d57600080fd5b602083019650809550505050614155604087016140b9565b9150614163606087016140b9565b90509295509295909350565b6000806040838503121561418257600080fd5b61418b83613edc565b9150602083013580151581146141a057600080fd5b809150509250929050565b6020808252825182820181905260009190848201906040850190845b818110156141ec5783516001600160a01b0316835292840192918401916001016141c7565b50909695505050505050565b6000806040838503121561420b57600080fd5b61421483613edc565b915061403760208401613edc565b60008060006060848603121561423757600080fd5b61424084613edc565b95602085013595506040909401359392505050565b600181811c9082168061426957607f821691505b6020821081141561428a57634e487b7160e01b600052602260045260246000fd5b50919050565b634e487b7160e01b600052601160045260246000fd5b60008160001904831182151516156142c0576142c0614290565b500290565b634e487b7160e01b600052603260045260246000fd5b6000828210156142ed576142ed614290565b500390565b634e487b7160e01b600052603160045260246000fd5b600060001982141561431c5761431c614290565b5060010190565b60008261434057634e487b7160e01b600052601260045260246000fd5b500490565b600060ff821660ff84168082101561435f5761435f614290565b90039392505050565b60008351602061437b8285838901613e58565b845491840191600090600181811c908083168061439957607f831692505b8583108114156143b757634e487b7160e01b85526022600452602485fd5b8080156143cb57600181146143dc57614409565b60ff19851688528388019550614409565b60008b81526020902060005b858110156144015781548a8201529084019088016143e8565b505083880195505b50939a9950505050505050505050565b6000821982111561442c5761442c614290565b500190565b60006001600160a01b038087168352808616602084015250836040830152608060608301526144636080830184613e84565b9695505050505050565b60006020828403121561447f57600080fd5b815161246881613e0d56fea26469706673582212209e2c5002b508585cfe0f7227cca9057055389b68252de1ab381ae635ba8452bc64736f6c634300080b0033",
  "immutableReferences": {},
  "source": "// SPDX-License-Identifier: MIT\npragma solidity >=0.4.22 <0.9.0;\n\nimport \"./ERC1190.sol\";\nimport \"@openzeppelin/contracts/utils/Counters.sol\";\nimport \"@openzeppelin/contracts/access/Ownable.sol\";\n\n/**\n * @dev Implementation of ERC1190 with payable methods.\n */\ncontract ERC1190Tradable is ERC1190, Ownable {\n    using Counters for Counters.Counter;\n    Counters.Counter private _tokenIds;\n\n    event TokenMinted(\n        address creator,\n        uint8 royaltyForRental,\n        uint8 royaltyForOwnershipTransfer,\n        uint256 tokenId\n    );\n\n    // Base URI\n    string private _base;\n\n    // The price in wei of each token that can be owned.\n    mapping(uint256 => uint256) private _ownershipPrice;\n\n    // The price in wei of each token that can be creative owned.\n    mapping(uint256 => uint256) private _creativePrice;\n\n    // The price in wei of each token that can be rented.\n    mapping(uint256 => uint256) private _rentalPrice;\n\n    /**\n     * @dev See {ERC1190-constructor}.\n     */\n    constructor(\n        string memory tokenName,\n        string memory tokenSymbol,\n        string memory tokenBaseUri\n    ) ERC1190(tokenName, tokenSymbol) {\n        _base = tokenBaseUri;\n    }\n\n    function availableTokens() external view returns (uint256) {\n        return _tokenIds.current();\n    }\n\n    function ownershipPriceOf(uint256 tokenId) external view returns (uint256) {\n        require(_exists(tokenId), \"ERC1190Tradable: The token does not exist.\");\n\n        return _ownershipPrice[tokenId];\n    }\n\n    function creativeOwnershipPriceOf(uint256 tokenId) external view returns (uint256) {\n        require(_exists(tokenId), \"ERC1190Tradable: The token does not exist.\");\n        \n        return _creativePrice[tokenId];\n    }\n\n    function rentalPriceOf(uint256 tokenId) external view returns (uint256) {\n        require(_exists(tokenId), \"ERC1190Tradable: The token does not exist.\");\n        \n        return _rentalPrice[tokenId];\n    }\n\n    /**\n     * See {ERC1190-_baseURI}.\n     */\n    function _baseURI() internal view virtual override returns (string memory) {\n        return _base;\n    }\n\n    /**\n     * @dev Generates a new token and assigns its ownership and creative\n     * license to `creator`.\n     * The royalties are set via `rentalRoyalty` and `ownershipTransferRoyalty`.\n     */\n    function mint(\n        address creator,\n        string calldata file,\n        uint8 rentalRoyalty,\n        uint8 ownershipTransferRoyalty\n    ) external onlyOwner returns (uint256) {\n        _tokenIds.increment();\n\n        uint256 newItemId = _tokenIds.current();\n        super._mint(creator, newItemId);\n        super._associateFile(newItemId, file);\n        super._setRoyalties(\n            newItemId,\n            rentalRoyalty,\n            ownershipTransferRoyalty\n        );\n\n        emit TokenMinted(creator, rentalRoyalty, ownershipTransferRoyalty, newItemId);\n\n        return newItemId;\n    }\n\n    /**\n     * @dev Sets the price for acquiring property of the ownership license of token\n     * `tokenId`.\n     *\n     * Requirements:\n     *\n     * - `tokenId` must exist.\n     * - `priceInWei` must be greater than 0.\n     */\n    function setOwnershipLicensePrice(uint256 tokenId, uint256 priceInWei)\n        external\n    {\n        require(\n            super._exists(tokenId),\n            \"ERC1190Tradable: The token does not exist.\"\n        );\n\n        require(\n            priceInWei > 0,\n            \"ERC1190Tradable: The ownership license cost must be greater than 0.\"\n        );\n\n        _ownershipPrice[tokenId] = priceInWei;\n    }\n\n    /**\n     * @dev Sets the price for acquiring property of the creative license of token\n     * `tokenId`.\n     *\n     * Requirements:\n     *\n     * - `tokenId` must exist.\n     * - `priceInWei` must be greater than 0.\n     */\n    function setCreativeLicensePrice(uint256 tokenId, uint256 priceInWei)\n        external\n    {\n        require(\n            super._exists(tokenId),\n            \"ERC1190Tradable: The token does not exist.\"\n        );\n\n        require(\n            priceInWei > 0,\n            \"ERC1190Tradable: The creative license cost must be greater than 0.\"\n        );\n\n        _creativePrice[tokenId] = priceInWei;\n    }\n\n    /**\n     * @dev Sets the price for renting `tokenId` for 1 second.\n     *\n     * Requirements:\n     *\n     * - `tokenId` must exist.\n     * - `priceInWei` must be greater than 0.\n     */\n    function setRentalPrice(uint256 tokenId, uint256 priceInWei) external {\n        require(\n            super._exists(tokenId),\n            \"ERC1190Tradable: The token does not exist.\"\n        );\n\n        require(\n            priceInWei > 0,\n            \"ERC1190Tradable: The rental cost per second must be greater than 0.\"\n        );\n\n        _rentalPrice[tokenId] = priceInWei;\n    }\n\n    /**\n     * @dev Rents the token `tokenId` for a total amount of `rentExpirationDateInMillis` ms.\n     *\n     * Requirements:\n     *\n     * - `tokenId` must exist.\n     * - A rental price must have been set via {setRentalPrice}.\n     * - `rentExpirationDateInMillis` should correspond to a future date.\n     * - the sent money should be enough to cover the renting expenses.\n     */\n    function rentAsset(uint256 tokenId, uint256 rentExpirationDateInMillis)\n        external\n        payable\n    {\n        require(\n            super._exists(tokenId),\n            \"ERC1190Tradable: The token does not exist.\"\n        );\n\n        require(\n            _rentalPrice[tokenId] > 0,\n            \"ERC1190Tradable: The asset related to this token is not rentable.\"\n        );\n\n        uint256 rentTimeInSeconds = (rentExpirationDateInMillis / 1000) -\n            block.timestamp;\n\n        require(\n            rentTimeInSeconds > 0,\n            \"ERC1190Tradable: The rental time must be positive.\"\n        );\n\n        uint256 rentalTotalPrice = rentTimeInSeconds * _rentalPrice[tokenId];\n\n        require(\n            msg.value >= rentalTotalPrice,\n            \"ERC1190Tradable: The amount of wei sent is not sufficient to cover the rent expenses.\"\n        );\n\n        address payable owner = payable(super.ownerOf(tokenId));\n        address payable creativeOwner = payable(super.creativeOwnerOf(tokenId));\n\n        super.rentAsset(\n            super._msgSender(),\n            tokenId,\n            rentExpirationDateInMillis\n        );\n\n        if (owner == creativeOwner) {\n            owner.transfer(msg.value);\n        } else {\n            uint8 royalty = super._royaltyForRental(tokenId);\n\n            owner.transfer((msg.value * (100 - royalty)) / 100);\n            creativeOwner.transfer((msg.value * royalty) / 100);\n        }\n    }\n\n    /**\n     * @dev Transfers the ownership license from the current owner to the account `to`.\n     *\n     * Requirements:\n     *\n     * - `tokenId` must exist.\n     * - the sender of the request must be the owner.\n     * - the receiver account `to` must not be the zero address.\n     */\n    function transferOwnershipLicense(uint256 tokenId, address to) external {\n        require(\n            to != address(0),\n            \"ERC1190Tradable: Cannot transfer the ownership license to the zero address.\"\n        );\n\n        address owner = super.ownerOf(tokenId);\n\n        require(\n            super._msgSender() == owner,\n            \"ERC1190Tradable: The sender does not own the ownership license.\"\n        );\n\n        super.transferOwnershipLicense(owner, to, tokenId);\n    }\n\n    /**\n     * @dev Transfers the ownership license from the current owner to the sender of the request.\n     *\n     * Requirements:\n     *\n     * - `tokenId` must exist.\n     * - A ownership license price must have been set via {setOwnershipLicensePrice}.\n     * - the sent money should be enough to cover the license expense.\n     */\n    function obtainOwnershipLicense(uint256 tokenId) external payable {\n        require(\n            super._exists(tokenId),\n            \"ERC1190Tradable: The token does not exist.\"\n        );\n\n        require(\n            _ownershipPrice[tokenId] > 0,\n            \"ERC1190Tradable: The ownership license of this token cannot be transferred.\"\n        );\n\n        require(\n            msg.value >= _ownershipPrice[tokenId],\n            \"ERC1190Tradable: The amount of wei sent is not sufficient for obtaining the ownership license of this token.\"\n        );\n\n        require(\n            super._msgSender() != address(0),\n            \"ERC1190Tradable: Cannot transfer the ownership license to the zero address.\"\n        );\n\n        address payable owner = payable(super.ownerOf(tokenId));\n        address payable creativeOwner = payable(super.creativeOwnerOf(tokenId));\n\n        super.transferOwnershipLicense(owner, super._msgSender(), tokenId);\n\n        if (owner == creativeOwner) {\n            owner.transfer(msg.value);\n        } else {\n            uint8 royalty = super._royaltyForOwnershipTransfer(tokenId);\n            owner.transfer((msg.value * (100 - royalty)) / 100);\n            creativeOwner.transfer((msg.value * royalty) / 100);\n        }\n    }\n\n    /**\n     * @dev Transfers the creative license from the current creative owner to the account `to`.\n     *\n     * Requirements:\n     *\n     * - `tokenId` must exist.\n     * - the sender of the request must be the creative owner.\n     * - the receiver account `to` must not be the zero address.\n     */\n    function transferCreativeLicense(uint256 tokenId, address to) external {\n        require(\n            to != address(0),\n            \"ERC1190Tradable: Cannot transfer the creative license to the zero address.\"\n        );\n\n        address creativeOwner = super.creativeOwnerOf(tokenId);\n\n        require(\n            super._msgSender() == creativeOwner,\n            \"ERC1190Tradable: The sender does not own the creative license.\"\n        );\n\n        super.transferCreativeLicense(creativeOwner, to, tokenId);\n    }\n\n    /**\n     * @dev Transfers the creative license from the current owner to the sender of the request.\n     *\n     * Requirements:\n     *\n     * - `tokenId` must exist.\n     * - A creative license price must have been set via {setCreativeLicensePrice}.\n     * - the sent money should be enough to cover the license expense.\n     */\n    function obtainCreativeLicense(uint256 tokenId) external payable {\n        require(\n            super._exists(tokenId),\n            \"ERC1190Tradable: The token does not exist.\"\n        );\n\n        require(\n            _creativePrice[tokenId] > 0,\n            \"ERC1190Tradable: The creative license of this token cannot be transferred.\"\n        );\n\n        require(\n            msg.value >= _creativePrice[tokenId],\n            \"ERC1190Tradable: The amount of wei sent is not sufficient for obtaining the creative license of this token.\"\n        );\n\n        require(\n            super._msgSender() != address(0),\n            \"ERC1190Tradable: Cannot transfer the creative license to the zero address.\"\n        );\n\n        address payable creativeOwner = payable(super.creativeOwnerOf(tokenId));\n\n        super.transferCreativeLicense(\n            creativeOwner,\n            super._msgSender(),\n            tokenId\n        );\n\n        creativeOwner.transfer(msg.value);\n    }\n}\n",
  "sourcePath": "non-fungible-royalty-token/contracts/ERC1190Tradable.sol",
  "compiler": {
    "name": "solc",
    "version": "0.8.11+commit.d7f03943.Emscripten.clang"
  },
  "schemaVersion": "3.4.4",
  "updatedAt": "2022-02-04T13:30:07.748Z",
  "devdoc": {
    "details": "Implementation of ERC1190 with payable methods.",
    "kind": "dev",
    "methods": {
      "approve(address,uint256)": {
        "details": "See {IERC1190-approve}."
      },
      "balanceOfCreativeOwner(address)": {
        "details": "See {IERC1190-balanceOfCreativeOwner}."
      },
      "balanceOfOwner(address)": {
        "details": "See {IERC1190-balanceOfOwner}."
      },
      "balanceOfRenter(address)": {
        "details": "See {IERC1190-balanceOfRenter}."
      },
      "constructor": {
        "details": "See {ERC1190-constructor}."
      },
      "creativeOwnerOf(uint256)": {
        "details": "See {IERC1190-creativeOwnerOf}."
      },
      "getApproved(uint256)": {
        "details": "See {IERC1190-getApproved}."
      },
      "getRentalDate(uint256,address)": {
        "details": "See {IERC1190-getRentalDate}."
      },
      "isApprovedForAll(address,address)": {
        "details": "See {IERC1190-isApprovedForAll}."
      },
      "mint(address,string,uint8,uint8)": {
        "details": "Generates a new token and assigns its ownership and creative license to `creator`. The royalties are set via `rentalRoyalty` and `ownershipTransferRoyalty`."
      },
      "name()": {
        "details": "See {IERC1190Metadata-name}."
      },
      "obtainCreativeLicense(uint256)": {
        "details": "Transfers the creative license from the current owner to the sender of the request. Requirements: - `tokenId` must exist. - A creative license price must have been set via {setCreativeLicensePrice}. - the sent money should be enough to cover the license expense."
      },
      "obtainOwnershipLicense(uint256)": {
        "details": "Transfers the ownership license from the current owner to the sender of the request. Requirements: - `tokenId` must exist. - A ownership license price must have been set via {setOwnershipLicensePrice}. - the sent money should be enough to cover the license expense."
      },
      "owner()": {
        "details": "Returns the address of the current owner."
      },
      "ownerOf(uint256)": {
        "details": "See {IERC1190-ownerOf}."
      },
      "renounceOwnership()": {
        "details": "Leaves the contract without owner. It will not be possible to call `onlyOwner` functions anymore. Can only be called by the current owner. NOTE: Renouncing ownership will leave the contract without an owner, thereby removing any functionality that is only available to the owner."
      },
      "rentAsset(address,uint256,uint256)": {
        "details": "See {IERC1190-rentAsset}."
      },
      "rentAsset(uint256,uint256)": {
        "details": "Rents the token `tokenId` for a total amount of `rentExpirationDateInMillis` ms. Requirements: - `tokenId` must exist. - A rental price must have been set via {setRentalPrice}. - `rentExpirationDateInMillis` should correspond to a future date. - the sent money should be enough to cover the renting expenses."
      },
      "rentersOf(uint256)": {
        "details": "See {IERC1190-rentersOf}."
      },
      "safeTransferCreativeLicense(address,address,uint256)": {
        "details": "See {IERC1190-safeTransferCreativeLicense}."
      },
      "safeTransferCreativeLicense(address,address,uint256,bytes)": {
        "details": "See {IERC1190-safeTransferCreativeLicense}."
      },
      "safeTransferOwnershipLicense(address,address,uint256)": {
        "details": "See {IERC1190-safeTransferOwnershipLicense}."
      },
      "safeTransferOwnershipLicense(address,address,uint256,bytes)": {
        "details": "See {IERC1190-safeTransferOwnershipLicense}."
      },
      "setApprovalForAll(address,bool)": {
        "details": "See {IERC1190-setApprovalForAll}."
      },
      "setCreativeLicensePrice(uint256,uint256)": {
        "details": "Sets the price for acquiring property of the creative license of token `tokenId`. Requirements: - `tokenId` must exist. - `priceInWei` must be greater than 0."
      },
      "setOwnershipLicensePrice(uint256,uint256)": {
        "details": "Sets the price for acquiring property of the ownership license of token `tokenId`. Requirements: - `tokenId` must exist. - `priceInWei` must be greater than 0."
      },
      "setRentalPrice(uint256,uint256)": {
        "details": "Sets the price for renting `tokenId` for 1 second. Requirements: - `tokenId` must exist. - `priceInWei` must be greater than 0."
      },
      "supportsInterface(bytes4)": {
        "details": "See {IERC165-supportsInterface}."
      },
      "symbol()": {
        "details": "See {IERC1190Metadata-symbol}."
      },
      "tokenURI(uint256)": {
        "details": "See {IERC1190Metadata-tokenURI}."
      },
      "transferCreativeLicense(address,address,uint256)": {
        "details": "See {IERC1190-transferCreativeLicense}."
      },
      "transferCreativeLicense(uint256,address)": {
        "details": "Transfers the creative license from the current creative owner to the account `to`. Requirements: - `tokenId` must exist. - the sender of the request must be the creative owner. - the receiver account `to` must not be the zero address."
      },
      "transferOwnership(address)": {
        "details": "Transfers ownership of the contract to a new account (`newOwner`). Can only be called by the current owner."
      },
      "transferOwnershipLicense(address,address,uint256)": {
        "details": "See {IERC1190-transferOwnershipLicense}."
      },
      "transferOwnershipLicense(uint256,address)": {
        "details": "Transfers the ownership license from the current owner to the account `to`. Requirements: - `tokenId` must exist. - the sender of the request must be the owner. - the receiver account `to` must not be the zero address."
      },
      "updateEndRentalDate(uint256,address)": {
        "details": "See {IERC1190-updateEndRentalDate}."
      }
    },
    "version": 1
  },
  "userdoc": {
    "kind": "user",
    "methods": {},
    "version": 1
  }
}