{
  "contractName": "ERC1190Tradable",
  "abi": [
    {
      "inputs": [
        {
          "internalType": "string",
          "name": "tokenName",
          "type": "string"
        },
        {
          "internalType": "string",
          "name": "tokenSymbol",
          "type": "string"
        },
        {
          "internalType": "string",
          "name": "tokenBaseUri",
          "type": "string"
        }
      ],
      "stateMutability": "nonpayable",
      "type": "constructor"
    },
    {
      "anonymous": false,
      "inputs": [
        {
          "indexed": true,
          "internalType": "address",
          "name": "owner",
          "type": "address"
        },
        {
          "indexed": true,
          "internalType": "address",
          "name": "approved",
          "type": "address"
        },
        {
          "indexed": true,
          "internalType": "uint256",
          "name": "tokenId",
          "type": "uint256"
        }
      ],
      "name": "Approval",
      "type": "event"
    },
    {
      "anonymous": false,
      "inputs": [
        {
          "indexed": true,
          "internalType": "address",
          "name": "owner",
          "type": "address"
        },
        {
          "indexed": true,
          "internalType": "address",
          "name": "operator",
          "type": "address"
        },
        {
          "indexed": true,
          "internalType": "bool",
          "name": "approved",
          "type": "bool"
        }
      ],
      "name": "ApprovalForAll",
      "type": "event"
    },
    {
      "anonymous": false,
      "inputs": [
        {
          "indexed": true,
          "internalType": "address",
          "name": "renter",
          "type": "address"
        },
        {
          "indexed": true,
          "internalType": "uint256",
          "name": "tokenId",
          "type": "uint256"
        },
        {
          "indexed": false,
          "internalType": "uint256",
          "name": "rentExpirationDateInMillis",
          "type": "uint256"
        }
      ],
      "name": "AssetRented",
      "type": "event"
    },
    {
      "anonymous": false,
      "inputs": [
        {
          "indexed": true,
          "internalType": "address",
          "name": "previousOwner",
          "type": "address"
        },
        {
          "indexed": true,
          "internalType": "address",
          "name": "newOwner",
          "type": "address"
        }
      ],
      "name": "OwnershipTransferred",
      "type": "event"
    },
    {
      "anonymous": false,
      "inputs": [
        {
          "indexed": false,
          "internalType": "address",
          "name": "creator",
          "type": "address"
        },
        {
          "indexed": false,
          "internalType": "uint8",
          "name": "royaltyForRental",
          "type": "uint8"
        },
        {
          "indexed": false,
          "internalType": "uint8",
          "name": "royaltyForOwnershipTransfer",
          "type": "uint8"
        },
        {
          "indexed": false,
          "internalType": "uint256",
          "name": "tokenId",
          "type": "uint256"
        }
      ],
      "name": "TokenMinted",
      "type": "event"
    },
    {
      "anonymous": false,
      "inputs": [
        {
          "indexed": true,
          "internalType": "address",
          "name": "from",
          "type": "address"
        },
        {
          "indexed": true,
          "internalType": "address",
          "name": "to",
          "type": "address"
        },
        {
          "indexed": true,
          "internalType": "uint256",
          "name": "tokenId",
          "type": "uint256"
        }
      ],
      "name": "TransferCreativeLicense",
      "type": "event"
    },
    {
      "anonymous": false,
      "inputs": [
        {
          "indexed": true,
          "internalType": "address",
          "name": "from",
          "type": "address"
        },
        {
          "indexed": true,
          "internalType": "address",
          "name": "to",
          "type": "address"
        },
        {
          "indexed": true,
          "internalType": "uint256",
          "name": "tokenId",
          "type": "uint256"
        }
      ],
      "name": "TransferOwnershipLicense",
      "type": "event"
    },
    {
      "inputs": [
        {
          "internalType": "address",
          "name": "to",
          "type": "address"
        },
        {
          "internalType": "uint256",
          "name": "tokenId",
          "type": "uint256"
        }
      ],
      "name": "approve",
      "outputs": [],
      "stateMutability": "nonpayable",
      "type": "function"
    },
    {
      "inputs": [
        {
          "internalType": "address",
          "name": "creativeOwner",
          "type": "address"
        }
      ],
      "name": "balanceOfCreativeOwner",
      "outputs": [
        {
          "internalType": "uint256",
          "name": "",
          "type": "uint256"
        }
      ],
      "stateMutability": "view",
      "type": "function"
    },
    {
      "inputs": [
        {
          "internalType": "address",
          "name": "owner",
          "type": "address"
        }
      ],
      "name": "balanceOfOwner",
      "outputs": [
        {
          "internalType": "uint256",
          "name": "",
          "type": "uint256"
        }
      ],
      "stateMutability": "view",
      "type": "function"
    },
    {
      "inputs": [
        {
          "internalType": "address",
          "name": "renter",
          "type": "address"
        }
      ],
      "name": "balanceOfRenter",
      "outputs": [
        {
          "internalType": "uint256",
          "name": "",
          "type": "uint256"
        }
      ],
      "stateMutability": "view",
      "type": "function"
    },
    {
      "inputs": [
        {
          "internalType": "uint256",
          "name": "tokenId",
          "type": "uint256"
        }
      ],
      "name": "creativeOwnerOf",
      "outputs": [
        {
          "internalType": "address",
          "name": "",
          "type": "address"
        }
      ],
      "stateMutability": "view",
      "type": "function"
    },
    {
      "inputs": [
        {
          "internalType": "uint256",
          "name": "tokenId",
          "type": "uint256"
        }
      ],
      "name": "getApproved",
      "outputs": [
        {
          "internalType": "address",
          "name": "",
          "type": "address"
        }
      ],
      "stateMutability": "view",
      "type": "function"
    },
    {
      "inputs": [
        {
          "internalType": "uint256",
          "name": "tokenId",
          "type": "uint256"
        },
        {
          "internalType": "address",
          "name": "renter",
          "type": "address"
        }
      ],
      "name": "getRented",
      "outputs": [
        {
          "internalType": "uint256",
          "name": "",
          "type": "uint256"
        }
      ],
      "stateMutability": "nonpayable",
      "type": "function"
    },
    {
      "inputs": [
        {
          "internalType": "address",
          "name": "owner",
          "type": "address"
        },
        {
          "internalType": "address",
          "name": "operator",
          "type": "address"
        }
      ],
      "name": "isApprovedForAll",
      "outputs": [
        {
          "internalType": "bool",
          "name": "",
          "type": "bool"
        }
      ],
      "stateMutability": "view",
      "type": "function"
    },
    {
      "inputs": [],
      "name": "name",
      "outputs": [
        {
          "internalType": "string",
          "name": "",
          "type": "string"
        }
      ],
      "stateMutability": "view",
      "type": "function"
    },
    {
      "inputs": [],
      "name": "owner",
      "outputs": [
        {
          "internalType": "address",
          "name": "",
          "type": "address"
        }
      ],
      "stateMutability": "view",
      "type": "function"
    },
    {
      "inputs": [
        {
          "internalType": "uint256",
          "name": "tokenId",
          "type": "uint256"
        }
      ],
      "name": "ownerOf",
      "outputs": [
        {
          "internalType": "address",
          "name": "",
          "type": "address"
        }
      ],
      "stateMutability": "view",
      "type": "function"
    },
    {
      "inputs": [],
      "name": "renounceOwnership",
      "outputs": [],
      "stateMutability": "nonpayable",
      "type": "function"
    },
    {
      "inputs": [
        {
          "internalType": "uint256",
          "name": "tokenId",
          "type": "uint256"
        }
      ],
      "name": "rentersOf",
      "outputs": [
        {
          "internalType": "address[]",
          "name": "",
          "type": "address[]"
        }
      ],
      "stateMutability": "view",
      "type": "function"
    },
    {
      "inputs": [
        {
          "internalType": "uint256",
          "name": "_tokenId",
          "type": "uint256"
        }
      ],
      "name": "royaltyForOwnershipTransfer",
      "outputs": [
        {
          "internalType": "uint8",
          "name": "",
          "type": "uint8"
        }
      ],
      "stateMutability": "view",
      "type": "function"
    },
    {
      "inputs": [
        {
          "internalType": "uint256",
          "name": "_tokenId",
          "type": "uint256"
        }
      ],
      "name": "royaltyForRental",
      "outputs": [
        {
          "internalType": "uint8",
          "name": "",
          "type": "uint8"
        }
      ],
      "stateMutability": "view",
      "type": "function"
    },
    {
      "inputs": [
        {
          "internalType": "address",
          "name": "from",
          "type": "address"
        },
        {
          "internalType": "address",
          "name": "to",
          "type": "address"
        },
        {
          "internalType": "uint256",
          "name": "tokenId",
          "type": "uint256"
        }
      ],
      "name": "safeTransferCreativeLicense",
      "outputs": [],
      "stateMutability": "nonpayable",
      "type": "function"
    },
    {
      "inputs": [
        {
          "internalType": "address",
          "name": "from",
          "type": "address"
        },
        {
          "internalType": "address",
          "name": "to",
          "type": "address"
        },
        {
          "internalType": "uint256",
          "name": "tokenId",
          "type": "uint256"
        },
        {
          "internalType": "bytes",
          "name": "data",
          "type": "bytes"
        }
      ],
      "name": "safeTransferCreativeLicense",
      "outputs": [],
      "stateMutability": "nonpayable",
      "type": "function"
    },
    {
      "inputs": [
        {
          "internalType": "address",
          "name": "from",
          "type": "address"
        },
        {
          "internalType": "address",
          "name": "to",
          "type": "address"
        },
        {
          "internalType": "uint256",
          "name": "tokenId",
          "type": "uint256"
        },
        {
          "internalType": "bytes",
          "name": "data",
          "type": "bytes"
        }
      ],
      "name": "safeTransferOwnershipLicense",
      "outputs": [],
      "stateMutability": "nonpayable",
      "type": "function"
    },
    {
      "inputs": [
        {
          "internalType": "address",
          "name": "from",
          "type": "address"
        },
        {
          "internalType": "address",
          "name": "to",
          "type": "address"
        },
        {
          "internalType": "uint256",
          "name": "tokenId",
          "type": "uint256"
        }
      ],
      "name": "safeTransferOwnershipLicense",
      "outputs": [],
      "stateMutability": "nonpayable",
      "type": "function"
    },
    {
      "inputs": [
        {
          "internalType": "address",
          "name": "operator",
          "type": "address"
        },
        {
          "internalType": "bool",
          "name": "approved",
          "type": "bool"
        }
      ],
      "name": "setApprovalForAll",
      "outputs": [],
      "stateMutability": "nonpayable",
      "type": "function"
    },
    {
      "inputs": [
        {
          "internalType": "bytes4",
          "name": "interfaceId",
          "type": "bytes4"
        }
      ],
      "name": "supportsInterface",
      "outputs": [
        {
          "internalType": "bool",
          "name": "",
          "type": "bool"
        }
      ],
      "stateMutability": "view",
      "type": "function"
    },
    {
      "inputs": [],
      "name": "symbol",
      "outputs": [
        {
          "internalType": "string",
          "name": "",
          "type": "string"
        }
      ],
      "stateMutability": "view",
      "type": "function"
    },
    {
      "inputs": [
        {
          "internalType": "uint256",
          "name": "tokenId",
          "type": "uint256"
        }
      ],
      "name": "tokenURI",
      "outputs": [
        {
          "internalType": "string",
          "name": "",
          "type": "string"
        }
      ],
      "stateMutability": "view",
      "type": "function"
    },
    {
      "inputs": [
        {
          "internalType": "address",
          "name": "newOwner",
          "type": "address"
        }
      ],
      "name": "transferOwnership",
      "outputs": [],
      "stateMutability": "nonpayable",
      "type": "function"
    },
    {
      "inputs": [],
      "name": "availableTokens",
      "outputs": [
        {
          "internalType": "uint256",
          "name": "",
          "type": "uint256"
        }
      ],
      "stateMutability": "view",
      "type": "function"
    },
    {
      "inputs": [
        {
          "internalType": "uint256",
          "name": "tokenId",
          "type": "uint256"
        }
      ],
      "name": "ownershipPriceOf",
      "outputs": [
        {
          "internalType": "uint256",
          "name": "",
          "type": "uint256"
        }
      ],
      "stateMutability": "view",
      "type": "function"
    },
    {
      "inputs": [
        {
          "internalType": "uint256",
          "name": "tokenId",
          "type": "uint256"
        }
      ],
      "name": "creativeOwnershipPriceOf",
      "outputs": [
        {
          "internalType": "uint256",
          "name": "",
          "type": "uint256"
        }
      ],
      "stateMutability": "view",
      "type": "function"
    },
    {
      "inputs": [
        {
          "internalType": "uint256",
          "name": "tokenId",
          "type": "uint256"
        }
      ],
      "name": "rentalPriceOf",
      "outputs": [
        {
          "internalType": "uint256",
          "name": "",
          "type": "uint256"
        }
      ],
      "stateMutability": "view",
      "type": "function"
    },
    {
      "inputs": [
        {
          "internalType": "address",
          "name": "creator",
          "type": "address"
        },
        {
          "internalType": "string",
          "name": "file",
          "type": "string"
        },
        {
          "internalType": "uint8",
          "name": "rentalRoyalty",
          "type": "uint8"
        },
        {
          "internalType": "uint8",
          "name": "ownershipTransferRoyalty",
          "type": "uint8"
        }
      ],
      "name": "mint",
      "outputs": [
        {
          "internalType": "uint256",
          "name": "",
          "type": "uint256"
        }
      ],
      "stateMutability": "nonpayable",
      "type": "function"
    },
    {
      "inputs": [
        {
          "internalType": "uint256",
          "name": "tokenId",
          "type": "uint256"
        },
        {
          "internalType": "uint256",
          "name": "priceInWei",
          "type": "uint256"
        }
      ],
      "name": "setOwnershipLicensePrice",
      "outputs": [],
      "stateMutability": "nonpayable",
      "type": "function"
    },
    {
      "inputs": [
        {
          "internalType": "uint256",
          "name": "tokenId",
          "type": "uint256"
        },
        {
          "internalType": "uint256",
          "name": "priceInWei",
          "type": "uint256"
        }
      ],
      "name": "setCreativeLicensePrice",
      "outputs": [],
      "stateMutability": "nonpayable",
      "type": "function"
    },
    {
      "inputs": [
        {
          "internalType": "uint256",
          "name": "tokenId",
          "type": "uint256"
        },
        {
          "internalType": "uint256",
          "name": "priceInWei",
          "type": "uint256"
        }
      ],
      "name": "setRentalPrice",
      "outputs": [],
      "stateMutability": "nonpayable",
      "type": "function"
    },
    {
      "inputs": [
        {
          "internalType": "uint256",
          "name": "tokenId",
          "type": "uint256"
        },
        {
          "internalType": "uint256",
          "name": "rentExpirationDateInMillis",
          "type": "uint256"
        }
      ],
      "name": "rentAsset",
      "outputs": [],
      "stateMutability": "payable",
      "type": "function"
    },
    {
      "inputs": [
        {
          "internalType": "address",
          "name": "renter",
          "type": "address"
        },
        {
          "internalType": "uint256",
          "name": "tokenId",
          "type": "uint256"
        },
        {
          "internalType": "uint256",
          "name": "rentExpirationDateInMillis",
          "type": "uint256"
        }
      ],
      "name": "rentAsset",
      "outputs": [],
      "stateMutability": "nonpayable",
      "type": "function"
    },
    {
      "inputs": [
        {
          "internalType": "address",
          "name": "from",
          "type": "address"
        },
        {
          "internalType": "address",
          "name": "to",
          "type": "address"
        },
        {
          "internalType": "uint256",
          "name": "tokenId",
          "type": "uint256"
        }
      ],
      "name": "transferOwnershipLicense",
      "outputs": [],
      "stateMutability": "nonpayable",
      "type": "function"
    },
    {
      "inputs": [
        {
          "internalType": "uint256",
          "name": "tokenId",
          "type": "uint256"
        },
        {
          "internalType": "address",
          "name": "to",
          "type": "address"
        }
      ],
      "name": "transferOwnershipLicense",
      "outputs": [],
      "stateMutability": "nonpayable",
      "type": "function"
    },
    {
      "inputs": [
        {
          "internalType": "uint256",
          "name": "tokenId",
          "type": "uint256"
        }
      ],
      "name": "obtainOwnershipLicense",
      "outputs": [],
      "stateMutability": "payable",
      "type": "function"
    },
    {
      "inputs": [
        {
          "internalType": "uint256",
          "name": "tokenId",
          "type": "uint256"
        },
        {
          "internalType": "address",
          "name": "to",
          "type": "address"
        }
      ],
      "name": "transferCreativeLicense",
      "outputs": [],
      "stateMutability": "nonpayable",
      "type": "function"
    },
    {
      "inputs": [
        {
          "internalType": "address",
          "name": "from",
          "type": "address"
        },
        {
          "internalType": "address",
          "name": "to",
          "type": "address"
        },
        {
          "internalType": "uint256",
          "name": "tokenId",
          "type": "uint256"
        }
      ],
      "name": "transferCreativeLicense",
      "outputs": [],
      "stateMutability": "nonpayable",
      "type": "function"
    },
    {
      "inputs": [
        {
          "internalType": "uint256",
          "name": "tokenId",
          "type": "uint256"
        }
      ],
      "name": "obtainCreativeLicense",
      "outputs": [],
      "stateMutability": "payable",
      "type": "function"
    }
  ],
  "bytecode": "0x60806040523480156200001157600080fd5b506040516200461f3803806200461f833981016040819052620000349162000268565b8251839083906200004d906000906020850190620000f5565b50805162000063906001906020840190620000f5565b505050620000806200007a6200009f60201b60201c565b620000a3565b805162000095906010906020840190620000f5565b5050505062000336565b3390565b600e80546001600160a01b038381166001600160a01b0319831681179093556040519116919082907f8be0079c531659141344cd1fd0a4f28419497f9722a3daafe3b4186f6b6457e090600090a35050565b8280546200010390620002f9565b90600052602060002090601f01602090048101928262000127576000855562000172565b82601f106200014257805160ff191683800117855562000172565b8280016001018555821562000172579182015b828111156200017257825182559160200191906001019062000155565b506200018092915062000184565b5090565b5b8082111562000180576000815560010162000185565b634e487b7160e01b600052604160045260246000fd5b600082601f830112620001c357600080fd5b81516001600160401b0380821115620001e057620001e06200019b565b604051601f8301601f19908116603f011681019082821181831017156200020b576200020b6200019b565b816040528381526020925086838588010111156200022857600080fd5b600091505b838210156200024c57858201830151818301840152908201906200022d565b838211156200025e5760008385830101525b9695505050505050565b6000806000606084860312156200027e57600080fd5b83516001600160401b03808211156200029657600080fd5b620002a487838801620001b1565b94506020860151915080821115620002bb57600080fd5b620002c987838801620001b1565b93506040860151915080821115620002e057600080fd5b50620002ef86828701620001b1565b9150509250925092565b600181811c908216806200030e57607f821691505b602082108114156200033057634e487b7160e01b600052602260045260246000fd5b50919050565b6142d980620003466000396000f3fe6080604052600436106102bb5760003560e01c80638da5cb5b1161016e578063c588ea5c116100cb578063ec2b20ac1161007f578063f2fde38b11610064578063f2fde38b146107aa578063f3e4198e146107ca578063f9de1d83146107ea57600080fd5b8063ec2b20ac1461076a578063ef1e00e01461078a57600080fd5b8063c87b56dd116100b0578063c87b56dd146106e1578063de8e7bab14610701578063e985e9c51461072157600080fd5b8063c588ea5c146106a1578063c66130d7146106c157600080fd5b8063a333818c11610122578063afe9a4ff11610107578063afe9a4ff1461065b578063b042ce941461066e578063bf0a660b1461068157600080fd5b8063a333818c1461060e578063aad1b6171461063b57600080fd5b80639940a11a116101535780639940a11a146105ae5780639f2cd0e4146105ce578063a22cb465146105ee57600080fd5b80638da5cb5b1461057b57806395d89b411461059957600080fd5b80634cd5ca8e1161021c5780636f902516116101d057806379b66eb7116101b557806379b66eb71461051b5780638c4b5a921461053b5780638d6cf8bc1461055b57600080fd5b80636f902516146104e6578063715018a61461050657600080fd5b80636352211e116102015780636352211e1461049157806369bb4dc2146104b15780636ebd773d146104c657600080fd5b80634cd5ca8e14610443578063606428f71461047157600080fd5b8063224157ea1161027357806325dc12641161025857806325dc1264146103e35780633c734234146104035780634909d94e1461042357600080fd5b8063224157ea1461039157806325d8a358146103b157600080fd5b8063081812fc116102a4578063081812fc14610317578063095ea7b31461034f5780630b97be961461037157600080fd5b806301ffc9a7146102c057806306fdde03146102f5575b600080fd5b3480156102cc57600080fd5b506102e06102db366004613c54565b6107fd565b60405190151581526020015b60405180910390f35b34801561030157600080fd5b5061030a6108c1565b6040516102ec9190613cc9565b34801561032357600080fd5b50610337610332366004613cdc565b610953565b6040516001600160a01b0390911681526020016102ec565b34801561035b57600080fd5b5061036f61036a366004613d11565b6109d6565b005b34801561037d57600080fd5b5061036f61038c366004613d51565b610b2f565b34801561039d57600080fd5b506103376103ac366004613cdc565b610be3565b3480156103bd57600080fd5b506103d16103cc366004613cdc565b610c6e565b60405160ff90911681526020016102ec565b3480156103ef57600080fd5b5061036f6103fe366004613e2d565b610c79565b34801561040f57600080fd5b5061036f61041e366004613d51565b610c90565b34801561042f57600080fd5b5061036f61043e366004613e2d565b610d3e565b34801561044f57600080fd5b5061046361045e366004613e69565b610deb565b6040519081526020016102ec565b34801561047d57600080fd5b5061046361048c366004613e84565b610e85565b34801561049d57600080fd5b506103376104ac366004613cdc565b611205565b3480156104bd57600080fd5b50610463611290565b3480156104d257600080fd5b5061036f6104e1366004613e84565b6112a0565b3480156104f257600080fd5b50610463610501366004613cdc565b6113d8565b34801561051257600080fd5b5061036f611455565b34801561052757600080fd5b5061036f610536366004613eb0565b6114bb565b34801561054757600080fd5b5061036f610556366004613e2d565b6115d1565b34801561056757600080fd5b5061036f610576366004613e84565b6115ec565b34801561058757600080fd5b50600e546001600160a01b0316610337565b3480156105a557600080fd5b5061030a611707565b3480156105ba57600080fd5b506104636105c9366004613ee3565b611716565b3480156105da57600080fd5b5061036f6105e9366004613e2d565b61180b565b3480156105fa57600080fd5b5061036f610609366004613f88565b6118b8565b34801561061a57600080fd5b5061062e610629366004613cdc565b6118c7565b6040516102ec9190613fc4565b34801561064757600080fd5b50610463610656366004613e69565b611933565b61036f610669366004613cdc565b6119bb565b61036f61067c366004613eb0565b611c80565b34801561068d57600080fd5b5061046361069c366004613cdc565b612010565b3480156106ad57600080fd5b506103d16106bc366004613cdc565b61208d565b3480156106cd57600080fd5b506104636106dc366004613e69565b612098565b3480156106ed57600080fd5b5061030a6106fc366004613cdc565b612132565b34801561070d57600080fd5b5061036f61071c366004613eb0565b612288565b34801561072d57600080fd5b506102e061073c366004614011565b6001600160a01b039182166000908152600c6020908152604080832093909416825291909152205460ff1690565b34801561077657600080fd5b5061036f610785366004613eb0565b61239e565b34801561079657600080fd5b506104636107a5366004613cdc565b6124b4565b3480156107b657600080fd5b5061036f6107c5366004613e69565b612531565b3480156107d657600080fd5b5061036f6107e536600461403b565b612613565b61036f6107f8366004613cdc565b61261e565b60007fffffffff000000000000000000000000000000000000000000000000000000008216158061086f57507fffffffff0000000000000000000000000000000000000000000000000000000082167f5b5e139f00000000000000000000000000000000000000000000000000000000145b806108bb57507f01ffc9a7000000000000000000000000000000000000000000000000000000007fffffffff000000000000000000000000000000000000000000000000000000008316145b92915050565b6060600080546108d09061406e565b80601f01602080910402602001604051908101604052809291908181526020018280546108fc9061406e565b80156109495780601f1061091e57610100808354040283529160200191610949565b820191906000526020600020905b81548152906001019060200180831161092c57829003601f168201915b5050505050905090565b600061095e826129b3565b6109ba5760405162461bcd60e51b815260206004820152602260248201527f455243313139303a2054686520746f6b656e20646f6573206e6f7420657869736044820152613a1760f11b60648201526084015b60405180910390fd5b506000908152600960205260409020546001600160a01b031690565b60006109e182611205565b9050806001600160a01b0316836001600160a01b03161415610a6b5760405162461bcd60e51b815260206004820152602a60248201527f455243313139303a2043616e6e6f7420617070726f766520746865206375727260448201527f656e74206f776e65722e0000000000000000000000000000000000000000000060648201526084016109b1565b336001600160a01b0382161480610a875750610a87813361073c565b610b1f5760405162461bcd60e51b815260206004820152605060248201527f455243313139303a205468652073656e646572206973206e656974686572207460448201527f6865206f776e6572206f662074686520746f6b656e206e6f7220617070726f7660648201527f656420746f206d616e6167652069742e00000000000000000000000000000000608482015260a4016109b1565b610b2a8184846129f2565b505050565b610b393383612a5b565b610bd15760405162461bcd60e51b815260206004820152604a60248201527f455243313139303a205468652073656e646572206973206e656974686572207460448201527f6865206f776e6572206e6f7220617070726f76656420746f206d616e6167652060648201527f74686520746f6b656e2e00000000000000000000000000000000000000000000608482015260a4016109b1565b610bdd84848484612b3b565b50505050565b6000818152600360205260408120546001600160a01b0316806108bb5760405162461bcd60e51b815260206004820152603460248201527f455243313139303a204e6f626f647920686173206372656174697665206f776e60448201527f657273686970206f76657220746f6b656e49642e00000000000000000000000060648201526084016109b1565b60006108bb82612bc6565b610b2a838383604051806020016040528060008152505b610c9a3383612c3e565b610d325760405162461bcd60e51b815260206004820152605360248201527f455243313139303a205468652073656e646572206973206e656974686572207460448201527f6865206372656174697665206f776e6572206e6f7220617070726f766564207460648201527f6f206d616e6167652074686520746f6b656e2e00000000000000000000000000608482015260a4016109b1565b610bdd84848484612cab565b610d483382612a5b565b610de05760405162461bcd60e51b815260206004820152604a60248201527f455243313139303a205468652073656e646572206973206e656974686572207460448201527f6865206f776e6572206e6f7220617070726f76656420746f206d616e6167652060648201527f74686520746f6b656e2e00000000000000000000000000000000000000000000608482015260a4016109b1565b610b2a838383612cc2565b60006001600160a01b038216610e695760405162461bcd60e51b815260206004820152603260248201527f455243313139303a2063726561746976654f776e65722063616e6e6f7420626560448201527f20746865207a65726f20616464726573732e000000000000000000000000000060648201526084016109b1565b506001600160a01b031660009081526007602052604090205490565b6000610e90836129b3565b610ee75760405162461bcd60e51b815260206004820152602260248201527f455243313139303a2054686520746f6b656e20646f6573206e6f7420657869736044820152613a1760f11b60648201526084016109b1565b6001600160a01b038216610f515760405162461bcd60e51b815260206004820152602b60248201527f455243313139303a2072656e7465722063616e6e6f7420626520746865207a6560448201526a39379030b2323932b9b99760a91b60648201526084016109b1565b60008381526004602090815260408083206001600160a01b0386168452909152902054610fe65760405162461bcd60e51b815260206004820152602d60248201527f455243313139303a205468652072656e74657220686173206e6f742072656e7460448201527f65642074686520746f6b656e2e0000000000000000000000000000000000000060648201526084016109b1565b60008381526004602090815260408083206001600160a01b0386168452909152902054611015426103e86140bf565b8110156111db5760008481526004602090815260408083206001600160a01b03871684529091528120819055805b6000868152600560205260409020548110801561105e575081155b156111aa57600086815260056020526040902080546001600160a01b03871691908390811061108f5761108f6140de565b6000918252602090912001546001600160a01b0316141561119857600086815260056020526040902080546110c6906001906140f4565b815481106110d6576110d66140de565b60009182526020808320909101548883526005909152604090912080546001600160a01b03909216918390811061110f5761110f6140de565b6000918252602080832091909101805473ffffffffffffffffffffffffffffffffffffffff19166001600160a01b0394909416939093179092558781526005909152604090208054806111645761116461410b565b6000828152602090208101600019908101805473ffffffffffffffffffffffffffffffffffffffff19169055019055600191505b806111a281614121565b915050611043565b506001600160a01b03841660009081526008602052604081208054600192906111d49084906140f4565b9091555050505b505060009182526004602090815260408084206001600160a01b0393909316845291905290205490565b6000818152600260205260408120546001600160a01b0316806108bb5760405162461bcd60e51b815260206004820152602b60248201527f455243313139303a204e6f626f647920686173206f776e657273686970206f7660448201527f657220746f6b656e49642e00000000000000000000000000000000000000000060648201526084016109b1565b600061129b600f5490565b905090565b6001600160a01b0381166113425760405162461bcd60e51b815260206004820152604a60248201527f455243313139305472616461626c653a2043616e6e6f74207472616e7366657260448201527f20746865204372656174697665206c6963656e736520746f20746865207a657260648201527f6f20616464726573732e00000000000000000000000000000000000000000000608482015260a4016109b1565b600061134d83610be3565b9050336001600160a01b038216146113cd5760405162461bcd60e51b815260206004820152603e60248201527f455243313139305472616461626c653a205468652073656e64657220646f657360448201527f206e6f74206f776e20746865206372656174697665206c6963656e73652e000060648201526084016109b1565b610b2a81838561180b565b60006113e3826129b3565b6114425760405162461bcd60e51b815260206004820152602a60248201527f455243313139305472616461626c653a2054686520746f6b656e20646f6573206044820152693737ba1032bc34b9ba1760b11b60648201526084016109b1565b5060009081526012602052604090205490565b600e546001600160a01b031633146114af5760405162461bcd60e51b815260206004820181905260248201527f4f776e61626c653a2063616c6c6572206973206e6f7420746865206f776e657260448201526064016109b1565b6114b96000612eca565b565b6114c4826129b3565b6115235760405162461bcd60e51b815260206004820152602a60248201527f455243313139305472616461626c653a2054686520746f6b656e20646f6573206044820152693737ba1032bc34b9ba1760b11b60648201526084016109b1565b600081116115bf5760405162461bcd60e51b815260206004820152604360248201527f455243313139305472616461626c653a20546865206f776e657273686970206c60448201527f6963656e736520636f7374206d7573742062652067726561746572207468616e60648201527f20302e0000000000000000000000000000000000000000000000000000000000608482015260a4016109b1565b60009182526011602052604090912055565b610b2a83838360405180602001604052806000815250610b2f565b6001600160a01b03811661167c5760405162461bcd60e51b815260206004820152604b60248201527f455243313139305472616461626c653a2043616e6e6f74207472616e7366657260448201527f20746865204f776e657273686970206c6963656e736520746f20746865207a6560648201526a39379030b2323932b9b99760a91b608482015260a4016109b1565b600061168783611205565b9050336001600160a01b038216146113cd5760405162461bcd60e51b815260206004820152603f60248201527f455243313139305472616461626c653a205468652073656e64657220646f657360448201527f206e6f74206f776e20746865206f776e657273686970206c6963656e73652e0060648201526084016109b1565b6060600180546108d09061406e565b600e546000906001600160a01b031633146117735760405162461bcd60e51b815260206004820181905260248201527f4f776e61626c653a2063616c6c6572206973206e6f7420746865206f776e657260448201526064016109b1565b611781600f80546001019055565b600061178c600f5490565b90506117988782612f29565b6117a381878761312f565b6117ae8185856131a8565b604080516001600160a01b038916815260ff86811660208301528516818301526060810183905290517fd3df8e557dd2db4e6ed42c0bc93d8dceae1dae9bd0d8bfa2c69d68759fceab539181900360800190a19695505050505050565b6118153382612c3e565b6118ad5760405162461bcd60e51b815260206004820152605360248201527f455243313139303a205468652073656e646572206973206e656974686572207460448201527f6865206372656174697665206f776e6572206e6f7220617070726f766564207460648201527f6f206d616e6167652074686520746f6b656e2e00000000000000000000000000608482015260a4016109b1565b610b2a838383613332565b6118c333838361353a565b5050565b60008181526005602090815260409182902080548351818402810184019094528084526060939283018282801561192757602002820191906000526020600020905b81546001600160a01b03168152600190910190602001808311611909575b50505050509050919050565b60006001600160a01b03821661199f5760405162461bcd60e51b815260206004820152602b60248201527f455243313139303a2072656e7465722063616e6e6f7420626520746865207a6560448201526a39379030b2323932b9b99760a91b60648201526084016109b1565b506001600160a01b031660009081526008602052604090205490565b6119c4816129b3565b611a235760405162461bcd60e51b815260206004820152602a60248201527f455243313139305472616461626c653a2054686520746f6b656e20646f6573206044820152693737ba1032bc34b9ba1760b11b60648201526084016109b1565b600081815260126020526040902054611aca5760405162461bcd60e51b815260206004820152604a60248201527f455243313139305472616461626c653a20546865206372656174697665206c6960448201527f63656e7365206f66207468697320746f6b656e2063616e6e6f7420626520747260648201527f616e736665727265642e00000000000000000000000000000000000000000000608482015260a4016109b1565b600081815260126020526040902054341015611b9a5760405162461bcd60e51b815260206004820152606b60248201527f455243313139305472616461626c653a2054686520616d6f756e74206f66207760448201527f65692073656e74206973206e6f742073756666696369656e7420666f72206f6260648201527f7461696e696e6720746865206372656174697665206c6963656e7365206f662060848201527f7468697320746f6b656e2e00000000000000000000000000000000000000000060a482015260c4016109b1565b33611c335760405162461bcd60e51b815260206004820152604a60248201527f455243313139305472616461626c653a2043616e6e6f74207472616e7366657260448201527f20746865206372656174697665206c6963656e736520746f20746865207a657260648201527f6f20616464726573732e00000000000000000000000000000000000000000000608482015260a4016109b1565b6000611c3e82610be3565b9050611c4b81338461180b565b6040516001600160a01b038216903480156108fc02916000818181858888f19350505050158015610b2a573d6000803e3d6000fd5b611c89826129b3565b611ce85760405162461bcd60e51b815260206004820152602a60248201527f455243313139305472616461626c653a2054686520746f6b656e20646f6573206044820152693737ba1032bc34b9ba1760b11b60648201526084016109b1565b600082815260136020526040902054611d8f5760405162461bcd60e51b815260206004820152604160248201527f455243313139305472616461626c653a205468652061737365742072656c617460448201527f656420746f207468697320746f6b656e206973206e6f742072656e7461626c6560648201527f2e00000000000000000000000000000000000000000000000000000000000000608482015260a4016109b1565b600042611d9e6103e88461413c565b611da891906140f4565b905060008111611e205760405162461bcd60e51b815260206004820152603260248201527f455243313139305472616461626c653a205468652072656e74616c2074696d6560448201527f206d75737420626520706f7369746976652e000000000000000000000000000060648201526084016109b1565b600083815260136020526040812054611e3990836140bf565b905080341015611ed75760405162461bcd60e51b815260206004820152605560248201527f455243313139305472616461626c653a2054686520616d6f756e74206f66207760448201527f65692073656e74206973206e6f742073756666696369656e7420746f20636f7660648201527f6572207468652072656e7420657870656e7365732e0000000000000000000000608482015260a4016109b1565b6000611ee285611205565b90506000611eef86610be3565b9050611efc338787612613565b806001600160a01b0316826001600160a01b03161415611f51576040516001600160a01b038316903480156108fc02916000818181858888f19350505050158015611f4b573d6000803e3d6000fd5b50612008565b6000611f5c87613628565b90506001600160a01b0383166108fc6064611f77848261415e565b611f849060ff16346140bf565b611f8e919061413c565b6040518115909202916000818181858888f19350505050158015611fb6573d6000803e3d6000fd5b506001600160a01b0382166108fc6064611fd360ff8516346140bf565b611fdd919061413c565b6040518115909202916000818181858888f19350505050158015612005573d6000803e3d6000fd5b50505b505050505050565b600061201b826129b3565b61207a5760405162461bcd60e51b815260206004820152602a60248201527f455243313139305472616461626c653a2054686520746f6b656e20646f6573206044820152693737ba1032bc34b9ba1760b11b60648201526084016109b1565b5060009081526013602052604090205490565b60006108bb82613628565b60006001600160a01b0382166121165760405162461bcd60e51b815260206004820152602a60248201527f455243313139303a206f776e65722063616e6e6f7420626520746865207a657260448201527f6f20616464726573732e0000000000000000000000000000000000000000000060648201526084016109b1565b506001600160a01b031660009081526006602052604090205490565b606061213d826129b3565b6121945760405162461bcd60e51b815260206004820152602260248201527f455243313139303a2054686520746f6b656e20646f6573206e6f7420657869736044820152613a1760f11b60648201526084016109b1565b6000828152600d6020526040812080546121ad9061406e565b9050116122225760405162461bcd60e51b815260206004820152602960248201527f455243313139303a204e6f2066696c65206173736f63696174656420746f207460448201527f686520746f6b656e2e000000000000000000000000000000000000000000000060648201526084016109b1565b600061222c6136a0565b9050600081511161224c5760405180602001604052806000815250612281565b80600d6000858152602001908152602001600020604051602001612271929190614181565b6040516020818303038152906040525b9392505050565b612291826129b3565b6122f05760405162461bcd60e51b815260206004820152602a60248201527f455243313139305472616461626c653a2054686520746f6b656e20646f6573206044820152693737ba1032bc34b9ba1760b11b60648201526084016109b1565b6000811161238c5760405162461bcd60e51b815260206004820152604260248201527f455243313139305472616461626c653a20546865206372656174697665206c6960448201527f63656e736520636f7374206d7573742062652067726561746572207468616e2060648201527f302e000000000000000000000000000000000000000000000000000000000000608482015260a4016109b1565b60009182526012602052604090912055565b6123a7826129b3565b6124065760405162461bcd60e51b815260206004820152602a60248201527f455243313139305472616461626c653a2054686520746f6b656e20646f6573206044820152693737ba1032bc34b9ba1760b11b60648201526084016109b1565b600081116124a25760405162461bcd60e51b815260206004820152604360248201527f455243313139305472616461626c653a205468652072656e74616c20636f737460448201527f20706572207365636f6e64206d7573742062652067726561746572207468616e60648201527f20302e0000000000000000000000000000000000000000000000000000000000608482015260a4016109b1565b60009182526013602052604090912055565b60006124bf826129b3565b61251e5760405162461bcd60e51b815260206004820152602a60248201527f455243313139305472616461626c653a2054686520746f6b656e20646f6573206044820152693737ba1032bc34b9ba1760b11b60648201526084016109b1565b5060009081526011602052604090205490565b600e546001600160a01b0316331461258b5760405162461bcd60e51b815260206004820181905260248201527f4f776e61626c653a2063616c6c6572206973206e6f7420746865206f776e657260448201526064016109b1565b6001600160a01b0381166126075760405162461bcd60e51b815260206004820152602660248201527f4f776e61626c653a206e6577206f776e657220697320746865207a65726f206160448201527f646472657373000000000000000000000000000000000000000000000000000060648201526084016109b1565b61261081612eca565b50565b610b2a8383836136af565b612627816129b3565b6126865760405162461bcd60e51b815260206004820152602a60248201527f455243313139305472616461626c653a2054686520746f6b656e20646f6573206044820152693737ba1032bc34b9ba1760b11b60648201526084016109b1565b60008181526011602052604090205461272d5760405162461bcd60e51b815260206004820152604b60248201527f455243313139305472616461626c653a20546865206f776e657273686970206c60448201527f6963656e7365206f66207468697320746f6b656e2063616e6e6f74206265207460648201527f72616e736665727265642e000000000000000000000000000000000000000000608482015260a4016109b1565b6000818152601160205260409020543410156127fd5760405162461bcd60e51b815260206004820152606c60248201527f455243313139305472616461626c653a2054686520616d6f756e74206f66207760448201527f65692073656e74206973206e6f742073756666696369656e7420666f72206f6260648201527f7461696e696e6720746865206f776e657273686970206c6963656e7365206f6660848201527f207468697320746f6b656e2e000000000000000000000000000000000000000060a482015260c4016109b1565b336128845760405162461bcd60e51b815260206004820152604b60248201527f455243313139305472616461626c653a2043616e6e6f74207472616e7366657260448201527f20746865206f776e657273686970206c6963656e736520746f20746865207a6560648201526a39379030b2323932b9b99760a91b608482015260a4016109b1565b600061288f82611205565b9050600061289c83610be3565b90506128a9823385610d3e565b806001600160a01b0316826001600160a01b031614156128f8576040516001600160a01b038316903480156108fc02916000818181858888f19350505050158015610bdd573d6000803e3d6000fd5b600061290384612bc6565b90506001600160a01b0383166108fc606461291e848261415e565b61292b9060ff16346140bf565b612935919061413c565b6040518115909202916000818181858888f1935050505015801561295d573d6000803e3d6000fd5b506001600160a01b0382166108fc606461297a60ff8516346140bf565b612984919061413c565b6040518115909202916000818181858888f193505050501580156129ac573d6000803e3d6000fd5b5050505050565b6000818152600260205260408120546001600160a01b0316158015906108bb5750506000908152600360205260409020546001600160a01b0316151590565b600081815260096020526040808220805473ffffffffffffffffffffffffffffffffffffffff19166001600160a01b0386811691821790925591518493918716917f8c5be1e5ebec7d5bd14f71427d1e84f3dd0314c0f7b2291e5b200ac8c7c3b92591a4505050565b6000612a66826129b3565b612abd5760405162461bcd60e51b815260206004820152602260248201527f455243313139303a2054686520746f6b656e20646f6573206e6f7420657869736044820152613a1760f11b60648201526084016109b1565b6000612ac883611205565b9050806001600160a01b0316846001600160a01b03161480612b035750836001600160a01b0316612af884610953565b6001600160a01b0316145b80612b3357506001600160a01b038082166000908152600c602090815260408083209388168352929052205460ff165b949350505050565b612b46848484612cc2565b612b528484848461383c565b610bdd576040805162461bcd60e51b81526020600482015260248101919091527f455243313139303a205472616e7366657220746f20636f6e7472616374206e6f60448201527f7420696d706c656d656e74696e6720494552433131393052656365697665722e60648201526084016109b1565b6000612bd1826129b3565b612c285760405162461bcd60e51b815260206004820152602260248201527f455243313139303a2054686520746f6b656e20646f6573206e6f7420657869736044820152613a1760f11b60648201526084016109b1565b506000908152600b602052604090205460ff1690565b6000612c49826129b3565b612ca05760405162461bcd60e51b815260206004820152602260248201527f455243313139303a2054686520746f6b656e20646f6573206e6f7420657869736044820152613a1760f11b60648201526084016109b1565b6000612ac883610be3565b612cb6848484613332565b612b52848484846139dc565b6000612ccd82611205565b9050836001600160a01b0316816001600160a01b031614612d7c5760405162461bcd60e51b815260206004820152604260248201527f455243313139303a2043616e6e6f74207472616e7366657220746865206f776e60448201527f657273686970206c6963656e7365206966206974206973206e6f74206f776e6560648201527f642e000000000000000000000000000000000000000000000000000000000000608482015260a4016109b1565b6001600160a01b038316612df85760405162461bcd60e51b815260206004820152602d60248201527f455243313139303a2043616e6e6f74207472616e7366657220746f207468652060448201527f7a65726f20616464726573732e0000000000000000000000000000000000000060648201526084016109b1565b612e04816000846129f2565b6001600160a01b0384166000908152600660205260408120805460019290612e2d9084906140f4565b90915550506001600160a01b0383166000908152600660205260408120805460019290612e5b908490614232565b9091555050600082815260026020526040808220805473ffffffffffffffffffffffffffffffffffffffff19166001600160a01b0387811691821790925591518593918816917fe80a6bc7d5973fd4e185e65f6809de784f12b41b6e342e215b7d37669cd3cc7f91a450505050565b600e80546001600160a01b0383811673ffffffffffffffffffffffffffffffffffffffff19831681179093556040519116919082907f8be0079c531659141344cd1fd0a4f28419497f9722a3daafe3b4186f6b6457e090600090a35050565b6001600160a01b038216612fa55760405162461bcd60e51b815260206004820152602760248201527f455243313139303a20746f2063616e6e6f7420626520746865207a65726f206160448201527f6464726573732e0000000000000000000000000000000000000000000000000060648201526084016109b1565b612fae816129b3565b156130215760405162461bcd60e51b815260206004820152602260248201527f455243313139303a2054686520746f6b656e20616c726561647920657869737460448201527f732e00000000000000000000000000000000000000000000000000000000000060648201526084016109b1565b6001600160a01b038216600090815260066020526040812080546001929061304a908490614232565b90915550506001600160a01b0382166000908152600760205260408120805460019290613078908490614232565b9091555050600081815260026020908152604080832080546001600160a01b03871673ffffffffffffffffffffffffffffffffffffffff199182168117909255600390935281842080549093168117909255518392907fe80a6bc7d5973fd4e185e65f6809de784f12b41b6e342e215b7d37669cd3cc7f908290a460405181906001600160a01b038416906000907f17e7f9521d748f438723d107c498592c030975fd52ce9ca0ff758b7b96cb36ca908290a45050565b613138836129b3565b61318f5760405162461bcd60e51b815260206004820152602260248201527f455243313139303a2054686520746f6b656e20646f6573206e6f7420657869736044820152613a1760f11b60648201526084016109b1565b6000838152600d60205260409020610bdd908383613b8d565b6131b1836129b3565b6132085760405162461bcd60e51b815260206004820152602260248201527f455243313139303a2054686520746f6b656e20646f6573206e6f7420657869736044820152613a1760f11b60648201526084016109b1565b60648260ff1611156132825760405162461bcd60e51b815260206004820152603160248201527f455243313139303a20526f79616c747920666f722072656e74616c206f75742060448201527f6f662072616e6765205b302c3130305d2e00000000000000000000000000000060648201526084016109b1565b60648160ff1611156132fc5760405162461bcd60e51b815260206004820152603d60248201527f455243313139303a20526f79616c747920666f72206f776e657273686970207460448201527f72616e73666572206f7574206f662072616e6765205b302c3130305d2e00000060648201526084016109b1565b6000928352600a60209081526040808520805460ff1990811660ff96871617909155600b90925290932080549093169116179055565b600061333d82610be3565b9050836001600160a01b0316816001600160a01b0316146133ec5760405162461bcd60e51b815260206004820152604260248201527f455243313139303a2043616e6e6f74207472616e7366657220746865206f776e60448201527f657273686970206c6963656e7365206966206974206973206e6f74206f776e6560648201527f642e000000000000000000000000000000000000000000000000000000000000608482015260a4016109b1565b6001600160a01b0383166134685760405162461bcd60e51b815260206004820152602d60248201527f455243313139303a2043616e6e6f74207472616e7366657220746f207468652060448201527f7a65726f20616464726573732e0000000000000000000000000000000000000060648201526084016109b1565b613474816000846129f2565b6001600160a01b038416600090815260076020526040812080546001929061349d9084906140f4565b90915550506001600160a01b03831660009081526007602052604081208054600192906134cb908490614232565b9091555050600082815260036020526040808220805473ffffffffffffffffffffffffffffffffffffffff19166001600160a01b0387811691821790925591518593918816917f17e7f9521d748f438723d107c498592c030975fd52ce9ca0ff758b7b96cb36ca91a450505050565b816001600160a01b0316836001600160a01b031614156135c25760405162461bcd60e51b815260206004820152602c60248201527f455243313139303a20546865206f776e65722063616e6e6f7420617070726f7660448201527f6520746865697273656c662e000000000000000000000000000000000000000060648201526084016109b1565b6001600160a01b038381166000818152600c6020908152604080832094871680845294909152808220805460ff19168615159081179091559051909392917f17307eab39ab6107e8899845ad3d59bd9653f200f220920489ca2b5937696c3191a4505050565b6000613633826129b3565b61368a5760405162461bcd60e51b815260206004820152602260248201527f455243313139303a2054686520746f6b656e20646f6573206e6f7420657869736044820152613a1760f11b60648201526084016109b1565b506000908152600a602052604090205460ff1690565b6060601080546108d09061406e565b6001600160a01b0383166137195760405162461bcd60e51b815260206004820152602b60248201527f455243313139303a2072656e7465722063616e6e6f7420626520746865207a6560448201526a39379030b2323932b9b99760a91b60648201526084016109b1565b613722826129b3565b6137795760405162461bcd60e51b815260206004820152602260248201527f455243313139303a2054686520746f6b656e20646f6573206e6f7420657869736044820152613a1760f11b60648201526084016109b1565b60008281526004602090815260408083206001600160a01b0387168085529083528184208590558584526005835281842080546001818101835591865284862001805473ffffffffffffffffffffffffffffffffffffffff191683179055908452600890925282208054919290916137f2908490614232565b909155505060405181815282906001600160a01b038516907fbde1f9520db9dbbe765a8fa71cf09322ecafa1c2ac591112fe5b2f137549d6de9060200160405180910390a3505050565b60006001600160a01b0384163b156139d1576040517f6b6ea7610000000000000000000000000000000000000000000000000000000081526001600160a01b03851690636b6ea7619061389990339089908890889060040161424a565b6020604051808303816000875af19250505080156138d4575060408051601f3d908101601f191682019092526138d191810190614286565b60015b613986573d808015613902576040519150601f19603f3d011682016040523d82523d6000602084013e613907565b606091505b50805161397e576040805162461bcd60e51b81526020600482015260248101919091527f455243313139303a205472616e7366657220746f20636f6e7472616374206e6f60448201527f7420696d706c656d656e74696e6720494552433131393052656365697665722e60648201526084016109b1565b805181602001fd5b7fffffffff00000000000000000000000000000000000000000000000000000000167f6b6ea76100000000000000000000000000000000000000000000000000000000149050612b33565b506001949350505050565b60006001600160a01b0384163b156139d1576040517f996206e00000000000000000000000000000000000000000000000000000000081526001600160a01b0385169063996206e090613a3990339089908890889060040161424a565b6020604051808303816000875af1925050508015613a74575060408051601f3d908101601f19168201909252613a7191810190614286565b60015b613b42573d808015613aa2576040519150601f19603f3d011682016040523d82523d6000602084013e613aa7565b606091505b50805161397e5760405162461bcd60e51b815260206004820152605560248201527f455243313139303a205472696564207472616e7366657220746f20636f6e747260448201527f616374206e6f7420696d706c656d656e74696e6720494552433131393043726560648201527f61746976654c6963656e736552656365697665722e0000000000000000000000608482015260a4016109b1565b7fffffffff00000000000000000000000000000000000000000000000000000000167f996206e000000000000000000000000000000000000000000000000000000000149050612b33565b828054613b999061406e565b90600052602060002090601f016020900481019282613bbb5760008555613c01565b82601f10613bd45782800160ff19823516178555613c01565b82800160010185558215613c01579182015b82811115613c01578235825591602001919060010190613be6565b50613c0d929150613c11565b5090565b5b80821115613c0d5760008155600101613c12565b7fffffffff000000000000000000000000000000000000000000000000000000008116811461261057600080fd5b600060208284031215613c6657600080fd5b813561228181613c26565b60005b83811015613c8c578181015183820152602001613c74565b83811115610bdd5750506000910152565b60008151808452613cb5816020860160208601613c71565b601f01601f19169290920160200192915050565b6020815260006122816020830184613c9d565b600060208284031215613cee57600080fd5b5035919050565b80356001600160a01b0381168114613d0c57600080fd5b919050565b60008060408385031215613d2457600080fd5b613d2d83613cf5565b946020939093013593505050565b634e487b7160e01b600052604160045260246000fd5b60008060008060808587031215613d6757600080fd5b613d7085613cf5565b9350613d7e60208601613cf5565b925060408501359150606085013567ffffffffffffffff80821115613da257600080fd5b818701915087601f830112613db657600080fd5b813581811115613dc857613dc8613d3b565b604051601f8201601f19908116603f01168101908382118183101715613df057613df0613d3b565b816040528281528a6020848701011115613e0957600080fd5b82602086016020830137600060208483010152809550505050505092959194509250565b600080600060608486031215613e4257600080fd5b613e4b84613cf5565b9250613e5960208501613cf5565b9150604084013590509250925092565b600060208284031215613e7b57600080fd5b61228182613cf5565b60008060408385031215613e9757600080fd5b82359150613ea760208401613cf5565b90509250929050565b60008060408385031215613ec357600080fd5b50508035926020909101359150565b803560ff81168114613d0c57600080fd5b600080600080600060808688031215613efb57600080fd5b613f0486613cf5565b9450602086013567ffffffffffffffff80821115613f2157600080fd5b818801915088601f830112613f3557600080fd5b813581811115613f4457600080fd5b896020828501011115613f5657600080fd5b602083019650809550505050613f6e60408701613ed2565b9150613f7c60608701613ed2565b90509295509295909350565b60008060408385031215613f9b57600080fd5b613fa483613cf5565b915060208301358015158114613fb957600080fd5b809150509250929050565b6020808252825182820181905260009190848201906040850190845b818110156140055783516001600160a01b031683529284019291840191600101613fe0565b50909695505050505050565b6000806040838503121561402457600080fd5b61402d83613cf5565b9150613ea760208401613cf5565b60008060006060848603121561405057600080fd5b61405984613cf5565b95602085013595506040909401359392505050565b600181811c9082168061408257607f821691505b602082108114156140a357634e487b7160e01b600052602260045260246000fd5b50919050565b634e487b7160e01b600052601160045260246000fd5b60008160001904831182151516156140d9576140d96140a9565b500290565b634e487b7160e01b600052603260045260246000fd5b600082821015614106576141066140a9565b500390565b634e487b7160e01b600052603160045260246000fd5b6000600019821415614135576141356140a9565b5060010190565b60008261415957634e487b7160e01b600052601260045260246000fd5b500490565b600060ff821660ff841680821015614178576141786140a9565b90039392505050565b6000835160206141948285838901613c71565b845491840191600090600181811c90808316806141b257607f831692505b8583108114156141d057634e487b7160e01b85526022600452602485fd5b8080156141e457600181146141f557614222565b60ff19851688528388019550614222565b60008b81526020902060005b8581101561421a5781548a820152908401908801614201565b505083880195505b50939a9950505050505050505050565b60008219821115614245576142456140a9565b500190565b60006001600160a01b0380871683528086166020840152508360408301526080606083015261427c6080830184613c9d565b9695505050505050565b60006020828403121561429857600080fd5b815161228181613c2656fea2646970667358221220d29da13dce23c6ba426c0f0216a48a63d45d801c464d72a2e28522bce1ba870364736f6c634300080b0033",
  "immutableReferences": {},
  "source": "// SPDX-License-Identifier: MIT\npragma solidity >=0.4.22 <0.9.0;\n\nimport \"./ERC1190.sol\";\nimport \"@openzeppelin/contracts/utils/Counters.sol\";\nimport \"@openzeppelin/contracts/access/Ownable.sol\";\n\n/**\n * @dev Implementation of ERC1190 with payable methods.\n */\ncontract ERC1190Tradable is ERC1190, Ownable {\n    using Counters for Counters.Counter;\n    Counters.Counter private _tokenIds;\n\n    event TokenMinted(\n        address creator,\n        uint8 royaltyForRental,\n        uint8 royaltyForOwnershipTransfer,\n        uint256 tokenId\n    );\n\n    // Base URI\n    string private _base;\n\n    // The price in wei of each token that can be owned.\n    mapping(uint256 => uint256) private _ownershipPrice;\n\n    // The price in wei of each token that can be creative owned.\n    mapping(uint256 => uint256) private _creativePrice;\n\n    // The price in wei of each token that can be rented.\n    mapping(uint256 => uint256) private _rentalPrice;\n\n    /**\n     * @dev See {ERC1190-constructor}.\n     */\n    constructor(\n        string memory tokenName,\n        string memory tokenSymbol,\n        string memory tokenBaseUri\n    ) ERC1190(tokenName, tokenSymbol) {\n        _base = tokenBaseUri;\n    }\n\n    function availableTokens() external view returns (uint256) {\n        return _tokenIds.current();\n    }\n\n    function ownershipPriceOf(uint256 tokenId) external view returns (uint256) {\n        require(_exists(tokenId), \"ERC1190Tradable: The token does not exist.\");\n\n        return _ownershipPrice[tokenId];\n    }\n\n    function creativeOwnershipPriceOf(uint256 tokenId) external view returns (uint256) {\n        require(_exists(tokenId), \"ERC1190Tradable: The token does not exist.\");\n        \n        return _creativePrice[tokenId];\n    }\n\n    function rentalPriceOf(uint256 tokenId) external view returns (uint256) {\n        require(_exists(tokenId), \"ERC1190Tradable: The token does not exist.\");\n        \n        return _rentalPrice[tokenId];\n    }\n\n    /**\n     * See {ERC1190-_baseURI}.\n     */\n    function _baseURI() internal view virtual override returns (string memory) {\n        return _base;\n    }\n\n    /**\n     * @dev Generates a new token and assigns its ownership and creative\n     * license to `creator`.\n     * The royalties are set via `rentalRoyalty` and `ownershipTransferRoyalty`.\n     */\n    function mint(\n        address creator,\n        string calldata file,\n        uint8 rentalRoyalty,\n        uint8 ownershipTransferRoyalty\n    ) external onlyOwner returns (uint256) {\n        _tokenIds.increment();\n\n        uint256 newItemId = _tokenIds.current();\n        super._mint(creator, newItemId);\n        super._associateFile(newItemId, file);\n        super._setRoyalties(\n            newItemId,\n            rentalRoyalty,\n            ownershipTransferRoyalty\n        );\n\n        emit TokenMinted(creator, rentalRoyalty, ownershipTransferRoyalty, newItemId);\n\n        return newItemId;\n    }\n\n    /**\n     * @dev Sets the price for acquiring property of the ownership license of token\n     * `tokenId`.\n     *\n     * Requirements:\n     *\n     * - `tokenId` must exist.\n     * - `priceInWei` must be greater than 0.\n     */\n    function setOwnershipLicensePrice(uint256 tokenId, uint256 priceInWei)\n        external\n    {\n        require(\n            super._exists(tokenId),\n            \"ERC1190Tradable: The token does not exist.\"\n        );\n\n        require(\n            priceInWei > 0,\n            \"ERC1190Tradable: The ownership license cost must be greater than 0.\"\n        );\n\n        _ownershipPrice[tokenId] = priceInWei;\n    }\n\n    /**\n     * @dev Sets the price for acquiring property of the creative license of token\n     * `tokenId`.\n     *\n     * Requirements:\n     *\n     * - `tokenId` must exist.\n     * - `priceInWei` must be greater than 0.\n     */\n    function setCreativeLicensePrice(uint256 tokenId, uint256 priceInWei)\n        external\n    {\n        require(\n            super._exists(tokenId),\n            \"ERC1190Tradable: The token does not exist.\"\n        );\n\n        require(\n            priceInWei > 0,\n            \"ERC1190Tradable: The creative license cost must be greater than 0.\"\n        );\n\n        _creativePrice[tokenId] = priceInWei;\n    }\n\n    /**\n     * @dev Sets the price for renting `tokenId` for 1 second.\n     *\n     * Requirements:\n     *\n     * - `tokenId` must exist.\n     * - `priceInWei` must be greater than 0.\n     */\n    function setRentalPrice(uint256 tokenId, uint256 priceInWei) external {\n        require(\n            super._exists(tokenId),\n            \"ERC1190Tradable: The token does not exist.\"\n        );\n\n        require(\n            priceInWei > 0,\n            \"ERC1190Tradable: The rental cost per second must be greater than 0.\"\n        );\n\n        _rentalPrice[tokenId] = priceInWei;\n    }\n\n    /**\n     * @dev Rents the token `tokenId` for a total amount of `rentExpirationDateInMillis` ms.\n     *\n     * Requirements:\n     *\n     * - `tokenId` must exist.\n     * - A rental price must have been set via {setRentalPrice}.\n     * - `rentExpirationDateInMillis` should correspond to a future date.\n     * - the sent money should be enough to cover the renting expenses.\n     */\n    function rentAsset(uint256 tokenId, uint256 rentExpirationDateInMillis)\n        external\n        payable\n    {\n        require(\n            super._exists(tokenId),\n            \"ERC1190Tradable: The token does not exist.\"\n        );\n\n        require(\n            _rentalPrice[tokenId] > 0,\n            \"ERC1190Tradable: The asset related to this token is not rentable.\"\n        );\n\n        uint256 rentTimeInSeconds = (rentExpirationDateInMillis / 1000) -\n            block.timestamp;\n\n        require(\n            rentTimeInSeconds > 0,\n            \"ERC1190Tradable: The rental time must be positive.\"\n        );\n\n        uint256 rentalTotalPrice = rentTimeInSeconds * _rentalPrice[tokenId];\n\n        require(\n            msg.value >= rentalTotalPrice,\n            \"ERC1190Tradable: The amount of wei sent is not sufficient to cover the rent expenses.\"\n        );\n\n        address payable owner = payable(super.ownerOf(tokenId));\n        address payable creativeOwner = payable(super.creativeOwnerOf(tokenId));\n\n        super.rentAsset(\n            super._msgSender(),\n            tokenId,\n            rentExpirationDateInMillis\n        );\n\n        if (owner == creativeOwner) {\n            owner.transfer(msg.value);\n        } else {\n            uint8 royalty = super._royaltyForRental(tokenId);\n\n            owner.transfer((msg.value * (100 - royalty)) / 100);\n            creativeOwner.transfer((msg.value * royalty) / 100);\n        }\n    }\n\n    /**\n     * @dev Transfers the ownership license from the current owner to the account `to`.\n     *\n     * Requirements:\n     *\n     * - `tokenId` must exist.\n     * - the sender of the request must be the owner.\n     * - the receiver account `to` must not be the zero address.\n     */\n    function transferOwnershipLicense(uint256 tokenId, address to) external {\n        require(\n            to != address(0),\n            \"ERC1190Tradable: Cannot transfer the Ownership license to the zero address.\"\n        );\n\n        address owner = super.ownerOf(tokenId);\n\n        require(\n            super._msgSender() == owner,\n            \"ERC1190Tradable: The sender does not own the ownership license.\"\n        );\n\n        super.transferCreativeLicense(owner, to, tokenId);\n    }\n\n    /**\n     * @dev Transfers the ownership license from the current owner to the sender of the request.\n     *\n     * Requirements:\n     *\n     * - `tokenId` must exist.\n     * - A ownership license price must have been set via {setOwnershipLicensePrice}.\n     * - the sent money should be enough to cover the license expense.\n     */\n    function obtainOwnershipLicense(uint256 tokenId) external payable {\n        require(\n            super._exists(tokenId),\n            \"ERC1190Tradable: The token does not exist.\"\n        );\n\n        require(\n            _ownershipPrice[tokenId] > 0,\n            \"ERC1190Tradable: The ownership license of this token cannot be transferred.\"\n        );\n\n        require(\n            msg.value >= _ownershipPrice[tokenId],\n            \"ERC1190Tradable: The amount of wei sent is not sufficient for obtaining the ownership license of this token.\"\n        );\n\n        require(\n            super._msgSender() != address(0),\n            \"ERC1190Tradable: Cannot transfer the ownership license to the zero address.\"\n        );\n\n        address payable owner = payable(super.ownerOf(tokenId));\n        address payable creativeOwner = payable(super.creativeOwnerOf(tokenId));\n\n        super.transferOwnershipLicense(owner, super._msgSender(), tokenId);\n\n        if (owner == creativeOwner) {\n            owner.transfer(msg.value);\n        } else {\n            uint8 royalty = super._royaltyForOwnershipTransfer(tokenId);\n            owner.transfer((msg.value * (100 - royalty)) / 100);\n            creativeOwner.transfer((msg.value * royalty) / 100);\n        }\n    }\n\n    /**\n     * @dev Transfers the creative license from the current creative owner to the account `to`.\n     *\n     * Requirements:\n     *\n     * - `tokenId` must exist.\n     * - the sender of the request must be the creative owner.\n     * - the receiver account `to` must not be the zero address.\n     */\n    function transferCreativeLicense(uint256 tokenId, address to) external {\n        require(\n            to != address(0),\n            \"ERC1190Tradable: Cannot transfer the Creative license to the zero address.\"\n        );\n\n        address creativeOwner = super.creativeOwnerOf(tokenId);\n\n        require(\n            super._msgSender() == creativeOwner,\n            \"ERC1190Tradable: The sender does not own the creative license.\"\n        );\n\n        super.transferCreativeLicense(creativeOwner, to, tokenId);\n    }\n\n    /**\n     * @dev Transfers the creative license from the current owner to the sender of the request.\n     *\n     * Requirements:\n     *\n     * - `tokenId` must exist.\n     * - A creative license price must have been set via {setCreativeLicensePrice}.\n     * - the sent money should be enough to cover the license expense.\n     */\n    function obtainCreativeLicense(uint256 tokenId) external payable {\n        require(\n            super._exists(tokenId),\n            \"ERC1190Tradable: The token does not exist.\"\n        );\n\n        require(\n            _creativePrice[tokenId] > 0,\n            \"ERC1190Tradable: The creative license of this token cannot be transferred.\"\n        );\n\n        require(\n            msg.value >= _creativePrice[tokenId],\n            \"ERC1190Tradable: The amount of wei sent is not sufficient for obtaining the creative license of this token.\"\n        );\n\n        require(\n            super._msgSender() != address(0),\n            \"ERC1190Tradable: Cannot transfer the creative license to the zero address.\"\n        );\n\n        address payable creativeOwner = payable(super.creativeOwnerOf(tokenId));\n\n        super.transferCreativeLicense(\n            creativeOwner,\n            super._msgSender(),\n            tokenId\n        );\n\n        creativeOwner.transfer(msg.value);\n    }\n}\n",
  "sourcePath": "non-fungible-royalty-token/contracts/ERC1190Tradable.sol",
  "compiler": {
    "name": "solc",
    "version": "0.8.11+commit.d7f03943.Emscripten.clang"
  },
  "schemaVersion": "3.4.4",
  "updatedAt": "2022-01-31T12:29:54.152Z",
  "devdoc": {
    "details": "Implementation of ERC1190 with payable methods.",
    "kind": "dev",
    "methods": {
      "approve(address,uint256)": {
        "details": "See {IERC1190-approve}."
      },
      "balanceOfCreativeOwner(address)": {
        "details": "See {IERC1190-balanceOfCreativeOwner}."
      },
      "balanceOfOwner(address)": {
        "details": "See {IERC1190-balanceOfOwner}."
      },
      "balanceOfRenter(address)": {
        "details": "See {IERC1190-balanceOfRenter}."
      },
      "constructor": {
        "details": "See {ERC1190-constructor}."
      },
      "creativeOwnerOf(uint256)": {
        "details": "See {IERC1190-creativeOwnerOf}."
      },
      "getApproved(uint256)": {
        "details": "See {IERC1190-getApproved}."
      },
      "getRented(uint256,address)": {
        "details": "See {IERC1190-getRented}."
      },
      "isApprovedForAll(address,address)": {
        "details": "See {IERC1190-isApprovedForAll}."
      },
      "mint(address,string,uint8,uint8)": {
        "details": "Generates a new token and assigns its ownership and creative license to `creator`. The royalties are set via `rentalRoyalty` and `ownershipTransferRoyalty`."
      },
      "name()": {
        "details": "See {IERC1190Metadata-name}."
      },
      "obtainCreativeLicense(uint256)": {
        "details": "Transfers the creative license from the current owner to the sender of the request. Requirements: - `tokenId` must exist. - A creative license price must have been set via {setCreativeLicensePrice}. - the sent money should be enough to cover the license expense."
      },
      "obtainOwnershipLicense(uint256)": {
        "details": "Transfers the ownership license from the current owner to the sender of the request. Requirements: - `tokenId` must exist. - A ownership license price must have been set via {setOwnershipLicensePrice}. - the sent money should be enough to cover the license expense."
      },
      "owner()": {
        "details": "Returns the address of the current owner."
      },
      "ownerOf(uint256)": {
        "details": "See {IERC1190-ownerOf}."
      },
      "renounceOwnership()": {
        "details": "Leaves the contract without owner. It will not be possible to call `onlyOwner` functions anymore. Can only be called by the current owner. NOTE: Renouncing ownership will leave the contract without an owner, thereby removing any functionality that is only available to the owner."
      },
      "rentAsset(address,uint256,uint256)": {
        "details": "See {IERC1190-rentAsset}."
      },
      "rentAsset(uint256,uint256)": {
        "details": "Rents the token `tokenId` for a total amount of `rentExpirationDateInMillis` ms. Requirements: - `tokenId` must exist. - A rental price must have been set via {setRentalPrice}. - `rentExpirationDateInMillis` should correspond to a future date. - the sent money should be enough to cover the renting expenses."
      },
      "rentersOf(uint256)": {
        "details": "See {IERC1190-rentersOf}."
      },
      "safeTransferCreativeLicense(address,address,uint256)": {
        "details": "See {IERC1190-safeTransferCreativeLicense}."
      },
      "safeTransferCreativeLicense(address,address,uint256,bytes)": {
        "details": "See {IERC1190-safeTransferCreativeLicense}."
      },
      "safeTransferOwnershipLicense(address,address,uint256)": {
        "details": "See {IERC1190-safeTransferOwnershipLicense}."
      },
      "safeTransferOwnershipLicense(address,address,uint256,bytes)": {
        "details": "See {IERC1190-safeTransferOwnershipLicense}."
      },
      "setApprovalForAll(address,bool)": {
        "details": "See {IERC1190-setApprovalForAll}."
      },
      "setCreativeLicensePrice(uint256,uint256)": {
        "details": "Sets the price for acquiring property of the creative license of token `tokenId`. Requirements: - `tokenId` must exist. - `priceInWei` must be greater than 0."
      },
      "setOwnershipLicensePrice(uint256,uint256)": {
        "details": "Sets the price for acquiring property of the ownership license of token `tokenId`. Requirements: - `tokenId` must exist. - `priceInWei` must be greater than 0."
      },
      "setRentalPrice(uint256,uint256)": {
        "details": "Sets the price for renting `tokenId` for 1 second. Requirements: - `tokenId` must exist. - `priceInWei` must be greater than 0."
      },
      "supportsInterface(bytes4)": {
        "details": "See {IERC165-supportsInterface}."
      },
      "symbol()": {
        "details": "See {IERC1190Metadata-symbol}."
      },
      "tokenURI(uint256)": {
        "details": "See {IERC1190Metadata-tokenURI}."
      },
      "transferCreativeLicense(address,address,uint256)": {
        "details": "See {IERC1190-transferCreativeLicense}."
      },
      "transferCreativeLicense(uint256,address)": {
        "details": "Transfers the creative license from the current creative owner to the account `to`. Requirements: - `tokenId` must exist. - the sender of the request must be the creative owner. - the receiver account `to` must not be the zero address."
      },
      "transferOwnership(address)": {
        "details": "Transfers ownership of the contract to a new account (`newOwner`). Can only be called by the current owner."
      },
      "transferOwnershipLicense(address,address,uint256)": {
        "details": "See {IERC1190-transferOwnershipLicense}."
      },
      "transferOwnershipLicense(uint256,address)": {
        "details": "Transfers the ownership license from the current owner to the account `to`. Requirements: - `tokenId` must exist. - the sender of the request must be the owner. - the receiver account `to` must not be the zero address."
      }
    },
    "version": 1
  },
  "userdoc": {
    "kind": "user",
    "methods": {},
    "version": 1
  }
}