{
  "contractName": "ERC1190Tradable",
  "abi": [
    {
      "inputs": [
        {
          "internalType": "string",
          "name": "tokenName",
          "type": "string"
        },
        {
          "internalType": "string",
          "name": "tokenSymbol",
          "type": "string"
        },
        {
          "internalType": "string",
          "name": "tokenBaseUri",
          "type": "string"
        }
      ],
      "stateMutability": "nonpayable",
      "type": "constructor"
    },
    {
      "anonymous": false,
      "inputs": [
        {
          "indexed": true,
          "internalType": "address",
          "name": "owner",
          "type": "address"
        },
        {
          "indexed": true,
          "internalType": "address",
          "name": "approved",
          "type": "address"
        },
        {
          "indexed": true,
          "internalType": "uint256",
          "name": "tokenId",
          "type": "uint256"
        }
      ],
      "name": "Approval",
      "type": "event"
    },
    {
      "anonymous": false,
      "inputs": [
        {
          "indexed": true,
          "internalType": "address",
          "name": "owner",
          "type": "address"
        },
        {
          "indexed": true,
          "internalType": "address",
          "name": "operator",
          "type": "address"
        },
        {
          "indexed": true,
          "internalType": "bool",
          "name": "approved",
          "type": "bool"
        }
      ],
      "name": "ApprovalForAll",
      "type": "event"
    },
    {
      "anonymous": false,
      "inputs": [
        {
          "indexed": true,
          "internalType": "address",
          "name": "renter",
          "type": "address"
        },
        {
          "indexed": true,
          "internalType": "uint256",
          "name": "tokenId",
          "type": "uint256"
        },
        {
          "indexed": false,
          "internalType": "uint256",
          "name": "rentExpirationDateInMillis",
          "type": "uint256"
        }
      ],
      "name": "AssetRented",
      "type": "event"
    },
    {
      "anonymous": false,
      "inputs": [
        {
          "indexed": true,
          "internalType": "address",
          "name": "previousOwner",
          "type": "address"
        },
        {
          "indexed": true,
          "internalType": "address",
          "name": "newOwner",
          "type": "address"
        }
      ],
      "name": "OwnershipTransferred",
      "type": "event"
    },
    {
      "anonymous": false,
      "inputs": [
        {
          "indexed": true,
          "internalType": "address",
          "name": "from",
          "type": "address"
        },
        {
          "indexed": true,
          "internalType": "address",
          "name": "to",
          "type": "address"
        },
        {
          "indexed": true,
          "internalType": "uint256",
          "name": "tokenId",
          "type": "uint256"
        }
      ],
      "name": "TransferCreativeLicense",
      "type": "event"
    },
    {
      "anonymous": false,
      "inputs": [
        {
          "indexed": true,
          "internalType": "address",
          "name": "from",
          "type": "address"
        },
        {
          "indexed": true,
          "internalType": "address",
          "name": "to",
          "type": "address"
        },
        {
          "indexed": true,
          "internalType": "uint256",
          "name": "tokenId",
          "type": "uint256"
        }
      ],
      "name": "TransferOwnershipLicense",
      "type": "event"
    },
    {
      "inputs": [
        {
          "internalType": "address",
          "name": "to",
          "type": "address"
        },
        {
          "internalType": "uint256",
          "name": "tokenId",
          "type": "uint256"
        }
      ],
      "name": "approve",
      "outputs": [],
      "stateMutability": "nonpayable",
      "type": "function"
    },
    {
      "inputs": [
        {
          "internalType": "address",
          "name": "creativeOwner",
          "type": "address"
        }
      ],
      "name": "balanceOfCreativeOwner",
      "outputs": [
        {
          "internalType": "uint256",
          "name": "",
          "type": "uint256"
        }
      ],
      "stateMutability": "view",
      "type": "function"
    },
    {
      "inputs": [
        {
          "internalType": "address",
          "name": "owner",
          "type": "address"
        }
      ],
      "name": "balanceOfOwner",
      "outputs": [
        {
          "internalType": "uint256",
          "name": "",
          "type": "uint256"
        }
      ],
      "stateMutability": "view",
      "type": "function"
    },
    {
      "inputs": [
        {
          "internalType": "address",
          "name": "renter",
          "type": "address"
        }
      ],
      "name": "balanceOfRenter",
      "outputs": [
        {
          "internalType": "uint256",
          "name": "",
          "type": "uint256"
        }
      ],
      "stateMutability": "view",
      "type": "function"
    },
    {
      "inputs": [
        {
          "internalType": "uint256",
          "name": "tokenId",
          "type": "uint256"
        }
      ],
      "name": "creativeOwnerOf",
      "outputs": [
        {
          "internalType": "address",
          "name": "",
          "type": "address"
        }
      ],
      "stateMutability": "view",
      "type": "function"
    },
    {
      "inputs": [
        {
          "internalType": "uint256",
          "name": "tokenId",
          "type": "uint256"
        }
      ],
      "name": "getApproved",
      "outputs": [
        {
          "internalType": "address",
          "name": "",
          "type": "address"
        }
      ],
      "stateMutability": "view",
      "type": "function"
    },
    {
      "inputs": [
        {
          "internalType": "uint256",
          "name": "tokenId",
          "type": "uint256"
        },
        {
          "internalType": "address",
          "name": "renter",
          "type": "address"
        }
      ],
      "name": "getRented",
      "outputs": [
        {
          "internalType": "uint256",
          "name": "",
          "type": "uint256"
        }
      ],
      "stateMutability": "nonpayable",
      "type": "function"
    },
    {
      "inputs": [
        {
          "internalType": "address",
          "name": "owner",
          "type": "address"
        },
        {
          "internalType": "address",
          "name": "operator",
          "type": "address"
        }
      ],
      "name": "isApprovedForAll",
      "outputs": [
        {
          "internalType": "bool",
          "name": "",
          "type": "bool"
        }
      ],
      "stateMutability": "view",
      "type": "function"
    },
    {
      "inputs": [],
      "name": "name",
      "outputs": [
        {
          "internalType": "string",
          "name": "",
          "type": "string"
        }
      ],
      "stateMutability": "view",
      "type": "function"
    },
    {
      "inputs": [],
      "name": "owner",
      "outputs": [
        {
          "internalType": "address",
          "name": "",
          "type": "address"
        }
      ],
      "stateMutability": "view",
      "type": "function"
    },
    {
      "inputs": [
        {
          "internalType": "uint256",
          "name": "tokenId",
          "type": "uint256"
        }
      ],
      "name": "ownerOf",
      "outputs": [
        {
          "internalType": "address",
          "name": "",
          "type": "address"
        }
      ],
      "stateMutability": "view",
      "type": "function"
    },
    {
      "inputs": [],
      "name": "renounceOwnership",
      "outputs": [],
      "stateMutability": "nonpayable",
      "type": "function"
    },
    {
      "inputs": [
        {
          "internalType": "uint256",
          "name": "tokenId",
          "type": "uint256"
        }
      ],
      "name": "rentersOf",
      "outputs": [
        {
          "internalType": "address[]",
          "name": "",
          "type": "address[]"
        }
      ],
      "stateMutability": "view",
      "type": "function"
    },
    {
      "inputs": [
        {
          "internalType": "address",
          "name": "from",
          "type": "address"
        },
        {
          "internalType": "address",
          "name": "to",
          "type": "address"
        },
        {
          "internalType": "uint256",
          "name": "tokenId",
          "type": "uint256"
        }
      ],
      "name": "safeTransferCreativeLicense",
      "outputs": [],
      "stateMutability": "nonpayable",
      "type": "function"
    },
    {
      "inputs": [
        {
          "internalType": "address",
          "name": "from",
          "type": "address"
        },
        {
          "internalType": "address",
          "name": "to",
          "type": "address"
        },
        {
          "internalType": "uint256",
          "name": "tokenId",
          "type": "uint256"
        },
        {
          "internalType": "bytes",
          "name": "data",
          "type": "bytes"
        }
      ],
      "name": "safeTransferCreativeLicense",
      "outputs": [],
      "stateMutability": "nonpayable",
      "type": "function"
    },
    {
      "inputs": [
        {
          "internalType": "address",
          "name": "from",
          "type": "address"
        },
        {
          "internalType": "address",
          "name": "to",
          "type": "address"
        },
        {
          "internalType": "uint256",
          "name": "tokenId",
          "type": "uint256"
        },
        {
          "internalType": "bytes",
          "name": "data",
          "type": "bytes"
        }
      ],
      "name": "safeTransferOwnershipLicense",
      "outputs": [],
      "stateMutability": "nonpayable",
      "type": "function"
    },
    {
      "inputs": [
        {
          "internalType": "address",
          "name": "from",
          "type": "address"
        },
        {
          "internalType": "address",
          "name": "to",
          "type": "address"
        },
        {
          "internalType": "uint256",
          "name": "tokenId",
          "type": "uint256"
        }
      ],
      "name": "safeTransferOwnershipLicense",
      "outputs": [],
      "stateMutability": "nonpayable",
      "type": "function"
    },
    {
      "inputs": [
        {
          "internalType": "address",
          "name": "operator",
          "type": "address"
        },
        {
          "internalType": "bool",
          "name": "approved",
          "type": "bool"
        }
      ],
      "name": "setApprovalForAll",
      "outputs": [],
      "stateMutability": "nonpayable",
      "type": "function"
    },
    {
      "inputs": [
        {
          "internalType": "bytes4",
          "name": "interfaceId",
          "type": "bytes4"
        }
      ],
      "name": "supportsInterface",
      "outputs": [
        {
          "internalType": "bool",
          "name": "",
          "type": "bool"
        }
      ],
      "stateMutability": "view",
      "type": "function"
    },
    {
      "inputs": [],
      "name": "symbol",
      "outputs": [
        {
          "internalType": "string",
          "name": "",
          "type": "string"
        }
      ],
      "stateMutability": "view",
      "type": "function"
    },
    {
      "inputs": [
        {
          "internalType": "uint256",
          "name": "tokenId",
          "type": "uint256"
        }
      ],
      "name": "tokenURI",
      "outputs": [
        {
          "internalType": "string",
          "name": "",
          "type": "string"
        }
      ],
      "stateMutability": "view",
      "type": "function"
    },
    {
      "inputs": [
        {
          "internalType": "address",
          "name": "newOwner",
          "type": "address"
        }
      ],
      "name": "transferOwnership",
      "outputs": [],
      "stateMutability": "nonpayable",
      "type": "function"
    },
    {
      "inputs": [
        {
          "internalType": "address",
          "name": "creator",
          "type": "address"
        },
        {
          "internalType": "uint8",
          "name": "royaltyForRental",
          "type": "uint8"
        },
        {
          "internalType": "uint8",
          "name": "royaltyForOwnershipTransfer",
          "type": "uint8"
        }
      ],
      "name": "mint",
      "outputs": [
        {
          "internalType": "uint256",
          "name": "",
          "type": "uint256"
        }
      ],
      "stateMutability": "nonpayable",
      "type": "function"
    },
    {
      "inputs": [
        {
          "internalType": "uint256",
          "name": "tokenId",
          "type": "uint256"
        },
        {
          "internalType": "uint256",
          "name": "priceInWei",
          "type": "uint256"
        }
      ],
      "name": "setOwnershipLicensePrice",
      "outputs": [],
      "stateMutability": "nonpayable",
      "type": "function"
    },
    {
      "inputs": [
        {
          "internalType": "uint256",
          "name": "tokenId",
          "type": "uint256"
        },
        {
          "internalType": "uint256",
          "name": "priceInWei",
          "type": "uint256"
        }
      ],
      "name": "setCreativeLicensePrice",
      "outputs": [],
      "stateMutability": "nonpayable",
      "type": "function"
    },
    {
      "inputs": [
        {
          "internalType": "uint256",
          "name": "tokenId",
          "type": "uint256"
        },
        {
          "internalType": "uint256",
          "name": "priceInWei",
          "type": "uint256"
        }
      ],
      "name": "setRentalPrice",
      "outputs": [],
      "stateMutability": "nonpayable",
      "type": "function"
    },
    {
      "inputs": [
        {
          "internalType": "uint256",
          "name": "tokenId",
          "type": "uint256"
        },
        {
          "internalType": "uint256",
          "name": "rentExpirationDateInMillis",
          "type": "uint256"
        }
      ],
      "name": "rentAsset",
      "outputs": [],
      "stateMutability": "payable",
      "type": "function"
    },
    {
      "inputs": [
        {
          "internalType": "address",
          "name": "renter",
          "type": "address"
        },
        {
          "internalType": "uint256",
          "name": "tokenId",
          "type": "uint256"
        },
        {
          "internalType": "uint256",
          "name": "rentExpirationDateInMillis",
          "type": "uint256"
        }
      ],
      "name": "rentAsset",
      "outputs": [],
      "stateMutability": "nonpayable",
      "type": "function"
    },
    {
      "inputs": [
        {
          "internalType": "address",
          "name": "from",
          "type": "address"
        },
        {
          "internalType": "address",
          "name": "to",
          "type": "address"
        },
        {
          "internalType": "uint256",
          "name": "tokenId",
          "type": "uint256"
        }
      ],
      "name": "transferOwnershipLicense",
      "outputs": [],
      "stateMutability": "nonpayable",
      "type": "function"
    },
    {
      "inputs": [
        {
          "internalType": "uint256",
          "name": "tokenId",
          "type": "uint256"
        },
        {
          "internalType": "address",
          "name": "to",
          "type": "address"
        }
      ],
      "name": "transferOwnershipLicense",
      "outputs": [],
      "stateMutability": "nonpayable",
      "type": "function"
    },
    {
      "inputs": [
        {
          "internalType": "uint256",
          "name": "tokenId",
          "type": "uint256"
        }
      ],
      "name": "obtainOwnershipLicense",
      "outputs": [],
      "stateMutability": "payable",
      "type": "function"
    },
    {
      "inputs": [
        {
          "internalType": "uint256",
          "name": "tokenId",
          "type": "uint256"
        },
        {
          "internalType": "address",
          "name": "to",
          "type": "address"
        }
      ],
      "name": "transferCreativeLicense",
      "outputs": [],
      "stateMutability": "nonpayable",
      "type": "function"
    },
    {
      "inputs": [
        {
          "internalType": "address",
          "name": "from",
          "type": "address"
        },
        {
          "internalType": "address",
          "name": "to",
          "type": "address"
        },
        {
          "internalType": "uint256",
          "name": "tokenId",
          "type": "uint256"
        }
      ],
      "name": "transferCreativeLicense",
      "outputs": [],
      "stateMutability": "nonpayable",
      "type": "function"
    },
    {
      "inputs": [
        {
          "internalType": "uint256",
          "name": "tokenId",
          "type": "uint256"
        }
      ],
      "name": "obtainCreativeLicense",
      "outputs": [],
      "stateMutability": "payable",
      "type": "function"
    }
  ],
  "bytecode": "0x60806040523480156200001157600080fd5b506040516200416938038062004169833981016040819052620000349162000268565b8251839083906200004d906000906020850190620000f5565b50805162000063906001906020840190620000f5565b505050620000806200007a6200009f60201b60201c565b620000a3565b80516200009590600f906020840190620000f5565b5050505062000336565b3390565b600d80546001600160a01b038381166001600160a01b0319831681179093556040519116919082907f8be0079c531659141344cd1fd0a4f28419497f9722a3daafe3b4186f6b6457e090600090a35050565b8280546200010390620002f9565b90600052602060002090601f01602090048101928262000127576000855562000172565b82601f106200014257805160ff191683800117855562000172565b8280016001018555821562000172579182015b828111156200017257825182559160200191906001019062000155565b506200018092915062000184565b5090565b5b8082111562000180576000815560010162000185565b634e487b7160e01b600052604160045260246000fd5b600082601f830112620001c357600080fd5b81516001600160401b0380821115620001e057620001e06200019b565b604051601f8301601f19908116603f011681019082821181831017156200020b576200020b6200019b565b816040528381526020925086838588010111156200022857600080fd5b600091505b838210156200024c57858201830151818301840152908201906200022d565b838211156200025e5760008385830101525b9695505050505050565b6000806000606084860312156200027e57600080fd5b83516001600160401b03808211156200029657600080fd5b620002a487838801620001b1565b94506020860151915080821115620002bb57600080fd5b620002c987838801620001b1565b93506040860151915080821115620002e057600080fd5b50620002ef86828701620001b1565b9150509250925092565b600181811c908216806200030e57607f821691505b602082108114156200033057634e487b7160e01b600052602260045260246000fd5b50919050565b613e2380620003466000396000f3fe6080604052600436106102195760003560e01c80638d6cf8bc1161011d578063b042ce94116100b0578063e985e9c51161007f578063f2fde38b11610064578063f2fde38b14610641578063f3e4198e14610661578063f9de1d831461068157600080fd5b8063e985e9c5146105d8578063ec2b20ac1461062157600080fd5b8063b042ce9414610565578063c66130d714610578578063c87b56dd14610598578063de8e7bab146105b857600080fd5b8063a22cb465116100ec578063a22cb465146104e5578063a333818c14610505578063aad1b61714610532578063afe9a4ff1461055257600080fd5b80638d6cf8bc146104725780638da5cb5b1461049257806395d89b41146104b05780639f2cd0e4146104c557600080fd5b80633c734234116101b05780636352211e1161017f578063715018a611610164578063715018a61461041d57806379b66eb7146104325780638c4b5a921461045257600080fd5b80636352211e146103dd5780636ebd773d146103fd57600080fd5b80633c7342341461035d5780634909d94e1461037d5780634cd5ca8e1461039d578063606428f7146103bd57600080fd5b80630b97be96116101ec5780630b97be96146102cf578063224157ea146102ef57806325dc12641461030f578063352926a81461032f57600080fd5b806301ffc9a71461021e57806306fdde0314610253578063081812fc14610275578063095ea7b3146102ad575b600080fd5b34801561022a57600080fd5b5061023e610239366004613866565b610694565b60405190151581526020015b60405180910390f35b34801561025f57600080fd5b50610268610758565b60405161024a91906138db565b34801561028157600080fd5b506102956102903660046138ee565b6107ea565b6040516001600160a01b03909116815260200161024a565b3480156102b957600080fd5b506102cd6102c8366004613923565b61086d565b005b3480156102db57600080fd5b506102cd6102ea366004613963565b6109c6565b3480156102fb57600080fd5b5061029561030a3660046138ee565b610a7a565b34801561031b57600080fd5b506102cd61032a366004613a3f565b610b05565b34801561033b57600080fd5b5061034f61034a366004613a8c565b610b20565b60405190815260200161024a565b34801561036957600080fd5b506102cd610378366004613963565b610bb5565b34801561038957600080fd5b506102cd610398366004613a3f565b610c63565b3480156103a957600080fd5b5061034f6103b8366004613acf565b610d10565b3480156103c957600080fd5b5061034f6103d8366004613aea565b610daa565b3480156103e957600080fd5b506102956103f83660046138ee565b61112a565b34801561040957600080fd5b506102cd610418366004613aea565b6111b5565b34801561042957600080fd5b506102cd6112ed565b34801561043e57600080fd5b506102cd61044d366004613b16565b611353565b34801561045e57600080fd5b506102cd61046d366004613a3f565b611469565b34801561047e57600080fd5b506102cd61048d366004613aea565b611484565b34801561049e57600080fd5b50600d546001600160a01b0316610295565b3480156104bc57600080fd5b5061026861159f565b3480156104d157600080fd5b506102cd6104e0366004613a3f565b6115ae565b3480156104f157600080fd5b506102cd610500366004613b38565b61165b565b34801561051157600080fd5b506105256105203660046138ee565b61166a565b60405161024a9190613b74565b34801561053e57600080fd5b5061034f61054d366004613acf565b6116d6565b6102cd6105603660046138ee565b61175e565b6102cd610573366004613b16565b611a23565b34801561058457600080fd5b5061034f610593366004613acf565b611db3565b3480156105a457600080fd5b506102686105b33660046138ee565b611e4d565b3480156105c457600080fd5b506102cd6105d3366004613b16565b611f0b565b3480156105e457600080fd5b5061023e6105f3366004613bc1565b6001600160a01b039182166000908152600c6020908152604080832093909416825291909152205460ff1690565b34801561062d57600080fd5b506102cd61063c366004613b16565b612021565b34801561064d57600080fd5b506102cd61065c366004613acf565b612137565b34801561066d57600080fd5b506102cd61067c366004613beb565b612219565b6102cd61068f3660046138ee565b612224565b60007fffffffff000000000000000000000000000000000000000000000000000000008216158061070657507fffffffff0000000000000000000000000000000000000000000000000000000082167f5b5e139f00000000000000000000000000000000000000000000000000000000145b8061075257507f01ffc9a7000000000000000000000000000000000000000000000000000000007fffffffff000000000000000000000000000000000000000000000000000000008316145b92915050565b60606000805461076790613c1e565b80601f016020809104026020016040519081016040528092919081815260200182805461079390613c1e565b80156107e05780601f106107b5576101008083540402835291602001916107e0565b820191906000526020600020905b8154815290600101906020018083116107c357829003601f168201915b5050505050905090565b60006107f5826125b9565b6108515760405162461bcd60e51b815260206004820152602260248201527f455243313139303a2054686520746f6b656e20646f6573206e6f7420657869736044820152613a1760f11b60648201526084015b60405180910390fd5b506000908152600960205260409020546001600160a01b031690565b60006108788261112a565b9050806001600160a01b0316836001600160a01b031614156109025760405162461bcd60e51b815260206004820152602a60248201527f455243313139303a2043616e6e6f7420617070726f766520746865206375727260448201527f656e74206f776e65722e000000000000000000000000000000000000000000006064820152608401610848565b336001600160a01b038216148061091e575061091e81336105f3565b6109b65760405162461bcd60e51b815260206004820152605060248201527f455243313139303a205468652073656e646572206973206e656974686572207460448201527f6865206f776e6572206f662074686520746f6b656e206e6f7220617070726f7660648201527f656420746f206d616e6167652069742e00000000000000000000000000000000608482015260a401610848565b6109c18184846125f8565b505050565b6109d03383612661565b610a685760405162461bcd60e51b815260206004820152604a60248201527f455243313139303a205468652073656e646572206973206e656974686572207460448201527f6865206f776e6572206e6f7220617070726f76656420746f206d616e6167652060648201527f74686520746f6b656e2e00000000000000000000000000000000000000000000608482015260a401610848565b610a748484848461273d565b50505050565b6000818152600360205260408120546001600160a01b0316806107525760405162461bcd60e51b815260206004820152603460248201527f455243313139303a204e6f626f647920686173206372656174697665206f776e60448201527f657273686970206f76657220746f6b656e49642e0000000000000000000000006064820152608401610848565b6109c183838360405180602001604052806000815250610bb5565b600d546000906001600160a01b03163314610b7d5760405162461bcd60e51b815260206004820181905260248201527f4f776e61626c653a2063616c6c6572206973206e6f7420746865206f776e65726044820152606401610848565b610b8b600e80546001019055565b6000610b96600e5490565b9050610ba285826127c8565b610bad8185856129b3565b949350505050565b610bbf3383612b46565b610c575760405162461bcd60e51b815260206004820152605360248201527f455243313139303a205468652073656e646572206973206e656974686572207460448201527f6865206372656174697665206f776e6572206e6f7220617070726f766564207460648201527f6f206d616e6167652074686520746f6b656e2e00000000000000000000000000608482015260a401610848565b610a7484848484612bb3565b610c6d3382612661565b610d055760405162461bcd60e51b815260206004820152604a60248201527f455243313139303a205468652073656e646572206973206e656974686572207460448201527f6865206f776e6572206e6f7220617070726f76656420746f206d616e6167652060648201527f74686520746f6b656e2e00000000000000000000000000000000000000000000608482015260a401610848565b6109c1838383612bca565b60006001600160a01b038216610d8e5760405162461bcd60e51b815260206004820152603260248201527f455243313139303a2063726561746976654f776e65722063616e6e6f7420626560448201527f20746865207a65726f20616464726573732e00000000000000000000000000006064820152608401610848565b506001600160a01b031660009081526007602052604090205490565b6000610db5836125b9565b610e0c5760405162461bcd60e51b815260206004820152602260248201527f455243313139303a2054686520746f6b656e20646f6573206e6f7420657869736044820152613a1760f11b6064820152608401610848565b6001600160a01b038216610e765760405162461bcd60e51b815260206004820152602b60248201527f455243313139303a2072656e7465722063616e6e6f7420626520746865207a6560448201526a39379030b2323932b9b99760a91b6064820152608401610848565b60008381526004602090815260408083206001600160a01b0386168452909152902054610f0b5760405162461bcd60e51b815260206004820152602d60248201527f455243313139303a205468652072656e74657220686173206e6f742072656e7460448201527f65642074686520746f6b656e2e000000000000000000000000000000000000006064820152608401610848565b60008381526004602090815260408083206001600160a01b0386168452909152902054610f3a426103e8613c6f565b8110156111005760008481526004602090815260408083206001600160a01b03871684529091528120819055805b60008681526005602052604090205481108015610f83575081155b156110cf57600086815260056020526040902080546001600160a01b038716919083908110610fb457610fb4613c8e565b6000918252602090912001546001600160a01b031614156110bd5760008681526005602052604090208054610feb90600190613ca4565b81548110610ffb57610ffb613c8e565b60009182526020808320909101548883526005909152604090912080546001600160a01b03909216918390811061103457611034613c8e565b6000918252602080832091909101805473ffffffffffffffffffffffffffffffffffffffff19166001600160a01b03949094169390931790925587815260059091526040902080548061108957611089613cbb565b6000828152602090208101600019908101805473ffffffffffffffffffffffffffffffffffffffff19169055019055600191505b806110c781613cd1565b915050610f68565b506001600160a01b03841660009081526008602052604081208054600192906110f9908490613ca4565b9091555050505b505060009182526004602090815260408084206001600160a01b0393909316845291905290205490565b6000818152600260205260408120546001600160a01b0316806107525760405162461bcd60e51b815260206004820152602b60248201527f455243313139303a204e6f626f647920686173206f776e657273686970206f7660448201527f657220746f6b656e49642e0000000000000000000000000000000000000000006064820152608401610848565b6001600160a01b0381166112575760405162461bcd60e51b815260206004820152604a60248201527f455243313139305472616461626c653a2043616e6e6f74207472616e7366657260448201527f20746865204372656174697665206c6963656e736520746f20746865207a657260648201527f6f20616464726573732e00000000000000000000000000000000000000000000608482015260a401610848565b600061126283610a7a565b9050336001600160a01b038216146112e25760405162461bcd60e51b815260206004820152603e60248201527f455243313139305472616461626c653a205468652073656e64657220646f657360448201527f206e6f74206f776e20746865206372656174697665206c6963656e73652e00006064820152608401610848565b6109c18183856115ae565b600d546001600160a01b031633146113475760405162461bcd60e51b815260206004820181905260248201527f4f776e61626c653a2063616c6c6572206973206e6f7420746865206f776e65726044820152606401610848565b6113516000612dd2565b565b61135c826125b9565b6113bb5760405162461bcd60e51b815260206004820152602a60248201527f455243313139305472616461626c653a2054686520746f6b656e20646f6573206044820152693737ba1032bc34b9ba1760b11b6064820152608401610848565b600081116114575760405162461bcd60e51b815260206004820152604360248201527f455243313139305472616461626c653a20546865206f776e657273686970206c60448201527f6963656e736520636f7374206d7573742062652067726561746572207468616e60648201527f20302e0000000000000000000000000000000000000000000000000000000000608482015260a401610848565b60009182526010602052604090912055565b6109c1838383604051806020016040528060008152506109c6565b6001600160a01b0381166115145760405162461bcd60e51b815260206004820152604b60248201527f455243313139305472616461626c653a2043616e6e6f74207472616e7366657260448201527f20746865204f776e657273686970206c6963656e736520746f20746865207a6560648201526a39379030b2323932b9b99760a91b608482015260a401610848565b600061151f8361112a565b9050336001600160a01b038216146112e25760405162461bcd60e51b815260206004820152603f60248201527f455243313139305472616461626c653a205468652073656e64657220646f657360448201527f206e6f74206f776e20746865206f776e657273686970206c6963656e73652e006064820152608401610848565b60606001805461076790613c1e565b6115b83382612b46565b6116505760405162461bcd60e51b815260206004820152605360248201527f455243313139303a205468652073656e646572206973206e656974686572207460448201527f6865206372656174697665206f776e6572206e6f7220617070726f766564207460648201527f6f206d616e6167652074686520746f6b656e2e00000000000000000000000000608482015260a401610848565b6109c1838383612e31565b611666338383613039565b5050565b6000818152600560209081526040918290208054835181840281018401909452808452606093928301828280156116ca57602002820191906000526020600020905b81546001600160a01b031681526001909101906020018083116116ac575b50505050509050919050565b60006001600160a01b0382166117425760405162461bcd60e51b815260206004820152602b60248201527f455243313139303a2072656e7465722063616e6e6f7420626520746865207a6560448201526a39379030b2323932b9b99760a91b6064820152608401610848565b506001600160a01b031660009081526008602052604090205490565b611767816125b9565b6117c65760405162461bcd60e51b815260206004820152602a60248201527f455243313139305472616461626c653a2054686520746f6b656e20646f6573206044820152693737ba1032bc34b9ba1760b11b6064820152608401610848565b60008181526011602052604090205461186d5760405162461bcd60e51b815260206004820152604a60248201527f455243313139305472616461626c653a20546865206372656174697665206c6960448201527f63656e7365206f66207468697320746f6b656e2063616e6e6f7420626520747260648201527f616e736665727265642e00000000000000000000000000000000000000000000608482015260a401610848565b60008181526011602052604090205434101561193d5760405162461bcd60e51b815260206004820152606b60248201527f455243313139305472616461626c653a2054686520616d6f756e74206f66207760448201527f65692073656e74206973206e6f742073756666696369656e7420666f72206f6260648201527f7461696e696e6720746865206372656174697665206c6963656e7365206f662060848201527f7468697320746f6b656e2e00000000000000000000000000000000000000000060a482015260c401610848565b336119d65760405162461bcd60e51b815260206004820152604a60248201527f455243313139305472616461626c653a2043616e6e6f74207472616e7366657260448201527f20746865206372656174697665206c6963656e736520746f20746865207a657260648201527f6f20616464726573732e00000000000000000000000000000000000000000000608482015260a401610848565b60006119e182610a7a565b90506119ee8133846115ae565b6040516001600160a01b038216903480156108fc02916000818181858888f193505050501580156109c1573d6000803e3d6000fd5b611a2c826125b9565b611a8b5760405162461bcd60e51b815260206004820152602a60248201527f455243313139305472616461626c653a2054686520746f6b656e20646f6573206044820152693737ba1032bc34b9ba1760b11b6064820152608401610848565b600082815260126020526040902054611b325760405162461bcd60e51b815260206004820152604160248201527f455243313139305472616461626c653a205468652061737365742072656c617460448201527f656420746f207468697320746f6b656e206973206e6f742072656e7461626c6560648201527f2e00000000000000000000000000000000000000000000000000000000000000608482015260a401610848565b600042611b416103e884613d02565b611b4b9190613ca4565b905060008111611bc35760405162461bcd60e51b815260206004820152603260248201527f455243313139305472616461626c653a205468652072656e74616c2074696d6560448201527f206d75737420626520706f7369746976652e00000000000000000000000000006064820152608401610848565b600083815260126020526040812054611bdc9083613c6f565b905080341015611c7a5760405162461bcd60e51b815260206004820152605560248201527f455243313139305472616461626c653a2054686520616d6f756e74206f66207760448201527f65692073656e74206973206e6f742073756666696369656e7420746f20636f7660648201527f6572207468652072656e7420657870656e7365732e0000000000000000000000608482015260a401610848565b6000611c858561112a565b90506000611c9286610a7a565b9050611c9f338787612219565b806001600160a01b0316826001600160a01b03161415611cf4576040516001600160a01b038316903480156108fc02916000818181858888f19350505050158015611cee573d6000803e3d6000fd5b50611dab565b6000611cff87613127565b90506001600160a01b0383166108fc6064611d1a8482613d16565b611d279060ff1634613c6f565b611d319190613d02565b6040518115909202916000818181858888f19350505050158015611d59573d6000803e3d6000fd5b506001600160a01b0382166108fc6064611d7660ff851634613c6f565b611d809190613d02565b6040518115909202916000818181858888f19350505050158015611da8573d6000803e3d6000fd5b50505b505050505050565b60006001600160a01b038216611e315760405162461bcd60e51b815260206004820152602a60248201527f455243313139303a206f776e65722063616e6e6f7420626520746865207a657260448201527f6f20616464726573732e000000000000000000000000000000000000000000006064820152608401610848565b506001600160a01b031660009081526006602052604090205490565b6060611e58826125b9565b611eaf5760405162461bcd60e51b815260206004820152602260248201527f455243313139303a2054686520746f6b656e20646f6573206e6f7420657869736044820152613a1760f11b6064820152608401610848565b6000611eb96131a0565b90506000815111611ed95760405180602001604052806000815250611f04565b80611ee3846131af565b604051602001611ef4929190613d39565b6040516020818303038152906040525b9392505050565b611f14826125b9565b611f735760405162461bcd60e51b815260206004820152602a60248201527f455243313139305472616461626c653a2054686520746f6b656e20646f6573206044820152693737ba1032bc34b9ba1760b11b6064820152608401610848565b6000811161200f5760405162461bcd60e51b815260206004820152604260248201527f455243313139305472616461626c653a20546865206372656174697665206c6960448201527f63656e736520636f7374206d7573742062652067726561746572207468616e2060648201527f302e000000000000000000000000000000000000000000000000000000000000608482015260a401610848565b60009182526011602052604090912055565b61202a826125b9565b6120895760405162461bcd60e51b815260206004820152602a60248201527f455243313139305472616461626c653a2054686520746f6b656e20646f6573206044820152693737ba1032bc34b9ba1760b11b6064820152608401610848565b600081116121255760405162461bcd60e51b815260206004820152604360248201527f455243313139305472616461626c653a205468652072656e74616c20636f737460448201527f20706572207365636f6e64206d7573742062652067726561746572207468616e60648201527f20302e0000000000000000000000000000000000000000000000000000000000608482015260a401610848565b60009182526012602052604090912055565b600d546001600160a01b031633146121915760405162461bcd60e51b815260206004820181905260248201527f4f776e61626c653a2063616c6c6572206973206e6f7420746865206f776e65726044820152606401610848565b6001600160a01b03811661220d5760405162461bcd60e51b815260206004820152602660248201527f4f776e61626c653a206e6577206f776e657220697320746865207a65726f206160448201527f64647265737300000000000000000000000000000000000000000000000000006064820152608401610848565b61221681612dd2565b50565b6109c18383836132e1565b61222d816125b9565b61228c5760405162461bcd60e51b815260206004820152602a60248201527f455243313139305472616461626c653a2054686520746f6b656e20646f6573206044820152693737ba1032bc34b9ba1760b11b6064820152608401610848565b6000818152601060205260409020546123335760405162461bcd60e51b815260206004820152604b60248201527f455243313139305472616461626c653a20546865206f776e657273686970206c60448201527f6963656e7365206f66207468697320746f6b656e2063616e6e6f74206265207460648201527f72616e736665727265642e000000000000000000000000000000000000000000608482015260a401610848565b6000818152601060205260409020543410156124035760405162461bcd60e51b815260206004820152606c60248201527f455243313139305472616461626c653a2054686520616d6f756e74206f66207760448201527f65692073656e74206973206e6f742073756666696369656e7420666f72206f6260648201527f7461696e696e6720746865206f776e657273686970206c6963656e7365206f6660848201527f207468697320746f6b656e2e000000000000000000000000000000000000000060a482015260c401610848565b3361248a5760405162461bcd60e51b815260206004820152604b60248201527f455243313139305472616461626c653a2043616e6e6f74207472616e7366657260448201527f20746865206f776e657273686970206c6963656e736520746f20746865207a6560648201526a39379030b2323932b9b99760a91b608482015260a401610848565b60006124958261112a565b905060006124a283610a7a565b90506124af823385610c63565b806001600160a01b0316826001600160a01b031614156124fe576040516001600160a01b038316903480156108fc02916000818181858888f19350505050158015610a74573d6000803e3d6000fd5b60006125098461346e565b90506001600160a01b0383166108fc60646125248482613d16565b6125319060ff1634613c6f565b61253b9190613d02565b6040518115909202916000818181858888f19350505050158015612563573d6000803e3d6000fd5b506001600160a01b0382166108fc606461258060ff851634613c6f565b61258a9190613d02565b6040518115909202916000818181858888f193505050501580156125b2573d6000803e3d6000fd5b5050505050565b6000818152600260205260408120546001600160a01b0316158015906107525750506000908152600360205260409020546001600160a01b0316151590565b600081815260096020526040808220805473ffffffffffffffffffffffffffffffffffffffff19166001600160a01b0386811691821790925591518493918716917f8c5be1e5ebec7d5bd14f71427d1e84f3dd0314c0f7b2291e5b200ac8c7c3b92591a4505050565b600061266c826125b9565b6126c35760405162461bcd60e51b815260206004820152602260248201527f455243313139303a2054686520746f6b656e20646f6573206e6f7420657869736044820152613a1760f11b6064820152608401610848565b60006126ce8361112a565b9050806001600160a01b0316846001600160a01b031614806127095750836001600160a01b03166126fe846107ea565b6001600160a01b0316145b80610bad57506001600160a01b038082166000908152600c602090815260408083209388168352929052205460ff16610bad565b612748848484612bca565b612754848484846134e7565b610a74576040805162461bcd60e51b81526020600482015260248101919091527f455243313139303a205472616e7366657220746f20636f6e7472616374206e6f60448201527f7420696d706c656d656e74696e6720494552433131393052656365697665722e6064820152608401610848565b6001600160a01b0382166128445760405162461bcd60e51b815260206004820152602760248201527f455243313139303a20746f2063616e6e6f7420626520746865207a65726f206160448201527f6464726573732e000000000000000000000000000000000000000000000000006064820152608401610848565b61284d816125b9565b156128a55760405162461bcd60e51b815260206004820152602260248201527f455243313139303a2054686520746f6b656e20616c7265616479206578697374604482015261399760f11b6064820152608401610848565b6001600160a01b03821660009081526006602052604081208054600192906128ce908490613d68565b90915550506001600160a01b03821660009081526007602052604081208054600192906128fc908490613d68565b9091555050600081815260026020908152604080832080546001600160a01b03871673ffffffffffffffffffffffffffffffffffffffff199182168117909255600390935281842080549093168117909255518392907fe80a6bc7d5973fd4e185e65f6809de784f12b41b6e342e215b7d37669cd3cc7f908290a460405181906001600160a01b038416906000907f17e7f9521d748f438723d107c498592c030975fd52ce9ca0ff758b7b96cb36ca908290a45050565b6129bc836125b9565b612a085760405162461bcd60e51b815260206004820152601d60248201527f455243313139303a20746f6b656e20616c7265616479206d696e7465640000006044820152606401610848565b60648260ff1611158015612a1a575060015b612a8c5760405162461bcd60e51b815260206004820152603160248201527f455243313139303a20526f79616c747920666f722072656e74616c206f75742060448201527f6f662072616e6765205b302c3130305d2e0000000000000000000000000000006064820152608401610848565b60648160ff1611158015612a9e575060015b612b105760405162461bcd60e51b815260206004820152603d60248201527f455243313139303a20526f79616c747920666f72206f776e657273686970207460448201527f72616e73666572206f7574206f662072616e6765205b302c3130305d2e0000006064820152608401610848565b6000928352600a60209081526040808520805460ff1990811660ff96871617909155600b90925290932080549093169116179055565b6000612b51826125b9565b612ba85760405162461bcd60e51b815260206004820152602260248201527f455243313139303a2054686520746f6b656e20646f6573206e6f7420657869736044820152613a1760f11b6064820152608401610848565b60006126ce83610a7a565b612bbe848484612e31565b61275484848484613687565b6000612bd58261112a565b9050836001600160a01b0316816001600160a01b031614612c845760405162461bcd60e51b815260206004820152604260248201527f455243313139303a2043616e6e6f74207472616e7366657220746865206f776e60448201527f657273686970206c6963656e7365206966206974206973206e6f74206f776e6560648201527f642e000000000000000000000000000000000000000000000000000000000000608482015260a401610848565b6001600160a01b038316612d005760405162461bcd60e51b815260206004820152602d60248201527f455243313139303a2043616e6e6f74207472616e7366657220746f207468652060448201527f7a65726f20616464726573732e000000000000000000000000000000000000006064820152608401610848565b612d0c816000846125f8565b6001600160a01b0384166000908152600660205260408120805460019290612d35908490613ca4565b90915550506001600160a01b0383166000908152600660205260408120805460019290612d63908490613d68565b9091555050600082815260026020526040808220805473ffffffffffffffffffffffffffffffffffffffff19166001600160a01b0387811691821790925591518593918816917fe80a6bc7d5973fd4e185e65f6809de784f12b41b6e342e215b7d37669cd3cc7f91a450505050565b600d80546001600160a01b0383811673ffffffffffffffffffffffffffffffffffffffff19831681179093556040519116919082907f8be0079c531659141344cd1fd0a4f28419497f9722a3daafe3b4186f6b6457e090600090a35050565b6000612e3c82610a7a565b9050836001600160a01b0316816001600160a01b031614612eeb5760405162461bcd60e51b815260206004820152604260248201527f455243313139303a2043616e6e6f74207472616e7366657220746865206f776e60448201527f657273686970206c6963656e7365206966206974206973206e6f74206f776e6560648201527f642e000000000000000000000000000000000000000000000000000000000000608482015260a401610848565b6001600160a01b038316612f675760405162461bcd60e51b815260206004820152602d60248201527f455243313139303a2043616e6e6f74207472616e7366657220746f207468652060448201527f7a65726f20616464726573732e000000000000000000000000000000000000006064820152608401610848565b612f73816000846125f8565b6001600160a01b0384166000908152600760205260408120805460019290612f9c908490613ca4565b90915550506001600160a01b0383166000908152600760205260408120805460019290612fca908490613d68565b9091555050600082815260036020526040808220805473ffffffffffffffffffffffffffffffffffffffff19166001600160a01b0387811691821790925591518593918816917f17e7f9521d748f438723d107c498592c030975fd52ce9ca0ff758b7b96cb36ca91a450505050565b816001600160a01b0316836001600160a01b031614156130c15760405162461bcd60e51b815260206004820152602c60248201527f455243313139303a20546865206f776e65722063616e6e6f7420617070726f7660448201527f6520746865697273656c662e00000000000000000000000000000000000000006064820152608401610848565b6001600160a01b038381166000818152600c6020908152604080832094871680845294909152808220805460ff19168615159081179091559051909392917f17307eab39ab6107e8899845ad3d59bd9653f200f220920489ca2b5937696c3191a4505050565b6000613132826125b9565b1561318a5760405162461bcd60e51b815260206004820152602260248201527f455243313139303a2054686520746f6b656e20616c7265616479206578697374604482015261399760f11b6064820152608401610848565b506000908152600a602052604090205460ff1690565b6060600f805461076790613c1e565b6060816131ef57505060408051808201909152600181527f3000000000000000000000000000000000000000000000000000000000000000602082015290565b8160005b8115613219578061320381613cd1565b91506132129050600a83613d02565b91506131f3565b60008167ffffffffffffffff8111156132345761323461394d565b6040519080825280601f01601f19166020018201604052801561325e576020820181803683370190505b5090505b8415610bad57613273600183613ca4565b9150613280600a86613d80565b61328b906030613d68565b60f81b8183815181106132a0576132a0613c8e565b60200101907effffffffffffffffffffffffffffffffffffffffffffffffffffffffffffff1916908160001a9053506132da600a86613d02565b9450613262565b6001600160a01b03831661334b5760405162461bcd60e51b815260206004820152602b60248201527f455243313139303a2072656e7465722063616e6e6f7420626520746865207a6560448201526a39379030b2323932b9b99760a91b6064820152608401610848565b613354826125b9565b6133ab5760405162461bcd60e51b815260206004820152602260248201527f455243313139303a2054686520746f6b656e20646f6573206e6f7420657869736044820152613a1760f11b6064820152608401610848565b60008281526004602090815260408083206001600160a01b0387168085529083528184208590558584526005835281842080546001818101835591865284862001805473ffffffffffffffffffffffffffffffffffffffff19168317905590845260089092528220805491929091613424908490613d68565b909155505060405181815282906001600160a01b038516907fbde1f9520db9dbbe765a8fa71cf09322ecafa1c2ac591112fe5b2f137549d6de9060200160405180910390a3505050565b6000613479826125b9565b156134d15760405162461bcd60e51b815260206004820152602260248201527f455243313139303a2054686520746f6b656e20616c7265616479206578697374604482015261399760f11b6064820152608401610848565b506000908152600b602052604090205460ff1690565b60006001600160a01b0384163b1561367c576040517f6b6ea7610000000000000000000000000000000000000000000000000000000081526001600160a01b03851690636b6ea76190613544903390899088908890600401613d94565b6020604051808303816000875af192505050801561357f575060408051601f3d908101601f1916820190925261357c91810190613dd0565b60015b613631573d8080156135ad576040519150601f19603f3d011682016040523d82523d6000602084013e6135b2565b606091505b508051613629576040805162461bcd60e51b81526020600482015260248101919091527f455243313139303a205472616e7366657220746f20636f6e7472616374206e6f60448201527f7420696d706c656d656e74696e6720494552433131393052656365697665722e6064820152608401610848565b805181602001fd5b7fffffffff00000000000000000000000000000000000000000000000000000000167f6b6ea76100000000000000000000000000000000000000000000000000000000149050610bad565b506001949350505050565b60006001600160a01b0384163b1561367c576040517f996206e00000000000000000000000000000000000000000000000000000000081526001600160a01b0385169063996206e0906136e4903390899088908890600401613d94565b6020604051808303816000875af192505050801561371f575060408051601f3d908101601f1916820190925261371c91810190613dd0565b60015b6137ed573d80801561374d576040519150601f19603f3d011682016040523d82523d6000602084013e613752565b606091505b5080516136295760405162461bcd60e51b815260206004820152605560248201527f455243313139303a205472696564207472616e7366657220746f20636f6e747260448201527f616374206e6f7420696d706c656d656e74696e6720494552433131393043726560648201527f61746976654c6963656e736552656365697665722e0000000000000000000000608482015260a401610848565b7fffffffff00000000000000000000000000000000000000000000000000000000167f996206e000000000000000000000000000000000000000000000000000000000149050610bad565b7fffffffff000000000000000000000000000000000000000000000000000000008116811461221657600080fd5b60006020828403121561387857600080fd5b8135611f0481613838565b60005b8381101561389e578181015183820152602001613886565b83811115610a745750506000910152565b600081518084526138c7816020860160208601613883565b601f01601f19169290920160200192915050565b602081526000611f0460208301846138af565b60006020828403121561390057600080fd5b5035919050565b80356001600160a01b038116811461391e57600080fd5b919050565b6000806040838503121561393657600080fd5b61393f83613907565b946020939093013593505050565b634e487b7160e01b600052604160045260246000fd5b6000806000806080858703121561397957600080fd5b61398285613907565b935061399060208601613907565b925060408501359150606085013567ffffffffffffffff808211156139b457600080fd5b818701915087601f8301126139c857600080fd5b8135818111156139da576139da61394d565b604051601f8201601f19908116603f01168101908382118183101715613a0257613a0261394d565b816040528281528a6020848701011115613a1b57600080fd5b82602086016020830137600060208483010152809550505050505092959194509250565b600080600060608486031215613a5457600080fd5b613a5d84613907565b9250613a6b60208501613907565b9150604084013590509250925092565b803560ff8116811461391e57600080fd5b600080600060608486031215613aa157600080fd5b613aaa84613907565b9250613ab860208501613a7b565b9150613ac660408501613a7b565b90509250925092565b600060208284031215613ae157600080fd5b611f0482613907565b60008060408385031215613afd57600080fd5b82359150613b0d60208401613907565b90509250929050565b60008060408385031215613b2957600080fd5b50508035926020909101359150565b60008060408385031215613b4b57600080fd5b613b5483613907565b915060208301358015158114613b6957600080fd5b809150509250929050565b6020808252825182820181905260009190848201906040850190845b81811015613bb55783516001600160a01b031683529284019291840191600101613b90565b50909695505050505050565b60008060408385031215613bd457600080fd5b613bdd83613907565b9150613b0d60208401613907565b600080600060608486031215613c0057600080fd5b613c0984613907565b95602085013595506040909401359392505050565b600181811c90821680613c3257607f821691505b60208210811415613c5357634e487b7160e01b600052602260045260246000fd5b50919050565b634e487b7160e01b600052601160045260246000fd5b6000816000190483118215151615613c8957613c89613c59565b500290565b634e487b7160e01b600052603260045260246000fd5b600082821015613cb657613cb6613c59565b500390565b634e487b7160e01b600052603160045260246000fd5b6000600019821415613ce557613ce5613c59565b5060010190565b634e487b7160e01b600052601260045260246000fd5b600082613d1157613d11613cec565b500490565b600060ff821660ff841680821015613d3057613d30613c59565b90039392505050565b60008351613d4b818460208801613883565b835190830190613d5f818360208801613883565b01949350505050565b60008219821115613d7b57613d7b613c59565b500190565b600082613d8f57613d8f613cec565b500690565b60006001600160a01b03808716835280861660208401525083604083015260806060830152613dc660808301846138af565b9695505050505050565b600060208284031215613de257600080fd5b8151611f048161383856fea2646970667358221220a255fefd44c7e06bf4aaab06365122bf2cdd50348d0203a296e568e5d1182ee964736f6c634300080b0033",
  "immutableReferences": {},
  "source": "// SPDX-License-Identifier: MIT\npragma solidity >=0.4.22 <0.9.0;\n\nimport \"./ERC1190.sol\";\nimport \"@openzeppelin/contracts/utils/Counters.sol\";\nimport \"@openzeppelin/contracts/access/Ownable.sol\";\n\n/**\n * @dev Implementation of ERC1190 with payable methods.\n */\ncontract ERC1190Tradable is ERC1190, Ownable {\n    using Counters for Counters.Counter;\n    Counters.Counter private _tokenIds;\n\n    // Base URI\n    string private _base;\n\n    // The price in wei of each token that can be owned.\n    mapping(uint256 => uint256) private _ownershipPrice;\n\n    // The price in wei of each token that can be creative owned.\n    mapping(uint256 => uint256) private _creativePrice;\n\n    // The price in wei of each token that can be rented.\n    mapping(uint256 => uint256) private _rentalPrice;\n\n    /**\n     * @dev See {ERC1190-constructor}.\n     */\n    constructor(string memory tokenName, string memory tokenSymbol, string memory tokenBaseUri)\n        ERC1190(tokenName, tokenSymbol)\n    {\n        _base = tokenBaseUri;\n    }\n\n    /**\n     * See {ERC1190-_baseURI}.\n     */\n    function _baseURI() internal view virtual override returns (string memory) {\n        return _base;\n    }\n\n    /**\n     * @dev Generates a new token and assigns its ownership and creative\n     * license to `creator`.\n     * The royalties are set via `royaltyForRental` and `royaltyForOwnershipTransfer`.\n     */\n    function mint(\n        address creator,\n        uint8 royaltyForRental,\n        uint8 royaltyForOwnershipTransfer\n    ) external onlyOwner returns (uint256) {\n        _tokenIds.increment();\n\n        uint256 newItemId = _tokenIds.current();\n        super._mint(creator, newItemId);\n        super._setRoyalties(\n            newItemId,\n            royaltyForRental,\n            royaltyForOwnershipTransfer\n        );\n\n        return newItemId;\n    }\n\n    /**\n     * @dev Sets the price for acquiring property of the ownership license of token\n     * `tokenId`.\n     *\n     * Requirements:\n     *\n     * - `tokenId` must exist.\n     * - `priceInWei` must be greater than 0.\n     */\n    function setOwnershipLicensePrice(uint256 tokenId, uint256 priceInWei)\n        external\n    {\n        require(\n            super._exists(tokenId),\n            \"ERC1190Tradable: The token does not exist.\"\n        );\n\n        require(\n            priceInWei > 0,\n            \"ERC1190Tradable: The ownership license cost must be greater than 0.\"\n        );\n\n        _ownershipPrice[tokenId] = priceInWei;\n    }\n\n    /**\n     * @dev Sets the price for acquiring property of the creative license of token\n     * `tokenId`.\n     *\n     * Requirements:\n     *\n     * - `tokenId` must exist.\n     * - `priceInWei` must be greater than 0.\n     */\n    function setCreativeLicensePrice(uint256 tokenId, uint256 priceInWei)\n        external\n    {\n        require(\n            super._exists(tokenId),\n            \"ERC1190Tradable: The token does not exist.\"\n        );\n\n        require(\n            priceInWei > 0,\n            \"ERC1190Tradable: The creative license cost must be greater than 0.\"\n        );\n\n        _creativePrice[tokenId] = priceInWei;\n    }\n\n    /**\n     * @dev Sets the price for renting `tokenId` for 1 second.\n     *\n     * Requirements:\n     *\n     * - `tokenId` must exist.\n     * - `priceInWei` must be greater than 0.\n     */\n    function setRentalPrice(uint256 tokenId, uint256 priceInWei) external {\n        require(\n            super._exists(tokenId),\n            \"ERC1190Tradable: The token does not exist.\"\n        );\n\n        require(\n            priceInWei > 0,\n            \"ERC1190Tradable: The rental cost per second must be greater than 0.\"\n        );\n\n        _rentalPrice[tokenId] = priceInWei;\n    }\n\n    /**\n     * @dev Rents the token `tokenId` for a total amount of `rentExpirationDateInMillis` ms.\n     *\n     * Requirements:\n     *\n     * - `tokenId` must exist.\n     * - A rental price must have been set via {setRentalPrice}.\n     * - `rentExpirationDateInMillis` should correspond to a future date.\n     * - the sent money should be enough to cover the renting expenses.\n     */\n    function rentAsset(uint256 tokenId, uint256 rentExpirationDateInMillis)\n        external\n        payable\n    {\n        require(\n            super._exists(tokenId),\n            \"ERC1190Tradable: The token does not exist.\"\n        );\n\n        require(\n            _rentalPrice[tokenId] > 0,\n            \"ERC1190Tradable: The asset related to this token is not rentable.\"\n        );\n\n        uint256 rentTimeInSeconds = (rentExpirationDateInMillis / 1000) -\n            block.timestamp;\n\n        require(\n            rentTimeInSeconds > 0,\n            \"ERC1190Tradable: The rental time must be positive.\"\n        );\n\n        uint256 rentalTotalPrice = rentTimeInSeconds * _rentalPrice[tokenId];\n\n        require(\n            msg.value >= rentalTotalPrice,\n            \"ERC1190Tradable: The amount of wei sent is not sufficient to cover the rent expenses.\"\n        );\n\n        address payable owner = payable(super.ownerOf(tokenId));\n        address payable creativeOwner = payable(super.creativeOwnerOf(tokenId));\n\n        super.rentAsset(\n            super._msgSender(),\n            tokenId,\n            rentExpirationDateInMillis\n        );\n\n        if (owner == creativeOwner) {\n            owner.transfer(msg.value);\n        } else {\n            uint8 royalty = super._royaltyForRental(tokenId);\n\n            owner.transfer((msg.value * (100 - royalty)) / 100);\n            creativeOwner.transfer((msg.value * royalty) / 100);\n        }\n    }\n\n    /**\n     * @dev Transfers the ownership license from the current owner to the account `to`.\n     *\n     * Requirements:\n     *\n     * - `tokenId` must exist.\n     * - the sender of the request must be the owner.\n     * - the receiver account `to` must not be the zero address.\n     */\n    function transferOwnershipLicense(uint256 tokenId, address to) external {\n        require(\n            to != address(0),\n            \"ERC1190Tradable: Cannot transfer the Ownership license to the zero address.\"\n        );\n\n        address owner = super.ownerOf(tokenId);\n\n        require(\n            super._msgSender() == owner,\n            \"ERC1190Tradable: The sender does not own the ownership license.\"\n        );\n\n        super.transferCreativeLicense(owner, to, tokenId);\n    }\n\n    /**\n     * @dev Transfers the ownership license from the current owner to the sender of the request.\n     *\n     * Requirements:\n     *\n     * - `tokenId` must exist.\n     * - A ownership license price must have been set via {setOwnershipLicensePrice}.\n     * - the sent money should be enough to cover the license expense.\n     */\n    function obtainOwnershipLicense(uint256 tokenId) external payable {\n        require(\n            super._exists(tokenId),\n            \"ERC1190Tradable: The token does not exist.\"\n        );\n\n        require(\n            _ownershipPrice[tokenId] > 0,\n            \"ERC1190Tradable: The ownership license of this token cannot be transferred.\"\n        );\n\n        require(\n            msg.value >= _ownershipPrice[tokenId],\n            \"ERC1190Tradable: The amount of wei sent is not sufficient for obtaining the ownership license of this token.\"\n        );\n\n        require(\n            super._msgSender() != address(0),\n            \"ERC1190Tradable: Cannot transfer the ownership license to the zero address.\"\n        );\n\n        address payable owner = payable(super.ownerOf(tokenId));\n        address payable creativeOwner = payable(super.creativeOwnerOf(tokenId));\n\n        super.transferOwnershipLicense(owner, super._msgSender(), tokenId);\n\n        if (owner == creativeOwner) {\n            owner.transfer(msg.value);\n        } else {\n            uint8 royalty = super._royaltyForOwnershipTransfer(tokenId);\n            owner.transfer((msg.value * (100 - royalty)) / 100);\n            creativeOwner.transfer((msg.value * royalty) / 100);\n        }\n    }\n\n    /**\n     * @dev Transfers the creative license from the current creative owner to the account `to`.\n     *\n     * Requirements:\n     *\n     * - `tokenId` must exist.\n     * - the sender of the request must be the creative owner.\n     * - the receiver account `to` must not be the zero address.\n     */\n    function transferCreativeLicense(uint256 tokenId, address to) external {\n        require(\n            to != address(0),\n            \"ERC1190Tradable: Cannot transfer the Creative license to the zero address.\"\n        );\n\n        address creativeOwner = super.creativeOwnerOf(tokenId);\n\n        require(\n            super._msgSender() == creativeOwner,\n            \"ERC1190Tradable: The sender does not own the creative license.\"\n        );\n\n        super.transferCreativeLicense(creativeOwner, to, tokenId);\n    }\n\n    /**\n     * @dev Transfers the creative license from the current owner to the sender of the request.\n     *\n     * Requirements:\n     *\n     * - `tokenId` must exist.\n     * - A creative license price must have been set via {setCreativeLicensePrice}.\n     * - the sent money should be enough to cover the license expense.\n     */\n    function obtainCreativeLicense(uint256 tokenId) external payable {\n        require(\n            super._exists(tokenId),\n            \"ERC1190Tradable: The token does not exist.\"\n        );\n\n        require(\n            _creativePrice[tokenId] > 0,\n            \"ERC1190Tradable: The creative license of this token cannot be transferred.\"\n        );\n\n        require(\n            msg.value >= _creativePrice[tokenId],\n            \"ERC1190Tradable: The amount of wei sent is not sufficient for obtaining the creative license of this token.\"\n        );\n\n        require(\n            super._msgSender() != address(0),\n            \"ERC1190Tradable: Cannot transfer the creative license to the zero address.\"\n        );\n\n        address payable creativeOwner = payable(super.creativeOwnerOf(tokenId));\n\n        super.transferCreativeLicense(creativeOwner, super._msgSender(), tokenId);\n\n        creativeOwner.transfer(msg.value);\n    }\n}\n",
  "sourcePath": "non-fungible-royalty-token/contracts/ERC1190Tradable.sol",
  "compiler": {
    "name": "solc",
    "version": "0.8.11+commit.d7f03943.Emscripten.clang"
  },
  "schemaVersion": "3.4.4",
  "updatedAt": "2022-01-24T17:11:24.543Z",
  "devdoc": {
    "details": "Implementation of ERC1190 with payable methods.",
    "kind": "dev",
    "methods": {
      "approve(address,uint256)": {
        "details": "See {IERC1190-approve}."
      },
      "balanceOfCreativeOwner(address)": {
        "details": "See {IERC1190-balanceOfCreativeOwner}."
      },
      "balanceOfOwner(address)": {
        "details": "See {IERC1190-balanceOfOwner}."
      },
      "balanceOfRenter(address)": {
        "details": "See {IERC1190-balanceOfRenter}."
      },
      "constructor": {
        "details": "See {ERC1190-constructor}."
      },
      "creativeOwnerOf(uint256)": {
        "details": "See {IERC1190-creativeOwnerOf}."
      },
      "getApproved(uint256)": {
        "details": "See {IERC1190-getApproved}."
      },
      "getRented(uint256,address)": {
        "details": "See {IERC1190-getRented}."
      },
      "isApprovedForAll(address,address)": {
        "details": "See {IERC1190-isApprovedForAll}."
      },
      "mint(address,uint8,uint8)": {
        "details": "Generates a new token and assigns its ownership and creative license to `creator`. The royalties are set via `royaltyForRental` and `royaltyForOwnershipTransfer`."
      },
      "name()": {
        "details": "See {IERC1190Metadata-name}."
      },
      "obtainCreativeLicense(uint256)": {
        "details": "Transfers the creative license from the current owner to the sender of the request. Requirements: - `tokenId` must exist. - A creative license price must have been set via {setCreativeLicensePrice}. - the sent money should be enough to cover the license expense."
      },
      "obtainOwnershipLicense(uint256)": {
        "details": "Transfers the ownership license from the current owner to the sender of the request. Requirements: - `tokenId` must exist. - A ownership license price must have been set via {setOwnershipLicensePrice}. - the sent money should be enough to cover the license expense."
      },
      "owner()": {
        "details": "Returns the address of the current owner."
      },
      "ownerOf(uint256)": {
        "details": "See {IERC1190-ownerOf}."
      },
      "renounceOwnership()": {
        "details": "Leaves the contract without owner. It will not be possible to call `onlyOwner` functions anymore. Can only be called by the current owner. NOTE: Renouncing ownership will leave the contract without an owner, thereby removing any functionality that is only available to the owner."
      },
      "rentAsset(address,uint256,uint256)": {
        "details": "See {IERC1190-rentAsset}."
      },
      "rentAsset(uint256,uint256)": {
        "details": "Rents the token `tokenId` for a total amount of `rentExpirationDateInMillis` ms. Requirements: - `tokenId` must exist. - A rental price must have been set via {setRentalPrice}. - `rentExpirationDateInMillis` should correspond to a future date. - the sent money should be enough to cover the renting expenses."
      },
      "rentersOf(uint256)": {
        "details": "See {IERC1190-rentersOf}."
      },
      "safeTransferCreativeLicense(address,address,uint256)": {
        "details": "See {IERC1190-safeTransferCreativeLicense}."
      },
      "safeTransferCreativeLicense(address,address,uint256,bytes)": {
        "details": "See {IERC1190-safeTransferCreativeLicense}."
      },
      "safeTransferOwnershipLicense(address,address,uint256)": {
        "details": "See {IERC1190-safeTransferOwnershipLicense}."
      },
      "safeTransferOwnershipLicense(address,address,uint256,bytes)": {
        "details": "See {IERC1190-safeTransferOwnershipLicense}."
      },
      "setApprovalForAll(address,bool)": {
        "details": "See {IERC1190-setApprovalForAll}."
      },
      "setCreativeLicensePrice(uint256,uint256)": {
        "details": "Sets the price for acquiring property of the creative license of token `tokenId`. Requirements: - `tokenId` must exist. - `priceInWei` must be greater than 0."
      },
      "setOwnershipLicensePrice(uint256,uint256)": {
        "details": "Sets the price for acquiring property of the ownership license of token `tokenId`. Requirements: - `tokenId` must exist. - `priceInWei` must be greater than 0."
      },
      "setRentalPrice(uint256,uint256)": {
        "details": "Sets the price for renting `tokenId` for 1 second. Requirements: - `tokenId` must exist. - `priceInWei` must be greater than 0."
      },
      "supportsInterface(bytes4)": {
        "details": "See {IERC165-supportsInterface}."
      },
      "symbol()": {
        "details": "See {IERC1190Metadata-symbol}."
      },
      "tokenURI(uint256)": {
        "details": "See {IERC1190Metadata-tokenURI}."
      },
      "transferCreativeLicense(address,address,uint256)": {
        "details": "See {IERC1190-transferCreativeLicense}."
      },
      "transferCreativeLicense(uint256,address)": {
        "details": "Transfers the creative license from the current creative owner to the account `to`. Requirements: - `tokenId` must exist. - the sender of the request must be the creative owner. - the receiver account `to` must not be the zero address."
      },
      "transferOwnership(address)": {
        "details": "Transfers ownership of the contract to a new account (`newOwner`). Can only be called by the current owner."
      },
      "transferOwnershipLicense(address,address,uint256)": {
        "details": "See {IERC1190-transferOwnershipLicense}."
      },
      "transferOwnershipLicense(uint256,address)": {
        "details": "Transfers the ownership license from the current owner to the account `to`. Requirements: - `tokenId` must exist. - the sender of the request must be the owner. - the receiver account `to` must not be the zero address."
      }
    },
    "version": 1
  },
  "userdoc": {
    "kind": "user",
    "methods": {},
    "version": 1
  }
}