{
  "contractName": "ERC1190Marketplace",
  "abi": [
    {
      "anonymous": false,
      "inputs": [
        {
          "indexed": false,
          "internalType": "string",
          "name": "name",
          "type": "string"
        },
        {
          "indexed": false,
          "internalType": "string",
          "name": "symbol",
          "type": "string"
        },
        {
          "indexed": false,
          "internalType": "string",
          "name": "baseURI",
          "type": "string"
        },
        {
          "indexed": false,
          "internalType": "address",
          "name": "contractAddress",
          "type": "address"
        }
      ],
      "name": "CollectionDeployed",
      "type": "event"
    },
    {
      "inputs": [
        {
          "internalType": "address",
          "name": "collectionAddress",
          "type": "address"
        }
      ],
      "name": "creatorOf",
      "outputs": [
        {
          "internalType": "address",
          "name": "",
          "type": "address"
        }
      ],
      "stateMutability": "view",
      "type": "function",
      "constant": true
    },
    {
      "inputs": [],
      "name": "allCollections",
      "outputs": [
        {
          "internalType": "address[]",
          "name": "",
          "type": "address[]"
        }
      ],
      "stateMutability": "view",
      "type": "function",
      "constant": true
    },
    {
      "inputs": [
        {
          "internalType": "address",
          "name": "collectionOwner",
          "type": "address"
        }
      ],
      "name": "collectionsOf",
      "outputs": [
        {
          "internalType": "address[]",
          "name": "",
          "type": "address[]"
        }
      ],
      "stateMutability": "view",
      "type": "function",
      "constant": true
    },
    {
      "inputs": [
        {
          "internalType": "string",
          "name": "name",
          "type": "string"
        },
        {
          "internalType": "string",
          "name": "symbol",
          "type": "string"
        },
        {
          "internalType": "string",
          "name": "baseURI",
          "type": "string"
        }
      ],
      "name": "deployNewCollection",
      "outputs": [
        {
          "internalType": "address",
          "name": "",
          "type": "address"
        }
      ],
      "stateMutability": "nonpayable",
      "type": "function"
    },
    {
      "inputs": [
        {
          "internalType": "address",
          "name": "collectionAddress",
          "type": "address"
        },
        {
          "internalType": "uint256",
          "name": "tokenId",
          "type": "uint256"
        }
      ],
      "name": "requireOwnershipLicenseTransferApproval",
      "outputs": [],
      "stateMutability": "nonpayable",
      "type": "function"
    },
    {
      "inputs": [
        {
          "internalType": "address",
          "name": "collectionAddress",
          "type": "address"
        },
        {
          "internalType": "uint256",
          "name": "tokenId",
          "type": "uint256"
        }
      ],
      "name": "requireCreativeLicenseTransferApproval",
      "outputs": [],
      "stateMutability": "nonpayable",
      "type": "function"
    },
    {
      "inputs": [
        {
          "internalType": "address",
          "name": "collectionAddress",
          "type": "address"
        },
        {
          "internalType": "uint256",
          "name": "tokenId",
          "type": "uint256"
        }
      ],
      "name": "getOwnershipLicenseTransferRequests",
      "outputs": [
        {
          "internalType": "address[]",
          "name": "",
          "type": "address[]"
        }
      ],
      "stateMutability": "view",
      "type": "function",
      "constant": true
    },
    {
      "inputs": [
        {
          "internalType": "address",
          "name": "collectionAddress",
          "type": "address"
        },
        {
          "internalType": "uint256",
          "name": "tokenId",
          "type": "uint256"
        }
      ],
      "name": "getCreativeLicenseTransferRequests",
      "outputs": [
        {
          "internalType": "address[]",
          "name": "",
          "type": "address[]"
        }
      ],
      "stateMutability": "view",
      "type": "function",
      "constant": true
    }
  ],
  "bytecode": "0x608060405234801561001057600080fd5b50614f58806100206000396000f3fe60806040523480156200001157600080fd5b5060043610620000935760003560e01c8063de07b8501162000062578063de07b8501462000122578063dea5c2e01462000139578063e40d45441462000150578063ea939dc9146200015a57600080fd5b80632da8d020146200009857806334aed6f514620000cc5780637434b33014620000f2578063b4b96ff51462000109575b600080fd5b620000af620000a93660046200097f565b62000171565b6040516001600160a01b0390911681526020015b60405180910390f35b620000e3620000dd36600462000a40565b62000363565b604051620000c3919062000a6d565b620000e36200010336600462000abc565b62000470565b620001206200011a36600462000a40565b62000564565b005b620000e36200013336600462000a40565b6200065f565b620000af6200014a36600462000abc565b62000766565b620000e36200080f565b620001206200016b36600462000a40565b62000873565b600080878787878787604051620001889062000925565b620001999695949392919062000b2a565b604051809103906000f080158015620001b6573d6000803e3d6000fd5b509050806000336040517ff2fde38b0000000000000000000000000000000000000000000000000000000081526001600160a01b0380831660048301529192509084169063f2fde38b90602401600060405180830381600087803b1580156200021e57600080fd5b505af115801562000233573d6000803e3d6000fd5b5050506001600160a01b03808316600081815260208181526040808320805460018181018355918552838520018054968a167fffffffffffffffffffffffff00000000000000000000000000000000000000009788168117909155808552928190528184208054871686179055600280548083019091557f405787fa12a823e0f2b7631cc41b3ba8828b3321ca811111fa75cd3aa3bb5ace01805487169095179094556003805494850181559092527fc2575a0e9e593c00f959f8c92f12db2869c3395a3b0502d05e2516446f71f85b9092018054909316909117909155517f884116d376dcf43985e8655ad2731232ec00363e4f5aa6a4faa7d46cf2b756a191506200034e908c908c908c908c908c908c908a9062000b79565b60405180910390a15098975050505050505050565b60606001600160a01b038316620003f15760405162461bcd60e51b815260206004820152604160248201527f455243313139304d61726b6574706c6163653a20636f6c6c656374696f6e416460448201527f64726573732063616e6e6f7420626520746865207a65726f20616464726573736064820152601760f91b608482015260a4015b60405180910390fd5b6001600160a01b0383166000908152600460209081526040808320858452825291829020805483518184028101840190945280845290918301828280156200046357602002820191906000526020600020905b81546001600160a01b0316815260019091019060200180831162000444575b5050505050905092915050565b60606001600160a01b038216620004f05760405162461bcd60e51b815260206004820152603f60248201527f455243313139304d61726b6574706c6163653a20636f6c6c656374696f6e4f7760448201527f6e65722063616e6e6f7420626520746865207a65726f20616464726573732e006064820152608401620003e8565b6001600160a01b03821660009081526020818152604091829020805483518184028101840190945280845290918301828280156200055857602002820191906000526020600020905b81546001600160a01b0316815260019091019060200180831162000539575b50505050509050919050565b6001600160a01b038216620005ec5760405162461bcd60e51b815260206004820152604160248201527f455243313139304d61726b6574706c6163653a20636f6c6c656374696f6e416460448201527f64726573732063616e6e6f7420626520746865207a65726f20616464726573736064820152601760f91b608482015260a401620003e8565b6001600160a01b03821660009081526005602090815260408083208484529091529020335b81546001810183556000928352602090922090910180547fffffffffffffffffffffffff0000000000000000000000000000000000000000166001600160a01b039092169190911790555050565b60606001600160a01b038316620006e95760405162461bcd60e51b815260206004820152604160248201527f455243313139304d61726b6574706c6163653a20636f6c6c656374696f6e416460448201527f64726573732063616e6e6f7420626520746865207a65726f20616464726573736064820152601760f91b608482015260a401620003e8565b6001600160a01b03831660009081526005602090815260408083208584528252918290208054835181840281018401909452808452909183018282801562000463576020028201919060005260206000209081546001600160a01b0316815260019091019060200180831162000444575050505050905092915050565b60006001600160a01b038216620007f05760405162461bcd60e51b815260206004820152604160248201527f455243313139304d61726b6574706c6163653a20636f6c6c656374696f6e416460448201527f64726573732063616e6e6f7420626520746865207a65726f20616464726573736064820152601760f91b608482015260a401620003e8565b506001600160a01b039081166000908152600160205260409020541690565b606060038054806020026020016040519081016040528092919081815260200182805480156200086957602002820191906000526020600020905b81546001600160a01b031681526001909101906020018083116200084a575b5050505050905090565b6001600160a01b038216620008fb5760405162461bcd60e51b815260206004820152604160248201527f455243313139304d61726b6574706c6163653a20636f6c6c656374696f6e416460448201527f64726573732063616e6e6f7420626520746865207a65726f20616464726573736064820152601760f91b608482015260a401620003e8565b6001600160a01b038216600090815260046020908152604080832084845290915290203362000611565b6143498062000bda83390190565b60008083601f8401126200094657600080fd5b50813567ffffffffffffffff8111156200095f57600080fd5b6020830191508360208285010111156200097857600080fd5b9250929050565b600080600080600080606087890312156200099957600080fd5b863567ffffffffffffffff80821115620009b257600080fd5b620009c08a838b0162000933565b90985096506020890135915080821115620009da57600080fd5b620009e88a838b0162000933565b9096509450604089013591508082111562000a0257600080fd5b5062000a1189828a0162000933565b979a9699509497509295939492505050565b80356001600160a01b038116811462000a3b57600080fd5b919050565b6000806040838503121562000a5457600080fd5b62000a5f8362000a23565b946020939093013593505050565b6020808252825182820181905260009190848201906040850190845b8181101562000ab05783516001600160a01b03168352928401929184019160010162000a89565b50909695505050505050565b60006020828403121562000acf57600080fd5b62000ada8262000a23565b9392505050565b8183528181602085013750600060208284010152600060207fffffffffffffffffffffffffffffffffffffffffffffffffffffffffffffffe0601f840116840101905092915050565b60608152600062000b4060608301888a62000ae1565b828103602084015262000b5581878962000ae1565b9050828103604084015262000b6c81858762000ae1565b9998505050505050505050565b60808152600062000b8f60808301898b62000ae1565b828103602084015262000ba481888a62000ae1565b9050828103604084015262000bbb81868862000ae1565b9150506001600160a01b03831660608301529897505050505050505056fe60806040523480156200001157600080fd5b506040516200434938038062004349833981016040819052620000349162000268565b8251839083906200004d906000906020850190620000f5565b50805162000063906001906020840190620000f5565b505050620000806200007a6200009f60201b60201c565b620000a3565b805162000095906010906020840190620000f5565b5050505062000336565b3390565b600e80546001600160a01b038381166001600160a01b0319831681179093556040519116919082907f8be0079c531659141344cd1fd0a4f28419497f9722a3daafe3b4186f6b6457e090600090a35050565b8280546200010390620002f9565b90600052602060002090601f01602090048101928262000127576000855562000172565b82601f106200014257805160ff191683800117855562000172565b8280016001018555821562000172579182015b828111156200017257825182559160200191906001019062000155565b506200018092915062000184565b5090565b5b8082111562000180576000815560010162000185565b634e487b7160e01b600052604160045260246000fd5b600082601f830112620001c357600080fd5b81516001600160401b0380821115620001e057620001e06200019b565b604051601f8301601f19908116603f011681019082821181831017156200020b576200020b6200019b565b816040528381526020925086838588010111156200022857600080fd5b600091505b838210156200024c57858201830151818301840152908201906200022d565b838211156200025e5760008385830101525b9695505050505050565b6000806000606084860312156200027e57600080fd5b83516001600160401b03808211156200029657600080fd5b620002a487838801620001b1565b94506020860151915080821115620002bb57600080fd5b620002c987838801620001b1565b93506040860151915080821115620002e057600080fd5b50620002ef86828701620001b1565b9150509250925092565b600181811c908216806200030e57607f821691505b602082108114156200033057634e487b7160e01b600052602260045260246000fd5b50919050565b61400380620003466000396000f3fe6080604052600436106102345760003560e01c80638d6cf8bc11610138578063b042ce94116100b0578063e985e9c51161007f578063f2fde38b11610064578063f2fde38b14610671578063f3e4198e14610691578063f9de1d83146106b157600080fd5b8063e985e9c514610608578063ec2b20ac1461065157600080fd5b8063b042ce9414610595578063c66130d7146105a8578063c87b56dd146105c8578063de8e7bab146105e857600080fd5b80639f2cd0e411610107578063a333818c116100ec578063a333818c14610535578063aad1b61714610562578063afe9a4ff1461058257600080fd5b80639f2cd0e4146104f5578063a22cb4651461051557600080fd5b80638d6cf8bc146104825780638da5cb5b146104a257806395d89b41146104c05780639940a11a146104d557600080fd5b80634909d94e116101cb57806369bb4dc21161019a578063715018a61161017f578063715018a61461042d57806379b66eb7146104425780638c4b5a921461046257600080fd5b806369bb4dc2146103f85780636ebd773d1461040d57600080fd5b80634909d94e1461036a5780634cd5ca8e1461038a578063606428f7146103b85780636352211e146103d857600080fd5b80630b97be96116102075780630b97be96146102ea578063224157ea1461030a57806325dc12641461032a5780633c7342341461034a57600080fd5b806301ffc9a71461023957806306fdde031461026e578063081812fc14610290578063095ea7b3146102c8575b600080fd5b34801561024557600080fd5b5061025961025436600461397e565b6106c4565b60405190151581526020015b60405180910390f35b34801561027a57600080fd5b50610283610788565b60405161026591906139f3565b34801561029c57600080fd5b506102b06102ab366004613a06565b61081a565b6040516001600160a01b039091168152602001610265565b3480156102d457600080fd5b506102e86102e3366004613a3b565b61089d565b005b3480156102f657600080fd5b506102e8610305366004613a7b565b6109f6565b34801561031657600080fd5b506102b0610325366004613a06565b610aaa565b34801561033657600080fd5b506102e8610345366004613b57565b610b35565b34801561035657600080fd5b506102e8610365366004613a7b565b610b4c565b34801561037657600080fd5b506102e8610385366004613b57565b610bfa565b34801561039657600080fd5b506103aa6103a5366004613b93565b610ca7565b604051908152602001610265565b3480156103c457600080fd5b506103aa6103d3366004613bae565b610d41565b3480156103e457600080fd5b506102b06103f3366004613a06565b6110c1565b34801561040457600080fd5b506103aa61114c565b34801561041957600080fd5b506102e8610428366004613bae565b61115c565b34801561043957600080fd5b506102e8611294565b34801561044e57600080fd5b506102e861045d366004613bda565b6112fa565b34801561046e57600080fd5b506102e861047d366004613b57565b611410565b34801561048e57600080fd5b506102e861049d366004613bae565b61142b565b3480156104ae57600080fd5b50600e546001600160a01b03166102b0565b3480156104cc57600080fd5b50610283611546565b3480156104e157600080fd5b506103aa6104f0366004613c0d565b611555565b34801561050157600080fd5b506102e8610510366004613b57565b61164a565b34801561052157600080fd5b506102e8610530366004613cb2565b6116f7565b34801561054157600080fd5b50610555610550366004613a06565b611706565b6040516102659190613cee565b34801561056e57600080fd5b506103aa61057d366004613b93565b611772565b6102e8610590366004613a06565b6117fa565b6102e86105a3366004613bda565b611abf565b3480156105b457600080fd5b506103aa6105c3366004613b93565b611e4f565b3480156105d457600080fd5b506102836105e3366004613a06565b611ee9565b3480156105f457600080fd5b506102e8610603366004613bda565b61203f565b34801561061457600080fd5b50610259610623366004613d3b565b6001600160a01b039182166000908152600c6020908152604080832093909416825291909152205460ff1690565b34801561065d57600080fd5b506102e861066c366004613bda565b612155565b34801561067d57600080fd5b506102e861068c366004613b93565b61226b565b34801561069d57600080fd5b506102e86106ac366004613d65565b61234d565b6102e86106bf366004613a06565b612358565b60007fffffffff000000000000000000000000000000000000000000000000000000008216158061073657507fffffffff0000000000000000000000000000000000000000000000000000000082167f5b5e139f00000000000000000000000000000000000000000000000000000000145b8061078257507f01ffc9a7000000000000000000000000000000000000000000000000000000007fffffffff000000000000000000000000000000000000000000000000000000008316145b92915050565b60606000805461079790613d98565b80601f01602080910402602001604051908101604052809291908181526020018280546107c390613d98565b80156108105780601f106107e557610100808354040283529160200191610810565b820191906000526020600020905b8154815290600101906020018083116107f357829003601f168201915b5050505050905090565b6000610825826126ed565b6108815760405162461bcd60e51b815260206004820152602260248201527f455243313139303a2054686520746f6b656e20646f6573206e6f7420657869736044820152613a1760f11b60648201526084015b60405180910390fd5b506000908152600960205260409020546001600160a01b031690565b60006108a8826110c1565b9050806001600160a01b0316836001600160a01b031614156109325760405162461bcd60e51b815260206004820152602a60248201527f455243313139303a2043616e6e6f7420617070726f766520746865206375727260448201527f656e74206f776e65722e000000000000000000000000000000000000000000006064820152608401610878565b336001600160a01b038216148061094e575061094e8133610623565b6109e65760405162461bcd60e51b815260206004820152605060248201527f455243313139303a205468652073656e646572206973206e656974686572207460448201527f6865206f776e6572206f662074686520746f6b656e206e6f7220617070726f7660648201527f656420746f206d616e6167652069742e00000000000000000000000000000000608482015260a401610878565b6109f181848461272c565b505050565b610a003383612795565b610a985760405162461bcd60e51b815260206004820152604a60248201527f455243313139303a205468652073656e646572206973206e656974686572207460448201527f6865206f776e6572206e6f7220617070726f76656420746f206d616e6167652060648201527f74686520746f6b656e2e00000000000000000000000000000000000000000000608482015260a401610878565b610aa484848484612875565b50505050565b6000818152600360205260408120546001600160a01b0316806107825760405162461bcd60e51b815260206004820152603460248201527f455243313139303a204e6f626f647920686173206372656174697665206f776e60448201527f657273686970206f76657220746f6b656e49642e0000000000000000000000006064820152608401610878565b6109f1838383604051806020016040528060008152505b610b563383612900565b610bee5760405162461bcd60e51b815260206004820152605360248201527f455243313139303a205468652073656e646572206973206e656974686572207460448201527f6865206372656174697665206f776e6572206e6f7220617070726f766564207460648201527f6f206d616e6167652074686520746f6b656e2e00000000000000000000000000608482015260a401610878565b610aa48484848461296d565b610c043382612795565b610c9c5760405162461bcd60e51b815260206004820152604a60248201527f455243313139303a205468652073656e646572206973206e656974686572207460448201527f6865206f776e6572206e6f7220617070726f76656420746f206d616e6167652060648201527f74686520746f6b656e2e00000000000000000000000000000000000000000000608482015260a401610878565b6109f1838383612984565b60006001600160a01b038216610d255760405162461bcd60e51b815260206004820152603260248201527f455243313139303a2063726561746976654f776e65722063616e6e6f7420626560448201527f20746865207a65726f20616464726573732e00000000000000000000000000006064820152608401610878565b506001600160a01b031660009081526007602052604090205490565b6000610d4c836126ed565b610da35760405162461bcd60e51b815260206004820152602260248201527f455243313139303a2054686520746f6b656e20646f6573206e6f7420657869736044820152613a1760f11b6064820152608401610878565b6001600160a01b038216610e0d5760405162461bcd60e51b815260206004820152602b60248201527f455243313139303a2072656e7465722063616e6e6f7420626520746865207a6560448201526a39379030b2323932b9b99760a91b6064820152608401610878565b60008381526004602090815260408083206001600160a01b0386168452909152902054610ea25760405162461bcd60e51b815260206004820152602d60248201527f455243313139303a205468652072656e74657220686173206e6f742072656e7460448201527f65642074686520746f6b656e2e000000000000000000000000000000000000006064820152608401610878565b60008381526004602090815260408083206001600160a01b0386168452909152902054610ed1426103e8613de9565b8110156110975760008481526004602090815260408083206001600160a01b03871684529091528120819055805b60008681526005602052604090205481108015610f1a575081155b1561106657600086815260056020526040902080546001600160a01b038716919083908110610f4b57610f4b613e08565b6000918252602090912001546001600160a01b031614156110545760008681526005602052604090208054610f8290600190613e1e565b81548110610f9257610f92613e08565b60009182526020808320909101548883526005909152604090912080546001600160a01b039092169183908110610fcb57610fcb613e08565b6000918252602080832091909101805473ffffffffffffffffffffffffffffffffffffffff19166001600160a01b03949094169390931790925587815260059091526040902080548061102057611020613e35565b6000828152602090208101600019908101805473ffffffffffffffffffffffffffffffffffffffff19169055019055600191505b8061105e81613e4b565b915050610eff565b506001600160a01b0384166000908152600860205260408120805460019290611090908490613e1e565b9091555050505b505060009182526004602090815260408084206001600160a01b0393909316845291905290205490565b6000818152600260205260408120546001600160a01b0316806107825760405162461bcd60e51b815260206004820152602b60248201527f455243313139303a204e6f626f647920686173206f776e657273686970206f7660448201527f657220746f6b656e49642e0000000000000000000000000000000000000000006064820152608401610878565b6000611157600f5490565b905090565b6001600160a01b0381166111fe5760405162461bcd60e51b815260206004820152604a60248201527f455243313139305472616461626c653a2043616e6e6f74207472616e7366657260448201527f20746865204372656174697665206c6963656e736520746f20746865207a657260648201527f6f20616464726573732e00000000000000000000000000000000000000000000608482015260a401610878565b600061120983610aaa565b9050336001600160a01b038216146112895760405162461bcd60e51b815260206004820152603e60248201527f455243313139305472616461626c653a205468652073656e64657220646f657360448201527f206e6f74206f776e20746865206372656174697665206c6963656e73652e00006064820152608401610878565b6109f181838561164a565b600e546001600160a01b031633146112ee5760405162461bcd60e51b815260206004820181905260248201527f4f776e61626c653a2063616c6c6572206973206e6f7420746865206f776e65726044820152606401610878565b6112f86000612b8c565b565b611303826126ed565b6113625760405162461bcd60e51b815260206004820152602a60248201527f455243313139305472616461626c653a2054686520746f6b656e20646f6573206044820152693737ba1032bc34b9ba1760b11b6064820152608401610878565b600081116113fe5760405162461bcd60e51b815260206004820152604360248201527f455243313139305472616461626c653a20546865206f776e657273686970206c60448201527f6963656e736520636f7374206d7573742062652067726561746572207468616e60648201527f20302e0000000000000000000000000000000000000000000000000000000000608482015260a401610878565b60009182526011602052604090912055565b6109f1838383604051806020016040528060008152506109f6565b6001600160a01b0381166114bb5760405162461bcd60e51b815260206004820152604b60248201527f455243313139305472616461626c653a2043616e6e6f74207472616e7366657260448201527f20746865204f776e657273686970206c6963656e736520746f20746865207a6560648201526a39379030b2323932b9b99760a91b608482015260a401610878565b60006114c6836110c1565b9050336001600160a01b038216146112895760405162461bcd60e51b815260206004820152603f60248201527f455243313139305472616461626c653a205468652073656e64657220646f657360448201527f206e6f74206f776e20746865206f776e657273686970206c6963656e73652e006064820152608401610878565b60606001805461079790613d98565b600e546000906001600160a01b031633146115b25760405162461bcd60e51b815260206004820181905260248201527f4f776e61626c653a2063616c6c6572206973206e6f7420746865206f776e65726044820152606401610878565b6115c0600f80546001019055565b60006115cb600f5490565b90506115d78782612beb565b6115e2818787612dd6565b6115ed818585612e4f565b604080516001600160a01b038916815260ff86811660208301528516818301526060810183905290517fd3df8e557dd2db4e6ed42c0bc93d8dceae1dae9bd0d8bfa2c69d68759fceab539181900360800190a19695505050505050565b6116543382612900565b6116ec5760405162461bcd60e51b815260206004820152605360248201527f455243313139303a205468652073656e646572206973206e656974686572207460448201527f6865206372656174697665206f776e6572206e6f7220617070726f766564207460648201527f6f206d616e6167652074686520746f6b656e2e00000000000000000000000000608482015260a401610878565b6109f1838383612fe2565b6117023383836131ea565b5050565b60008181526005602090815260409182902080548351818402810184019094528084526060939283018282801561176657602002820191906000526020600020905b81546001600160a01b03168152600190910190602001808311611748575b50505050509050919050565b60006001600160a01b0382166117de5760405162461bcd60e51b815260206004820152602b60248201527f455243313139303a2072656e7465722063616e6e6f7420626520746865207a6560448201526a39379030b2323932b9b99760a91b6064820152608401610878565b506001600160a01b031660009081526008602052604090205490565b611803816126ed565b6118625760405162461bcd60e51b815260206004820152602a60248201527f455243313139305472616461626c653a2054686520746f6b656e20646f6573206044820152693737ba1032bc34b9ba1760b11b6064820152608401610878565b6000818152601260205260409020546119095760405162461bcd60e51b815260206004820152604a60248201527f455243313139305472616461626c653a20546865206372656174697665206c6960448201527f63656e7365206f66207468697320746f6b656e2063616e6e6f7420626520747260648201527f616e736665727265642e00000000000000000000000000000000000000000000608482015260a401610878565b6000818152601260205260409020543410156119d95760405162461bcd60e51b815260206004820152606b60248201527f455243313139305472616461626c653a2054686520616d6f756e74206f66207760448201527f65692073656e74206973206e6f742073756666696369656e7420666f72206f6260648201527f7461696e696e6720746865206372656174697665206c6963656e7365206f662060848201527f7468697320746f6b656e2e00000000000000000000000000000000000000000060a482015260c401610878565b33611a725760405162461bcd60e51b815260206004820152604a60248201527f455243313139305472616461626c653a2043616e6e6f74207472616e7366657260448201527f20746865206372656174697665206c6963656e736520746f20746865207a657260648201527f6f20616464726573732e00000000000000000000000000000000000000000000608482015260a401610878565b6000611a7d82610aaa565b9050611a8a81338461164a565b6040516001600160a01b038216903480156108fc02916000818181858888f193505050501580156109f1573d6000803e3d6000fd5b611ac8826126ed565b611b275760405162461bcd60e51b815260206004820152602a60248201527f455243313139305472616461626c653a2054686520746f6b656e20646f6573206044820152693737ba1032bc34b9ba1760b11b6064820152608401610878565b600082815260136020526040902054611bce5760405162461bcd60e51b815260206004820152604160248201527f455243313139305472616461626c653a205468652061737365742072656c617460448201527f656420746f207468697320746f6b656e206973206e6f742072656e7461626c6560648201527f2e00000000000000000000000000000000000000000000000000000000000000608482015260a401610878565b600042611bdd6103e884613e66565b611be79190613e1e565b905060008111611c5f5760405162461bcd60e51b815260206004820152603260248201527f455243313139305472616461626c653a205468652072656e74616c2074696d6560448201527f206d75737420626520706f7369746976652e00000000000000000000000000006064820152608401610878565b600083815260136020526040812054611c789083613de9565b905080341015611d165760405162461bcd60e51b815260206004820152605560248201527f455243313139305472616461626c653a2054686520616d6f756e74206f66207760448201527f65692073656e74206973206e6f742073756666696369656e7420746f20636f7660648201527f6572207468652072656e7420657870656e7365732e0000000000000000000000608482015260a401610878565b6000611d21856110c1565b90506000611d2e86610aaa565b9050611d3b33878761234d565b806001600160a01b0316826001600160a01b03161415611d90576040516001600160a01b038316903480156108fc02916000818181858888f19350505050158015611d8a573d6000803e3d6000fd5b50611e47565b6000611d9b876132d8565b90506001600160a01b0383166108fc6064611db68482613e88565b611dc39060ff1634613de9565b611dcd9190613e66565b6040518115909202916000818181858888f19350505050158015611df5573d6000803e3d6000fd5b506001600160a01b0382166108fc6064611e1260ff851634613de9565b611e1c9190613e66565b6040518115909202916000818181858888f19350505050158015611e44573d6000803e3d6000fd5b50505b505050505050565b60006001600160a01b038216611ecd5760405162461bcd60e51b815260206004820152602a60248201527f455243313139303a206f776e65722063616e6e6f7420626520746865207a657260448201527f6f20616464726573732e000000000000000000000000000000000000000000006064820152608401610878565b506001600160a01b031660009081526006602052604090205490565b6060611ef4826126ed565b611f4b5760405162461bcd60e51b815260206004820152602260248201527f455243313139303a2054686520746f6b656e20646f6573206e6f7420657869736044820152613a1760f11b6064820152608401610878565b6000828152600d602052604081208054611f6490613d98565b905011611fd95760405162461bcd60e51b815260206004820152602960248201527f455243313139303a204e6f2066696c65206173736f63696174656420746f207460448201527f686520746f6b656e2e00000000000000000000000000000000000000000000006064820152608401610878565b6000611fe3613351565b905060008151116120035760405180602001604052806000815250612038565b80600d6000858152602001908152602001600020604051602001612028929190613eab565b6040516020818303038152906040525b9392505050565b612048826126ed565b6120a75760405162461bcd60e51b815260206004820152602a60248201527f455243313139305472616461626c653a2054686520746f6b656e20646f6573206044820152693737ba1032bc34b9ba1760b11b6064820152608401610878565b600081116121435760405162461bcd60e51b815260206004820152604260248201527f455243313139305472616461626c653a20546865206372656174697665206c6960448201527f63656e736520636f7374206d7573742062652067726561746572207468616e2060648201527f302e000000000000000000000000000000000000000000000000000000000000608482015260a401610878565b60009182526012602052604090912055565b61215e826126ed565b6121bd5760405162461bcd60e51b815260206004820152602a60248201527f455243313139305472616461626c653a2054686520746f6b656e20646f6573206044820152693737ba1032bc34b9ba1760b11b6064820152608401610878565b600081116122595760405162461bcd60e51b815260206004820152604360248201527f455243313139305472616461626c653a205468652072656e74616c20636f737460448201527f20706572207365636f6e64206d7573742062652067726561746572207468616e60648201527f20302e0000000000000000000000000000000000000000000000000000000000608482015260a401610878565b60009182526013602052604090912055565b600e546001600160a01b031633146122c55760405162461bcd60e51b815260206004820181905260248201527f4f776e61626c653a2063616c6c6572206973206e6f7420746865206f776e65726044820152606401610878565b6001600160a01b0381166123415760405162461bcd60e51b815260206004820152602660248201527f4f776e61626c653a206e6577206f776e657220697320746865207a65726f206160448201527f64647265737300000000000000000000000000000000000000000000000000006064820152608401610878565b61234a81612b8c565b50565b6109f1838383613360565b612361816126ed565b6123c05760405162461bcd60e51b815260206004820152602a60248201527f455243313139305472616461626c653a2054686520746f6b656e20646f6573206044820152693737ba1032bc34b9ba1760b11b6064820152608401610878565b6000818152601160205260409020546124675760405162461bcd60e51b815260206004820152604b60248201527f455243313139305472616461626c653a20546865206f776e657273686970206c60448201527f6963656e7365206f66207468697320746f6b656e2063616e6e6f74206265207460648201527f72616e736665727265642e000000000000000000000000000000000000000000608482015260a401610878565b6000818152601160205260409020543410156125375760405162461bcd60e51b815260206004820152606c60248201527f455243313139305472616461626c653a2054686520616d6f756e74206f66207760448201527f65692073656e74206973206e6f742073756666696369656e7420666f72206f6260648201527f7461696e696e6720746865206f776e657273686970206c6963656e7365206f6660848201527f207468697320746f6b656e2e000000000000000000000000000000000000000060a482015260c401610878565b336125be5760405162461bcd60e51b815260206004820152604b60248201527f455243313139305472616461626c653a2043616e6e6f74207472616e7366657260448201527f20746865206f776e657273686970206c6963656e736520746f20746865207a6560648201526a39379030b2323932b9b99760a91b608482015260a401610878565b60006125c9826110c1565b905060006125d683610aaa565b90506125e3823385610bfa565b806001600160a01b0316826001600160a01b03161415612632576040516001600160a01b038316903480156108fc02916000818181858888f19350505050158015610aa4573d6000803e3d6000fd5b600061263d846134ed565b90506001600160a01b0383166108fc60646126588482613e88565b6126659060ff1634613de9565b61266f9190613e66565b6040518115909202916000818181858888f19350505050158015612697573d6000803e3d6000fd5b506001600160a01b0382166108fc60646126b460ff851634613de9565b6126be9190613e66565b6040518115909202916000818181858888f193505050501580156126e6573d6000803e3d6000fd5b5050505050565b6000818152600260205260408120546001600160a01b0316158015906107825750506000908152600360205260409020546001600160a01b0316151590565b600081815260096020526040808220805473ffffffffffffffffffffffffffffffffffffffff19166001600160a01b0386811691821790925591518493918716917f8c5be1e5ebec7d5bd14f71427d1e84f3dd0314c0f7b2291e5b200ac8c7c3b92591a4505050565b60006127a0826126ed565b6127f75760405162461bcd60e51b815260206004820152602260248201527f455243313139303a2054686520746f6b656e20646f6573206e6f7420657869736044820152613a1760f11b6064820152608401610878565b6000612802836110c1565b9050806001600160a01b0316846001600160a01b0316148061283d5750836001600160a01b03166128328461081a565b6001600160a01b0316145b8061286d57506001600160a01b038082166000908152600c602090815260408083209388168352929052205460ff165b949350505050565b612880848484612984565b61288c84848484613566565b610aa4576040805162461bcd60e51b81526020600482015260248101919091527f455243313139303a205472616e7366657220746f20636f6e7472616374206e6f60448201527f7420696d706c656d656e74696e6720494552433131393052656365697665722e6064820152608401610878565b600061290b826126ed565b6129625760405162461bcd60e51b815260206004820152602260248201527f455243313139303a2054686520746f6b656e20646f6573206e6f7420657869736044820152613a1760f11b6064820152608401610878565b600061280283610aaa565b612978848484612fe2565b61288c84848484613706565b600061298f826110c1565b9050836001600160a01b0316816001600160a01b031614612a3e5760405162461bcd60e51b815260206004820152604260248201527f455243313139303a2043616e6e6f74207472616e7366657220746865206f776e60448201527f657273686970206c6963656e7365206966206974206973206e6f74206f776e6560648201527f642e000000000000000000000000000000000000000000000000000000000000608482015260a401610878565b6001600160a01b038316612aba5760405162461bcd60e51b815260206004820152602d60248201527f455243313139303a2043616e6e6f74207472616e7366657220746f207468652060448201527f7a65726f20616464726573732e000000000000000000000000000000000000006064820152608401610878565b612ac68160008461272c565b6001600160a01b0384166000908152600660205260408120805460019290612aef908490613e1e565b90915550506001600160a01b0383166000908152600660205260408120805460019290612b1d908490613f5c565b9091555050600082815260026020526040808220805473ffffffffffffffffffffffffffffffffffffffff19166001600160a01b0387811691821790925591518593918816917fe80a6bc7d5973fd4e185e65f6809de784f12b41b6e342e215b7d37669cd3cc7f91a450505050565b600e80546001600160a01b0383811673ffffffffffffffffffffffffffffffffffffffff19831681179093556040519116919082907f8be0079c531659141344cd1fd0a4f28419497f9722a3daafe3b4186f6b6457e090600090a35050565b6001600160a01b038216612c675760405162461bcd60e51b815260206004820152602760248201527f455243313139303a20746f2063616e6e6f7420626520746865207a65726f206160448201527f6464726573732e000000000000000000000000000000000000000000000000006064820152608401610878565b612c70816126ed565b15612cc85760405162461bcd60e51b815260206004820152602260248201527f455243313139303a2054686520746f6b656e20616c7265616479206578697374604482015261399760f11b6064820152608401610878565b6001600160a01b0382166000908152600660205260408120805460019290612cf1908490613f5c565b90915550506001600160a01b0382166000908152600760205260408120805460019290612d1f908490613f5c565b9091555050600081815260026020908152604080832080546001600160a01b03871673ffffffffffffffffffffffffffffffffffffffff199182168117909255600390935281842080549093168117909255518392907fe80a6bc7d5973fd4e185e65f6809de784f12b41b6e342e215b7d37669cd3cc7f908290a460405181906001600160a01b038416906000907f17e7f9521d748f438723d107c498592c030975fd52ce9ca0ff758b7b96cb36ca908290a45050565b612ddf836126ed565b612e365760405162461bcd60e51b815260206004820152602260248201527f455243313139303a2054686520746f6b656e20646f6573206e6f7420657869736044820152613a1760f11b6064820152608401610878565b6000838152600d60205260409020610aa49083836138b7565b612e58836126ed565b612ea45760405162461bcd60e51b815260206004820152601d60248201527f455243313139303a20746f6b656e20616c7265616479206d696e7465640000006044820152606401610878565b60648260ff1611158015612eb6575060015b612f285760405162461bcd60e51b815260206004820152603160248201527f455243313139303a20526f79616c747920666f722072656e74616c206f75742060448201527f6f662072616e6765205b302c3130305d2e0000000000000000000000000000006064820152608401610878565b60648160ff1611158015612f3a575060015b612fac5760405162461bcd60e51b815260206004820152603d60248201527f455243313139303a20526f79616c747920666f72206f776e657273686970207460448201527f72616e73666572206f7574206f662072616e6765205b302c3130305d2e0000006064820152608401610878565b6000928352600a60209081526040808520805460ff1990811660ff96871617909155600b90925290932080549093169116179055565b6000612fed82610aaa565b9050836001600160a01b0316816001600160a01b03161461309c5760405162461bcd60e51b815260206004820152604260248201527f455243313139303a2043616e6e6f74207472616e7366657220746865206f776e60448201527f657273686970206c6963656e7365206966206974206973206e6f74206f776e6560648201527f642e000000000000000000000000000000000000000000000000000000000000608482015260a401610878565b6001600160a01b0383166131185760405162461bcd60e51b815260206004820152602d60248201527f455243313139303a2043616e6e6f74207472616e7366657220746f207468652060448201527f7a65726f20616464726573732e000000000000000000000000000000000000006064820152608401610878565b6131248160008461272c565b6001600160a01b038416600090815260076020526040812080546001929061314d908490613e1e565b90915550506001600160a01b038316600090815260076020526040812080546001929061317b908490613f5c565b9091555050600082815260036020526040808220805473ffffffffffffffffffffffffffffffffffffffff19166001600160a01b0387811691821790925591518593918816917f17e7f9521d748f438723d107c498592c030975fd52ce9ca0ff758b7b96cb36ca91a450505050565b816001600160a01b0316836001600160a01b031614156132725760405162461bcd60e51b815260206004820152602c60248201527f455243313139303a20546865206f776e65722063616e6e6f7420617070726f7660448201527f6520746865697273656c662e00000000000000000000000000000000000000006064820152608401610878565b6001600160a01b038381166000818152600c6020908152604080832094871680845294909152808220805460ff19168615159081179091559051909392917f17307eab39ab6107e8899845ad3d59bd9653f200f220920489ca2b5937696c3191a4505050565b60006132e3826126ed565b1561333b5760405162461bcd60e51b815260206004820152602260248201527f455243313139303a2054686520746f6b656e20616c7265616479206578697374604482015261399760f11b6064820152608401610878565b506000908152600a602052604090205460ff1690565b60606010805461079790613d98565b6001600160a01b0383166133ca5760405162461bcd60e51b815260206004820152602b60248201527f455243313139303a2072656e7465722063616e6e6f7420626520746865207a6560448201526a39379030b2323932b9b99760a91b6064820152608401610878565b6133d3826126ed565b61342a5760405162461bcd60e51b815260206004820152602260248201527f455243313139303a2054686520746f6b656e20646f6573206e6f7420657869736044820152613a1760f11b6064820152608401610878565b60008281526004602090815260408083206001600160a01b0387168085529083528184208590558584526005835281842080546001818101835591865284862001805473ffffffffffffffffffffffffffffffffffffffff191683179055908452600890925282208054919290916134a3908490613f5c565b909155505060405181815282906001600160a01b038516907fbde1f9520db9dbbe765a8fa71cf09322ecafa1c2ac591112fe5b2f137549d6de9060200160405180910390a3505050565b60006134f8826126ed565b156135505760405162461bcd60e51b815260206004820152602260248201527f455243313139303a2054686520746f6b656e20616c7265616479206578697374604482015261399760f11b6064820152608401610878565b506000908152600b602052604090205460ff1690565b60006001600160a01b0384163b156136fb576040517f6b6ea7610000000000000000000000000000000000000000000000000000000081526001600160a01b03851690636b6ea761906135c3903390899088908890600401613f74565b6020604051808303816000875af19250505080156135fe575060408051601f3d908101601f191682019092526135fb91810190613fb0565b60015b6136b0573d80801561362c576040519150601f19603f3d011682016040523d82523d6000602084013e613631565b606091505b5080516136a8576040805162461bcd60e51b81526020600482015260248101919091527f455243313139303a205472616e7366657220746f20636f6e7472616374206e6f60448201527f7420696d706c656d656e74696e6720494552433131393052656365697665722e6064820152608401610878565b805181602001fd5b7fffffffff00000000000000000000000000000000000000000000000000000000167f6b6ea7610000000000000000000000000000000000000000000000000000000014905061286d565b506001949350505050565b60006001600160a01b0384163b156136fb576040517f996206e00000000000000000000000000000000000000000000000000000000081526001600160a01b0385169063996206e090613763903390899088908890600401613f74565b6020604051808303816000875af192505050801561379e575060408051601f3d908101601f1916820190925261379b91810190613fb0565b60015b61386c573d8080156137cc576040519150601f19603f3d011682016040523d82523d6000602084013e6137d1565b606091505b5080516136a85760405162461bcd60e51b815260206004820152605560248201527f455243313139303a205472696564207472616e7366657220746f20636f6e747260448201527f616374206e6f7420696d706c656d656e74696e6720494552433131393043726560648201527f61746976654c6963656e736552656365697665722e0000000000000000000000608482015260a401610878565b7fffffffff00000000000000000000000000000000000000000000000000000000167f996206e00000000000000000000000000000000000000000000000000000000014905061286d565b8280546138c390613d98565b90600052602060002090601f0160209004810192826138e5576000855561392b565b82601f106138fe5782800160ff1982351617855561392b565b8280016001018555821561392b579182015b8281111561392b578235825591602001919060010190613910565b5061393792915061393b565b5090565b5b80821115613937576000815560010161393c565b7fffffffff000000000000000000000000000000000000000000000000000000008116811461234a57600080fd5b60006020828403121561399057600080fd5b813561203881613950565b60005b838110156139b657818101518382015260200161399e565b83811115610aa45750506000910152565b600081518084526139df81602086016020860161399b565b601f01601f19169290920160200192915050565b60208152600061203860208301846139c7565b600060208284031215613a1857600080fd5b5035919050565b80356001600160a01b0381168114613a3657600080fd5b919050565b60008060408385031215613a4e57600080fd5b613a5783613a1f565b946020939093013593505050565b634e487b7160e01b600052604160045260246000fd5b60008060008060808587031215613a9157600080fd5b613a9a85613a1f565b9350613aa860208601613a1f565b925060408501359150606085013567ffffffffffffffff80821115613acc57600080fd5b818701915087601f830112613ae057600080fd5b813581811115613af257613af2613a65565b604051601f8201601f19908116603f01168101908382118183101715613b1a57613b1a613a65565b816040528281528a6020848701011115613b3357600080fd5b82602086016020830137600060208483010152809550505050505092959194509250565b600080600060608486031215613b6c57600080fd5b613b7584613a1f565b9250613b8360208501613a1f565b9150604084013590509250925092565b600060208284031215613ba557600080fd5b61203882613a1f565b60008060408385031215613bc157600080fd5b82359150613bd160208401613a1f565b90509250929050565b60008060408385031215613bed57600080fd5b50508035926020909101359150565b803560ff81168114613a3657600080fd5b600080600080600060808688031215613c2557600080fd5b613c2e86613a1f565b9450602086013567ffffffffffffffff80821115613c4b57600080fd5b818801915088601f830112613c5f57600080fd5b813581811115613c6e57600080fd5b896020828501011115613c8057600080fd5b602083019650809550505050613c9860408701613bfc565b9150613ca660608701613bfc565b90509295509295909350565b60008060408385031215613cc557600080fd5b613cce83613a1f565b915060208301358015158114613ce357600080fd5b809150509250929050565b6020808252825182820181905260009190848201906040850190845b81811015613d2f5783516001600160a01b031683529284019291840191600101613d0a565b50909695505050505050565b60008060408385031215613d4e57600080fd5b613d5783613a1f565b9150613bd160208401613a1f565b600080600060608486031215613d7a57600080fd5b613d8384613a1f565b95602085013595506040909401359392505050565b600181811c90821680613dac57607f821691505b60208210811415613dcd57634e487b7160e01b600052602260045260246000fd5b50919050565b634e487b7160e01b600052601160045260246000fd5b6000816000190483118215151615613e0357613e03613dd3565b500290565b634e487b7160e01b600052603260045260246000fd5b600082821015613e3057613e30613dd3565b500390565b634e487b7160e01b600052603160045260246000fd5b6000600019821415613e5f57613e5f613dd3565b5060010190565b600082613e8357634e487b7160e01b600052601260045260246000fd5b500490565b600060ff821660ff841680821015613ea257613ea2613dd3565b90039392505050565b600083516020613ebe828583890161399b565b845491840191600090600181811c9080831680613edc57607f831692505b858310811415613efa57634e487b7160e01b85526022600452602485fd5b808015613f0e5760018114613f1f57613f4c565b60ff19851688528388019550613f4c565b60008b81526020902060005b85811015613f445781548a820152908401908801613f2b565b505083880195505b50939a9950505050505050505050565b60008219821115613f6f57613f6f613dd3565b500190565b60006001600160a01b03808716835280861660208401525083604083015260806060830152613fa660808301846139c7565b9695505050505050565b600060208284031215613fc257600080fd5b81516120388161395056fea264697066735822122086228650c39b1aca1860ace81a8dfefaebdd19eb423594d18a819f47d7168b2964736f6c634300080b0033a2646970667358221220ca4d955d1c30de39fac72091587212f44741d248b8e57c04dc1deee64d9c9b4b64736f6c634300080b0033",
  "immutableReferences": {},
  "source": "// SPDX-License-Identifier: MIT\r\npragma solidity >=0.4.22 <0.9.0;\r\n\r\nimport \"./IERC1190Marketplace.sol\";\r\nimport \"non-fungible-royalty-token/contracts/ERC1190Tradable.sol\";\r\nimport \"@openzeppelin/contracts/utils/Context.sol\";\r\n\r\ncontract ERC1190Marketplace is Context, IERC1190Marketplace {\r\n    mapping(address => address[]) private _collectionsOwned;\r\n\r\n    mapping(address => address) private _collectionCreators;\r\n\r\n    address[] private _creators;\r\n\r\n    address[] private _collections;\r\n\r\n    mapping(address => mapping(uint256 => address[]))\r\n        private _ownershipLicenseApprovalRequests;\r\n\r\n    mapping(address => mapping(uint256 => address[]))\r\n        private _creativeLicenseApprovalRequests;\r\n\r\n    function creatorOf(address collectionAddress)\r\n        external\r\n        view\r\n        override\r\n        returns (address)\r\n    {\r\n        require(\r\n            collectionAddress != address(0),\r\n            \"ERC1190Marketplace: collectionAddress cannot be the zero address.\"\r\n        );\r\n\r\n        return _collectionCreators[collectionAddress];\r\n    }\r\n\r\n    function allCollections()\r\n        external\r\n        view\r\n        override\r\n        returns (address[] memory)\r\n    {\r\n        return _collections;\r\n    }\r\n\r\n    function collectionsOf(address collectionOwner)\r\n        external\r\n        view\r\n        override\r\n        returns (address[] memory)\r\n    {\r\n        require(\r\n            collectionOwner != address(0),\r\n            \"ERC1190Marketplace: collectionOwner cannot be the zero address.\"\r\n        );\r\n\r\n        return _collectionsOwned[collectionOwner];\r\n    }\r\n\r\n    function deployNewCollection(\r\n        string calldata name,\r\n        string calldata symbol,\r\n        string calldata baseURI\r\n    ) external override returns (address) {\r\n        ERC1190Tradable newCollection = new ERC1190Tradable(\r\n            name,\r\n            symbol,\r\n            baseURI\r\n        );\r\n        address newCollectionAddress = address(newCollection);\r\n        address creator = _msgSender();\r\n\r\n        newCollection.transferOwnership(creator);\r\n\r\n        _collectionsOwned[creator].push(newCollectionAddress);\r\n        _collectionCreators[newCollectionAddress] = creator;\r\n        _creators.push(creator);\r\n        _collections.push(newCollectionAddress);\r\n\r\n        emit CollectionDeployed(name, symbol, baseURI, newCollectionAddress);\r\n\r\n        return newCollectionAddress;\r\n    }\r\n\r\n    function requireOwnershipLicenseTransferApproval(\r\n        address collectionAddress,\r\n        uint256 tokenId\r\n    ) external override {\r\n        require(\r\n            collectionAddress != address(0),\r\n            \"ERC1190Marketplace: collectionAddress cannot be the zero address.\"\r\n        );\r\n\r\n        _ownershipLicenseApprovalRequests[collectionAddress][tokenId].push(\r\n            _msgSender()\r\n        );\r\n    }\r\n\r\n    function requireCreativeLicenseTransferApproval(\r\n        address collectionAddress,\r\n        uint256 tokenId\r\n    ) external override {\r\n        require(\r\n            collectionAddress != address(0),\r\n            \"ERC1190Marketplace: collectionAddress cannot be the zero address.\"\r\n        );\r\n\r\n        _creativeLicenseApprovalRequests[collectionAddress][tokenId].push(\r\n            _msgSender()\r\n        );\r\n    }\r\n\r\n    function getOwnershipLicenseTransferRequests(\r\n        address collectionAddress,\r\n        uint256 tokenId\r\n    ) external view override returns (address[] memory) {\r\n        require(\r\n            collectionAddress != address(0),\r\n            \"ERC1190Marketplace: collectionAddress cannot be the zero address.\"\r\n        );\r\n        return _ownershipLicenseApprovalRequests[collectionAddress][tokenId];\r\n    }\r\n\r\n    function getCreativeLicenseTransferRequests(\r\n        address collectionAddress,\r\n        uint256 tokenId\r\n    ) external view override returns (address[] memory) {\r\n        require(\r\n            collectionAddress != address(0),\r\n            \"ERC1190Marketplace: collectionAddress cannot be the zero address.\"\r\n        );\r\n        return _creativeLicenseApprovalRequests[collectionAddress][tokenId];\r\n    }\r\n}\r\n",
  "sourcePath": "C:\\Users\\domir\\Desktop\\non-fungible-royalty-token\\marketplace-contracts\\contracts\\ERC1190Marketplace.sol",
  "compiler": {
    "name": "solc",
    "version": "0.8.11+commit.d7f03943.Emscripten.clang"
  },
  "schemaVersion": "3.4.4",
  "updatedAt": "2022-01-28T19:52:28.499Z",
  "networkType": "ethereum",
  "devdoc": {
    "kind": "dev",
    "methods": {},
    "version": 1
  },
  "userdoc": {
    "kind": "user",
    "methods": {},
    "version": 1
  }
}