{
  "contractName": "ERC1190Marketplace",
  "abi": [
    {
      "anonymous": false,
      "inputs": [
        {
          "indexed": false,
          "internalType": "string",
          "name": "name",
          "type": "string"
        },
        {
          "indexed": false,
          "internalType": "string",
          "name": "symbol",
          "type": "string"
        },
        {
          "indexed": false,
          "internalType": "string",
          "name": "baseURI",
          "type": "string"
        },
        {
          "indexed": false,
          "internalType": "address",
          "name": "contractAddress",
          "type": "address"
        }
      ],
      "name": "CollectionDeployed",
      "type": "event"
    },
    {
      "anonymous": false,
      "inputs": [
        {
          "indexed": false,
          "internalType": "address",
          "name": "account",
          "type": "address"
        },
        {
          "indexed": false,
          "internalType": "uint256",
          "name": "tokenId",
          "type": "uint256"
        }
      ],
      "name": "LicenseRequestSent",
      "type": "event"
    },
    {
      "inputs": [
        {
          "internalType": "address",
          "name": "collectionAddress",
          "type": "address"
        }
      ],
      "name": "creatorOf",
      "outputs": [
        {
          "internalType": "address",
          "name": "",
          "type": "address"
        }
      ],
      "stateMutability": "view",
      "type": "function",
      "constant": true
    },
    {
      "inputs": [],
      "name": "allCollections",
      "outputs": [
        {
          "internalType": "address[]",
          "name": "",
          "type": "address[]"
        }
      ],
      "stateMutability": "view",
      "type": "function",
      "constant": true
    },
    {
      "inputs": [
        {
          "internalType": "address",
          "name": "collectionOwner",
          "type": "address"
        }
      ],
      "name": "collectionsOf",
      "outputs": [
        {
          "internalType": "address[]",
          "name": "",
          "type": "address[]"
        }
      ],
      "stateMutability": "view",
      "type": "function",
      "constant": true
    },
    {
      "inputs": [
        {
          "internalType": "string",
          "name": "name",
          "type": "string"
        },
        {
          "internalType": "string",
          "name": "symbol",
          "type": "string"
        },
        {
          "internalType": "string",
          "name": "baseURI",
          "type": "string"
        }
      ],
      "name": "deployNewCollection",
      "outputs": [
        {
          "internalType": "address",
          "name": "",
          "type": "address"
        }
      ],
      "stateMutability": "nonpayable",
      "type": "function"
    },
    {
      "inputs": [
        {
          "internalType": "address",
          "name": "collectionAddress",
          "type": "address"
        },
        {
          "internalType": "uint256",
          "name": "tokenId",
          "type": "uint256"
        }
      ],
      "name": "requireOwnershipLicenseTransferApproval",
      "outputs": [],
      "stateMutability": "nonpayable",
      "type": "function"
    },
    {
      "inputs": [
        {
          "internalType": "address",
          "name": "collectionAddress",
          "type": "address"
        },
        {
          "internalType": "uint256",
          "name": "tokenId",
          "type": "uint256"
        }
      ],
      "name": "requireCreativeLicenseTransferApproval",
      "outputs": [],
      "stateMutability": "nonpayable",
      "type": "function"
    },
    {
      "inputs": [
        {
          "internalType": "address",
          "name": "collectionAddress",
          "type": "address"
        },
        {
          "internalType": "uint256",
          "name": "tokenId",
          "type": "uint256"
        },
        {
          "internalType": "address",
          "name": "toRemove",
          "type": "address"
        }
      ],
      "name": "removeOwnershipLicenseTransferApproval",
      "outputs": [],
      "stateMutability": "nonpayable",
      "type": "function"
    },
    {
      "inputs": [
        {
          "internalType": "address",
          "name": "collectionAddress",
          "type": "address"
        },
        {
          "internalType": "uint256",
          "name": "tokenId",
          "type": "uint256"
        },
        {
          "internalType": "address",
          "name": "toRemove",
          "type": "address"
        }
      ],
      "name": "removeCreativeLicenseTransferApproval",
      "outputs": [],
      "stateMutability": "nonpayable",
      "type": "function"
    },
    {
      "inputs": [
        {
          "internalType": "address",
          "name": "collectionAddress",
          "type": "address"
        },
        {
          "internalType": "uint256",
          "name": "tokenId",
          "type": "uint256"
        }
      ],
      "name": "getOwnershipLicenseTransferRequests",
      "outputs": [
        {
          "internalType": "address[]",
          "name": "",
          "type": "address[]"
        }
      ],
      "stateMutability": "view",
      "type": "function",
      "constant": true
    },
    {
      "inputs": [
        {
          "internalType": "address",
          "name": "collectionAddress",
          "type": "address"
        },
        {
          "internalType": "uint256",
          "name": "tokenId",
          "type": "uint256"
        }
      ],
      "name": "getCreativeLicenseTransferRequests",
      "outputs": [
        {
          "internalType": "address[]",
          "name": "",
          "type": "address[]"
        }
      ],
      "stateMutability": "view",
      "type": "function",
      "constant": true
    }
  ],
  "bytecode": "0x608060405234801561001057600080fd5b50615e99806100206000396000f3fe60806040523480156200001157600080fd5b5060043610620000cd5760003560e01c8063de07b850116200007f578063e40d45441162000062578063e40d454414620001a1578063e7dce10214620001ab578063ea939dc914620001c257600080fd5b8063de07b8501462000173578063dea5c2e0146200018a57600080fd5b80637434b33011620000b45780637434b330146200012c578063b00a9c141462000143578063b4b96ff5146200015c57600080fd5b80632da8d02014620000d257806334aed6f51462000106575b600080fd5b620000e9620000e336600462000f07565b620001d9565b6040516001600160a01b0390911681526020015b60405180910390f35b6200011d6200011736600462000fc8565b620003c0565b604051620000fd919062000ff5565b6200011d6200013d36600462001044565b620004cd565b6200015a6200015436600462001069565b620005c1565b005b6200015a6200016d36600462000fc8565b62000845565b6200011d6200018436600462000fc8565b6200096b565b620000e96200019b36600462001044565b62000a72565b6200011d62000b1b565b6200015a620001bc36600462001069565b62000b7f565b6200015a620001d336600462000fc8565b62000dfb565b600080878787878787604051620001f09062000ead565b6200020196959493929190620010f3565b604051809103906000f0801580156200021e573d6000803e3d6000fd5b509050806000336040517ff2fde38b0000000000000000000000000000000000000000000000000000000081526001600160a01b0380831660048301529192509084169063f2fde38b90602401600060405180830381600087803b1580156200028657600080fd5b505af11580156200029b573d6000803e3d6000fd5b5050506001600160a01b03808316600081815260208181526040808320805460018181018355918552838520018054968a1673ffffffffffffffffffffffffffffffffffffffff199788168117909155808552928190528184208054871686179055600280548083019091557f405787fa12a823e0f2b7631cc41b3ba8828b3321ca811111fa75cd3aa3bb5ace01805487169095179094556003805494850181559092527fc2575a0e9e593c00f959f8c92f12db2869c3395a3b0502d05e2516446f71f85b9092018054909316909117909155517f884116d376dcf43985e8655ad2731232ec00363e4f5aa6a4faa7d46cf2b756a19150620003ab908c908c908c908c908c908c908a9062001142565b60405180910390a15098975050505050505050565b60606001600160a01b0383166200044e5760405162461bcd60e51b815260206004820152604160248201527f455243313139304d61726b6574706c6163653a20636f6c6c656374696f6e416460448201527f64726573732063616e6e6f7420626520746865207a65726f20616464726573736064820152601760f91b608482015260a4015b60405180910390fd5b6001600160a01b038316600090815260046020908152604080832085845282529182902080548351818402810184019094528084529091830182828015620004c057602002820191906000526020600020905b81546001600160a01b03168152600190910190602001808311620004a1575b5050505050905092915050565b60606001600160a01b0382166200054d5760405162461bcd60e51b815260206004820152603f60248201527f455243313139304d61726b6574706c6163653a20636f6c6c656374696f6e4f7760448201527f6e65722063616e6e6f7420626520746865207a65726f20616464726573732e00606482015260840162000445565b6001600160a01b0382166000908152602081815260409182902080548351818402810184019094528084529091830182828015620005b557602002820191906000526020600020905b81546001600160a01b0316815260019091019060200180831162000596575b50505050509050919050565b6001600160a01b038316620006495760405162461bcd60e51b815260206004820152604160248201527f455243313139304d61726b6574706c6163653a20636f6c6c656374696f6e416460448201527f64726573732063616e6e6f7420626520746865207a65726f20616464726573736064820152601760f91b608482015260a40162000445565b6001600160a01b0383166000908152600460209081526040808320858452825280832080548251818502810185019093528083529192909190830182828015620006bd57602002820191906000526020600020905b81546001600160a01b031681526001909101906020018083116200069e575b505050505090506000805b82518110156200083d57836001600160a01b0316838281518110620006f157620006f1620011a2565b60200260200101516001600160a01b0316141562000828576001600160a01b0386166000908152600460209081526040808320888452909152902080546200073c90600190620011ce565b815481106200074f576200074f620011a2565b60009182526020808320909101546001600160a01b0389811684526004835260408085208a865290935291909220805491909216919083908110620007985762000798620011a2565b6000918252602080832091909101805473ffffffffffffffffffffffffffffffffffffffff19166001600160a01b03948516179055918816815260048252604080822088835290925220805480620007f457620007f4620011e8565b6000828152602090208101600019908101805473ffffffffffffffffffffffffffffffffffffffff19169055019055600191505b806200083481620011fe565b915050620006c8565b505050505050565b6001600160a01b038216620008cd5760405162461bcd60e51b815260206004820152604160248201527f455243313139304d61726b6574706c6163653a20636f6c6c656374696f6e416460448201527f64726573732063616e6e6f7420626520746865207a65726f20616464726573736064820152601760f91b608482015260a40162000445565b6001600160a01b03821660009081526005602090815260408083208484529091529020335b8154600181018355600092835260209283902001805473ffffffffffffffffffffffffffffffffffffffff19166001600160a01b039283161790556040805191851682529181018390527f2ebe3110cafcfe411960b43f12bbcdfcf7c9dddccf34e2b6a90cfd45c1f73f3c910160405180910390a15050565b60606001600160a01b038316620009f55760405162461bcd60e51b815260206004820152604160248201527f455243313139304d61726b6574706c6163653a20636f6c6c656374696f6e416460448201527f64726573732063616e6e6f7420626520746865207a65726f20616464726573736064820152601760f91b608482015260a40162000445565b6001600160a01b038316600090815260056020908152604080832085845282529182902080548351818402810184019094528084529091830182828015620004c0576020028201919060005260206000209081546001600160a01b03168152600190910190602001808311620004a1575050505050905092915050565b60006001600160a01b03821662000afc5760405162461bcd60e51b815260206004820152604160248201527f455243313139304d61726b6574706c6163653a20636f6c6c656374696f6e416460448201527f64726573732063616e6e6f7420626520746865207a65726f20616464726573736064820152601760f91b608482015260a40162000445565b506001600160a01b039081166000908152600160205260409020541690565b6060600380548060200260200160405190810160405280929190818152602001828054801562000b7557602002820191906000526020600020905b81546001600160a01b0316815260019091019060200180831162000b56575b5050505050905090565b6001600160a01b03831662000c075760405162461bcd60e51b815260206004820152604160248201527f455243313139304d61726b6574706c6163653a20636f6c6c656374696f6e416460448201527f64726573732063616e6e6f7420626520746865207a65726f20616464726573736064820152601760f91b608482015260a40162000445565b6001600160a01b038316600090815260056020908152604080832085845282528083208054825181850281018501909352808352919290919083018282801562000c7b57602002820191906000526020600020905b81546001600160a01b0316815260019091019060200180831162000c5c575b505050505090506000805b82518110156200083d57836001600160a01b031683828151811062000caf5762000caf620011a2565b60200260200101516001600160a01b0316141562000de6576001600160a01b03861660009081526005602090815260408083208884529091529020805462000cfa90600190620011ce565b8154811062000d0d5762000d0d620011a2565b60009182526020808320909101546001600160a01b0389811684526005835260408085208a86529093529190922080549190921691908390811062000d565762000d56620011a2565b6000918252602080832091909101805473ffffffffffffffffffffffffffffffffffffffff19166001600160a01b0394851617905591881681526005825260408082208883529092522080548062000db25762000db2620011e8565b6000828152602090208101600019908101805473ffffffffffffffffffffffffffffffffffffffff19169055019055600191505b8062000df281620011fe565b91505062000c86565b6001600160a01b03821662000e835760405162461bcd60e51b815260206004820152604160248201527f455243313139304d61726b6574706c6163653a20636f6c6c656374696f6e416460448201527f64726573732063616e6e6f7420626520746865207a65726f20616464726573736064820152601760f91b608482015260a40162000445565b6001600160a01b0382166000908152600460209081526040808320848452909152902033620008f2565b614c47806200121d83390190565b60008083601f84011262000ece57600080fd5b50813567ffffffffffffffff81111562000ee757600080fd5b60208301915083602082850101111562000f0057600080fd5b9250929050565b6000806000806000806060878903121562000f2157600080fd5b863567ffffffffffffffff8082111562000f3a57600080fd5b62000f488a838b0162000ebb565b9098509650602089013591508082111562000f6257600080fd5b62000f708a838b0162000ebb565b9096509450604089013591508082111562000f8a57600080fd5b5062000f9989828a0162000ebb565b979a9699509497509295939492505050565b80356001600160a01b038116811462000fc357600080fd5b919050565b6000806040838503121562000fdc57600080fd5b62000fe78362000fab565b946020939093013593505050565b6020808252825182820181905260009190848201906040850190845b81811015620010385783516001600160a01b03168352928401929184019160010162001011565b50909695505050505050565b6000602082840312156200105757600080fd5b620010628262000fab565b9392505050565b6000806000606084860312156200107f57600080fd5b6200108a8462000fab565b925060208401359150620010a16040850162000fab565b90509250925092565b8183528181602085013750600060208284010152600060207fffffffffffffffffffffffffffffffffffffffffffffffffffffffffffffffe0601f840116840101905092915050565b6060815260006200110960608301888a620010aa565b82810360208401526200111e818789620010aa565b9050828103604084015262001135818587620010aa565b9998505050505050505050565b6080815260006200115860808301898b620010aa565b82810360208401526200116d81888a620010aa565b9050828103604084015262001184818688620010aa565b9150506001600160a01b038316606083015298975050505050505050565b634e487b7160e01b600052603260045260246000fd5b634e487b7160e01b600052601160045260246000fd5b600082821015620011e357620011e3620011b8565b500390565b634e487b7160e01b600052603160045260246000fd5b6000600019821415620012155762001215620011b8565b506001019056fe60806040523480156200001157600080fd5b5060405162004c4738038062004c47833981016040819052620000349162000268565b8251839083906200004d906000906020850190620000f5565b50805162000063906001906020840190620000f5565b505050620000806200007a6200009f60201b60201c565b620000a3565b805162000095906012906020840190620000f5565b5050505062000336565b3390565b601080546001600160a01b038381166001600160a01b0319831681179093556040519116919082907f8be0079c531659141344cd1fd0a4f28419497f9722a3daafe3b4186f6b6457e090600090a35050565b8280546200010390620002f9565b90600052602060002090601f01602090048101928262000127576000855562000172565b82601f106200014257805160ff191683800117855562000172565b8280016001018555821562000172579182015b828111156200017257825182559160200191906001019062000155565b506200018092915062000184565b5090565b5b8082111562000180576000815560010162000185565b634e487b7160e01b600052604160045260246000fd5b600082601f830112620001c357600080fd5b81516001600160401b0380821115620001e057620001e06200019b565b604051601f8301601f19908116603f011681019082821181831017156200020b576200020b6200019b565b816040528381526020925086838588010111156200022857600080fd5b600091505b838210156200024c57858201830151818301840152908201906200022d565b838211156200025e5760008385830101525b9695505050505050565b6000806000606084860312156200027e57600080fd5b83516001600160401b03808211156200029657600080fd5b620002a487838801620001b1565b94506020860151915080821115620002bb57600080fd5b620002c987838801620001b1565b93506040860151915080821115620002e057600080fd5b50620002ef86828701620001b1565b9150509250925092565b600181811c908216806200030e57607f821691505b602082108114156200033057634e487b7160e01b600052602260045260246000fd5b50919050565b61490180620003466000396000f3fe6080604052600436106102f25760003560e01c80638d6cf8bc1161018f578063c66130d7116100e1578063ec2b20ac1161008a578063f2fde38b11610064578063f2fde38b146108aa578063f3e4198e146108ca578063f9de1d83146108ea57600080fd5b8063ec2b20ac1461084a578063ef1e00e01461086a578063f2a943271461088a57600080fd5b8063d41eeddf116100bb578063d41eeddf146107ea578063de8e7bab1461080a578063e46c93ca1461082a57600080fd5b8063c66130d71461078a578063c87b56dd146107aa578063cfa6d9da146107ca57600080fd5b8063a333818c11610143578063bed42b351161011d578063bed42b351461072a578063bf0a660b1461074a578063c588ea5c1461076a57600080fd5b8063a333818c146106ca578063aad1b617146106f7578063afe9a4ff1461071757600080fd5b806395d89b411161017457806395d89b41146106755780639940a11a1461068a5780639f2cd0e4146106aa57600080fd5b80638d6cf8bc146106375780638da5cb5b1461065757600080fd5b806341fb748b116102485780636ebd773d116101fc57806379b66eb7116101d657806379b66eb7146105d7578063851fcadd146105f75780638c4b5a921461061757600080fd5b80636ebd773d146105825780636f902516146105a2578063715018a6146105c257600080fd5b80634cd5ca8e1161022d5780634cd5ca8e1461052d5780636352211e1461054d57806369bb4dc21461056d57600080fd5b806341fb748b146104df5780634909d94e1461050d57600080fd5b80631c2fc4d0116102aa57806325dc12641161028457806325dc12641461047f5780632a5982101461049f5780633c734234146104bf57600080fd5b80631c2fc4d0146103cc578063224157ea1461041557806325d8a3581461044d57600080fd5b80630b97be96116102db5780630b97be961461034e5780630c2e6c161461037057806319f572d51461038357600080fd5b806301ffc9a7146102f757806306fdde031461032c575b600080fd5b34801561030357600080fd5b5061031761031236600461421b565b6108fd565b60405190151581526020015b60405180910390f35b34801561033857600080fd5b506103416109c1565b6040516103239190614290565b34801561035a57600080fd5b5061036e6103693660046142d5565b610a53565b005b61036e61037e3660046143b1565b610b0c565b34801561038f57600080fd5b5061031761039e3660046143dd565b6001600160a01b039182166000908152600a6020908152604080832093909416825291909152205460ff1690565b3480156103d857600080fd5b506103176103e73660046143dd565b6001600160a01b039182166000908152600c6020908152604080832093909416825291909152205460ff1690565b34801561042157600080fd5b50610435610430366004614410565b610e9d565b6040516001600160a01b039091168152602001610323565b34801561045957600080fd5b5061046d610468366004614410565b610f28565b60405160ff9091168152602001610323565b34801561048b57600080fd5b5061036e61049a366004614429565b610f33565b3480156104ab57600080fd5b506104356104ba366004614410565b610f53565b3480156104cb57600080fd5b5061036e6104da3660046142d5565b610fd1565b3480156104eb57600080fd5b506104ff6104fa366004614465565b61107f565b604051908152602001610323565b34801561051957600080fd5b5061036e610528366004614429565b6113d3565b34801561053957600080fd5b506104ff61054836600461449a565b6114a6565b34801561055957600080fd5b50610435610568366004614410565b611540565b34801561057957600080fd5b506104ff6115cb565b34801561058e57600080fd5b5061036e61059d3660046144b5565b6115db565b3480156105ae57600080fd5b506104ff6105bd366004614410565b611713565b3480156105ce57600080fd5b5061036e611790565b3480156105e357600080fd5b5061036e6105f23660046144d8565b6117f6565b34801561060357600080fd5b506104ff6106123660046144b5565b61190c565b34801561062357600080fd5b5061036e610632366004614429565b611a01565b34801561064357600080fd5b5061036e6106523660046144b5565b611a1c565b34801561066357600080fd5b506010546001600160a01b0316610435565b34801561068157600080fd5b50610341611b42565b34801561069657600080fd5b506104ff6106a536600461450b565b611b51565b3480156106b657600080fd5b5061036e6106c5366004614429565b611c46565b3480156106d657600080fd5b506106ea6106e5366004614410565b611d19565b60405161032391906145b0565b34801561070357600080fd5b506104ff61071236600461449a565b611d85565b61036e610725366004614410565b611e0d565b34801561073657600080fd5b5061036e6107453660046145fd565b6120d2565b34801561075657600080fd5b506104ff610765366004614410565b6120e1565b34801561077657600080fd5b5061046d610785366004614410565b61215e565b34801561079657600080fd5b506104ff6107a536600461449a565b612169565b3480156107b657600080fd5b506103416107c5366004614410565b612203565b3480156107d657600080fd5b506104356107e5366004614410565b612359565b3480156107f657600080fd5b5061036e610805366004614639565b6123d7565b34801561081657600080fd5b5061036e6108253660046144d8565b61252b565b34801561083657600080fd5b5061036e6108453660046145fd565b612641565b34801561085657600080fd5b5061036e6108653660046144d8565b61264c565b34801561087657600080fd5b506104ff610885366004614410565b612762565b34801561089657600080fd5b5061036e6108a5366004614639565b6127df565b3480156108b657600080fd5b5061036e6108c536600461449a565b612933565b3480156108d657600080fd5b5061036e6108e5366004614663565b612a15565b61036e6108f8366004614410565b612a20565b60007fffffffff000000000000000000000000000000000000000000000000000000008216158061096f57507fffffffff0000000000000000000000000000000000000000000000000000000082167f5b5e139f00000000000000000000000000000000000000000000000000000000145b806109bb57507f01ffc9a7000000000000000000000000000000000000000000000000000000007fffffffff000000000000000000000000000000000000000000000000000000008316145b92915050565b6060600080546109d090614696565b80601f01602080910402602001604051908101604052809291908181526020018280546109fc90614696565b8015610a495780601f10610a1e57610100808354040283529160200191610a49565b820191906000526020600020905b815481529060010190602001808311610a2c57829003601f168201915b5050505050905090565b610a5d3383612db5565b610afa5760405162461bcd60e51b815260206004820152604a60248201527f455243313139303a205468652073656e646572206973206e656974686572207460448201527f6865206f776e6572206e6f7220617070726f76656420746f206d616e6167652060648201527f74686520746f6b656e2e00000000000000000000000000000000000000000000608482015260a4015b60405180910390fd5b610b0684848484612e95565b50505050565b610b1583612f20565b610b745760405162461bcd60e51b815260206004820152602a60248201527f455243313139305472616461626c653a2054686520746f6b656e20646f6573206044820152693737ba1032bc34b9ba1760b11b6064820152608401610af1565b600083815260156020526040902054610c1b5760405162461bcd60e51b815260206004820152604160248201527f455243313139305472616461626c653a205468652061737365742072656c617460448201527f656420746f207468697320746f6b656e206973206e6f742072656e7461626c6560648201527f2e00000000000000000000000000000000000000000000000000000000000000608482015260a401610af1565b60006103e8610c2a84846146e7565b610c3491906146fe565b905060008111610cac5760405162461bcd60e51b815260206004820152603260248201527f455243313139305472616461626c653a205468652072656e74616c2074696d6560448201527f206d75737420626520706f7369746976652e00000000000000000000000000006064820152608401610af1565b600084815260156020526040812054610cc59083614720565b905080341015610d635760405162461bcd60e51b815260206004820152605560248201527f455243313139305472616461626c653a2054686520616d6f756e74206f66207760448201527f65692073656e74206973206e6f742073756666696369656e7420746f20636f7660648201527f6572207468652072656e7420657870656e7365732e0000000000000000000000608482015260a401610af1565b6000610d6e86611540565b90506000610d7b87610e9d565b9050610d88338887612a15565b806001600160a01b0316826001600160a01b03161415610ddd576040516001600160a01b038316903480156108fc02916000818181858888f19350505050158015610dd7573d6000803e3d6000fd5b50610e94565b6000610de888612f5f565b90506001600160a01b0383166108fc6064610e03848261473f565b610e109060ff1634614720565b610e1a91906146fe565b6040518115909202916000818181858888f19350505050158015610e42573d6000803e3d6000fd5b506001600160a01b0382166108fc6064610e5f60ff851634614720565b610e6991906146fe565b6040518115909202916000818181858888f19350505050158015610e91573d6000803e3d6000fd5b50505b50505050505050565b6000818152600360205260408120546001600160a01b0316806109bb5760405162461bcd60e51b815260206004820152603460248201527f455243313139303a204e6f626f647920686173206372656174697665206f776e60448201527f657273686970206f76657220746f6b656e49642e0000000000000000000000006064820152608401610af1565b60006109bb82612fd7565b610f4e83838360405180602001604052806000815250610fd1565b505050565b6000610f5e82612f20565b610fb55760405162461bcd60e51b815260206004820152602260248201527f455243313139303a2054686520746f6b656e20646f6573206e6f7420657869736044820152613a1760f11b6064820152608401610af1565b506000908152600b60205260409020546001600160a01b031690565b610fdb338361304f565b6110735760405162461bcd60e51b815260206004820152605360248201527f455243313139303a205468652073656e646572206973206e656974686572207460448201527f6865206372656174697665206f776e6572206e6f7220617070726f766564207460648201527f6f206d616e6167652074686520746f6b656e2e00000000000000000000000000608482015260a401610af1565b610b068484848461312b565b600061108a84612f20565b6110e15760405162461bcd60e51b815260206004820152602260248201527f455243313139303a2054686520746f6b656e20646f6573206e6f7420657869736044820152613a1760f11b6064820152608401610af1565b6001600160a01b03821661114b5760405162461bcd60e51b815260206004820152602b60248201527f455243313139303a2072656e7465722063616e6e6f7420626520746865207a6560448201526a39379030b2323932b9b99760a91b6064820152608401610af1565b60008481526004602090815260408083206001600160a01b03861684529091529020546111e05760405162461bcd60e51b815260206004820152602d60248201527f455243313139303a205468652072656e74657220686173206e6f742072656e7460448201527f65642074686520746f6b656e2e000000000000000000000000000000000000006064820152608401610af1565b60008481526004602090815260408083206001600160a01b0386168452909152902054838110156113a7576000805b6000878152600560205260409020548110801561122a575081155b1561137657600087815260056020526040902080546001600160a01b03871691908390811061125b5761125b614762565b6000918252602090912001546001600160a01b031614156113645760008781526005602052604090208054611292906001906146e7565b815481106112a2576112a2614762565b60009182526020808320909101548983526005909152604090912080546001600160a01b0390921691839081106112db576112db614762565b6000918252602080832091909101805473ffffffffffffffffffffffffffffffffffffffff19166001600160a01b03949094169390931790925588815260059091526040902080548061133057611330614778565b6000828152602090208101600019908101805473ffffffffffffffffffffffffffffffffffffffff19169055019055600191505b8061136e8161478e565b91505061120f565b506001600160a01b03841660009081526008602052604081208054600192906113a09084906146e7565b9091555050505b505060008381526004602090815260408083206001600160a01b03851684529091529020549392505050565b6113dd3382612db5565b61149b5760405162461bcd60e51b815260206004820152606360248201527f455243313139303a205468652073656e646572206973206e656974686572207460448201527f6865206f776e6572206e6f7220617070726f76656420746f206d616e6167652060648201527f746865204f776e657273686970206c6963656e7365206f662074686520746f6b60848201527f656e2e000000000000000000000000000000000000000000000000000000000060a482015260c401610af1565b610f4e838383613142565b60006001600160a01b0382166115245760405162461bcd60e51b815260206004820152603260248201527f455243313139303a2063726561746976654f776e65722063616e6e6f7420626560448201527f20746865207a65726f20616464726573732e00000000000000000000000000006064820152608401610af1565b506001600160a01b031660009081526007602052604090205490565b6000818152600260205260408120546001600160a01b0316806109bb5760405162461bcd60e51b815260206004820152602b60248201527f455243313139303a204e6f626f647920686173206f776e657273686970206f7660448201527f657220746f6b656e49642e0000000000000000000000000000000000000000006064820152608401610af1565b60006115d660115490565b905090565b6001600160a01b03811661167d5760405162461bcd60e51b815260206004820152604a60248201527f455243313139305472616461626c653a2043616e6e6f74207472616e7366657260448201527f20746865206372656174697665206c6963656e736520746f20746865207a657260648201527f6f20616464726573732e00000000000000000000000000000000000000000000608482015260a401610af1565b600061168883610e9d565b9050336001600160a01b038216146117085760405162461bcd60e51b815260206004820152603e60248201527f455243313139305472616461626c653a205468652073656e64657220646f657360448201527f206e6f74206f776e20746865206372656174697665206c6963656e73652e00006064820152608401610af1565b610f4e818385611c46565b600061171e82612f20565b61177d5760405162461bcd60e51b815260206004820152602a60248201527f455243313139305472616461626c653a2054686520746f6b656e20646f6573206044820152693737ba1032bc34b9ba1760b11b6064820152608401610af1565b5060009081526014602052604090205490565b6010546001600160a01b031633146117ea5760405162461bcd60e51b815260206004820181905260248201527f4f776e61626c653a2063616c6c6572206973206e6f7420746865206f776e65726044820152606401610af1565b6117f4600061334a565b565b6117ff82612f20565b61185e5760405162461bcd60e51b815260206004820152602a60248201527f455243313139305472616461626c653a2054686520746f6b656e20646f6573206044820152693737ba1032bc34b9ba1760b11b6064820152608401610af1565b600081116118fa5760405162461bcd60e51b815260206004820152604360248201527f455243313139305472616461626c653a20546865206f776e657273686970206c60448201527f6963656e736520636f7374206d7573742062652067726561746572207468616e60648201527f20302e0000000000000000000000000000000000000000000000000000000000608482015260a401610af1565b60009182526013602052604090912055565b600061191783612f20565b61196e5760405162461bcd60e51b815260206004820152602260248201527f455243313139303a2054686520746f6b656e20646f6573206e6f7420657869736044820152613a1760f11b6064820152608401610af1565b6001600160a01b0382166119d85760405162461bcd60e51b815260206004820152602b60248201527f455243313139303a2072656e7465722063616e6e6f7420626520746865207a6560448201526a39379030b2323932b9b99760a91b6064820152608401610af1565b5060009182526004602090815260408084206001600160a01b0393909316845291905290205490565b610f4e83838360405180602001604052806000815250610a53565b6001600160a01b038116611aac5760405162461bcd60e51b815260206004820152604b60248201527f455243313139305472616461626c653a2043616e6e6f74207472616e7366657260448201527f20746865206f776e657273686970206c6963656e736520746f20746865207a6560648201526a39379030b2323932b9b99760a91b608482015260a401610af1565b6000611ab783611540565b9050336001600160a01b03821614611b375760405162461bcd60e51b815260206004820152603f60248201527f455243313139305472616461626c653a205468652073656e64657220646f657360448201527f206e6f74206f776e20746865206f776e657273686970206c6963656e73652e006064820152608401610af1565b610f4e8183856113d3565b6060600180546109d090614696565b6010546000906001600160a01b03163314611bae5760405162461bcd60e51b815260206004820181905260248201527f4f776e61626c653a2063616c6c6572206973206e6f7420746865206f776e65726044820152606401610af1565b611bbc601180546001019055565b6000611bc760115490565b9050611bd387826133a9565b611bde8187876135af565b611be9818585613628565b604080516001600160a01b038916815260ff86811660208301528516818301526060810183905290517fd3df8e557dd2db4e6ed42c0bc93d8dceae1dae9bd0d8bfa2c69d68759fceab539181900360800190a19695505050505050565b611c50338261304f565b611d0e5760405162461bcd60e51b815260206004820152606b60248201527f455243313139303a205468652073656e646572206973206e656974686572207460448201527f6865206372656174697665206f776e6572206e6f7220617070726f766564207460648201527f6f206d616e61676520746865206372656174697665206c6963656e7365206f6660848201527f2074686520746f6b656e2e00000000000000000000000000000000000000000060a482015260c401610af1565b610f4e8383836137b2565b600081815260056020908152604091829020805483518184028101840190945280845260609392830182828015611d7957602002820191906000526020600020905b81546001600160a01b03168152600190910190602001808311611d5b575b50505050509050919050565b60006001600160a01b038216611df15760405162461bcd60e51b815260206004820152602b60248201527f455243313139303a2072656e7465722063616e6e6f7420626520746865207a6560448201526a39379030b2323932b9b99760a91b6064820152608401610af1565b506001600160a01b031660009081526008602052604090205490565b611e1681612f20565b611e755760405162461bcd60e51b815260206004820152602a60248201527f455243313139305472616461626c653a2054686520746f6b656e20646f6573206044820152693737ba1032bc34b9ba1760b11b6064820152608401610af1565b600081815260146020526040902054611f1c5760405162461bcd60e51b815260206004820152604a60248201527f455243313139305472616461626c653a20546865206372656174697665206c6960448201527f63656e7365206f66207468697320746f6b656e2063616e6e6f7420626520747260648201527f616e736665727265642e00000000000000000000000000000000000000000000608482015260a401610af1565b600081815260146020526040902054341015611fec5760405162461bcd60e51b815260206004820152606b60248201527f455243313139305472616461626c653a2054686520616d6f756e74206f66207760448201527f65692073656e74206973206e6f742073756666696369656e7420666f72206f6260648201527f7461696e696e6720746865206372656174697665206c6963656e7365206f662060848201527f7468697320746f6b656e2e00000000000000000000000000000000000000000060a482015260c401610af1565b336120855760405162461bcd60e51b815260206004820152604a60248201527f455243313139305472616461626c653a2043616e6e6f74207472616e7366657260448201527f20746865206372656174697665206c6963656e736520746f20746865207a657260648201527f6f20616464726573732e00000000000000000000000000000000000000000000608482015260a401610af1565b600061209082610e9d565b905061209d813384611c46565b6040516001600160a01b038216903480156108fc02916000818181858888f19350505050158015610f4e573d6000803e3d6000fd5b6120dd3383836139b9565b5050565b60006120ec82612f20565b61214b5760405162461bcd60e51b815260206004820152602a60248201527f455243313139305472616461626c653a2054686520746f6b656e20646f6573206044820152693737ba1032bc34b9ba1760b11b6064820152608401610af1565b5060009081526015602052604090205490565b60006109bb82612f5f565b60006001600160a01b0382166121e75760405162461bcd60e51b815260206004820152602a60248201527f455243313139303a206f776e65722063616e6e6f7420626520746865207a657260448201527f6f20616464726573732e000000000000000000000000000000000000000000006064820152608401610af1565b506001600160a01b031660009081526006602052604090205490565b606061220e82612f20565b6122655760405162461bcd60e51b815260206004820152602260248201527f455243313139303a2054686520746f6b656e20646f6573206e6f7420657869736044820152613a1760f11b6064820152608401610af1565b6000828152600f60205260408120805461227e90614696565b9050116122f35760405162461bcd60e51b815260206004820152602960248201527f455243313139303a204e6f2066696c65206173736f63696174656420746f207460448201527f686520746f6b656e2e00000000000000000000000000000000000000000000006064820152608401610af1565b60006122fd613aa7565b9050600081511161231d5760405180602001604052806000815250612352565b80600f60008581526020019081526020016000206040516020016123429291906147a9565b6040516020818303038152906040525b9392505050565b600061236482612f20565b6123bb5760405162461bcd60e51b815260206004820152602260248201527f455243313139303a2054686520746f6b656e20646f6573206e6f7420657869736044820152613a1760f11b6064820152608401610af1565b506000908152600960205260409020546001600160a01b031690565b60006123e282611540565b9050806001600160a01b0316836001600160a01b0316141561246c5760405162461bcd60e51b815260206004820152602a60248201527f455243313139303a2043616e6e6f7420617070726f766520746865206375727260448201527f656e74206f776e65722e000000000000000000000000000000000000000000006064820152608401610af1565b336001600160a01b03821614806124885750612488813361039e565b6125205760405162461bcd60e51b815260206004820152605060248201527f455243313139303a205468652073656e646572206973206e656974686572207460448201527f6865206f776e6572206f662074686520746f6b656e206e6f7220617070726f7660648201527f656420746f206d616e6167652069742e00000000000000000000000000000000608482015260a401610af1565b610f4e818484613ab6565b61253482612f20565b6125935760405162461bcd60e51b815260206004820152602a60248201527f455243313139305472616461626c653a2054686520746f6b656e20646f6573206044820152693737ba1032bc34b9ba1760b11b6064820152608401610af1565b6000811161262f5760405162461bcd60e51b815260206004820152604260248201527f455243313139305472616461626c653a20546865206372656174697665206c6960448201527f63656e736520636f7374206d7573742062652067726561746572207468616e2060648201527f302e000000000000000000000000000000000000000000000000000000000000608482015260a401610af1565b60009182526014602052604090912055565b6120dd338383613b1f565b61265582612f20565b6126b45760405162461bcd60e51b815260206004820152602a60248201527f455243313139305472616461626c653a2054686520746f6b656e20646f6573206044820152693737ba1032bc34b9ba1760b11b6064820152608401610af1565b600081116127505760405162461bcd60e51b815260206004820152604360248201527f455243313139305472616461626c653a205468652072656e74616c20636f737460448201527f20706572207365636f6e64206d7573742062652067726561746572207468616e60648201527f20302e0000000000000000000000000000000000000000000000000000000000608482015260a401610af1565b60009182526015602052604090912055565b600061276d82612f20565b6127cc5760405162461bcd60e51b815260206004820152602a60248201527f455243313139305472616461626c653a2054686520746f6b656e20646f6573206044820152693737ba1032bc34b9ba1760b11b6064820152608401610af1565b5060009081526013602052604090205490565b60006127ea82610e9d565b9050806001600160a01b0316836001600160a01b031614156128745760405162461bcd60e51b815260206004820152603360248201527f455243313139303a2043616e6e6f7420617070726f766520746865206375727260448201527f656e74206372656174697665206f776e65722e000000000000000000000000006064820152608401610af1565b336001600160a01b0382161480612890575061289081336103e7565b6129285760405162461bcd60e51b815260206004820152605960248201527f455243313139303a205468652073656e646572206973206e656974686572207460448201527f6865206372656174697665206f776e6572206f662074686520746f6b656e206e60648201527f6f7220617070726f76656420746f206d616e6167652069742e00000000000000608482015260a401610af1565b610f4e818484613c0d565b6010546001600160a01b0316331461298d5760405162461bcd60e51b815260206004820181905260248201527f4f776e61626c653a2063616c6c6572206973206e6f7420746865206f776e65726044820152606401610af1565b6001600160a01b038116612a095760405162461bcd60e51b815260206004820152602660248201527f4f776e61626c653a206e6577206f776e657220697320746865207a65726f206160448201527f64647265737300000000000000000000000000000000000000000000000000006064820152608401610af1565b612a128161334a565b50565b610f4e838383613c76565b612a2981612f20565b612a885760405162461bcd60e51b815260206004820152602a60248201527f455243313139305472616461626c653a2054686520746f6b656e20646f6573206044820152693737ba1032bc34b9ba1760b11b6064820152608401610af1565b600081815260136020526040902054612b2f5760405162461bcd60e51b815260206004820152604b60248201527f455243313139305472616461626c653a20546865206f776e657273686970206c60448201527f6963656e7365206f66207468697320746f6b656e2063616e6e6f74206265207460648201527f72616e736665727265642e000000000000000000000000000000000000000000608482015260a401610af1565b600081815260136020526040902054341015612bff5760405162461bcd60e51b815260206004820152606c60248201527f455243313139305472616461626c653a2054686520616d6f756e74206f66207760448201527f65692073656e74206973206e6f742073756666696369656e7420666f72206f6260648201527f7461696e696e6720746865206f776e657273686970206c6963656e7365206f6660848201527f207468697320746f6b656e2e000000000000000000000000000000000000000060a482015260c401610af1565b33612c865760405162461bcd60e51b815260206004820152604b60248201527f455243313139305472616461626c653a2043616e6e6f74207472616e7366657260448201527f20746865206f776e657273686970206c6963656e736520746f20746865207a6560648201526a39379030b2323932b9b99760a91b608482015260a401610af1565b6000612c9182611540565b90506000612c9e83610e9d565b9050612cab8233856113d3565b806001600160a01b0316826001600160a01b03161415612cfa576040516001600160a01b038316903480156108fc02916000818181858888f19350505050158015610b06573d6000803e3d6000fd5b6000612d0584612fd7565b90506001600160a01b0383166108fc6064612d20848261473f565b612d2d9060ff1634614720565b612d3791906146fe565b6040518115909202916000818181858888f19350505050158015612d5f573d6000803e3d6000fd5b506001600160a01b0382166108fc6064612d7c60ff851634614720565b612d8691906146fe565b6040518115909202916000818181858888f19350505050158015612dae573d6000803e3d6000fd5b5050505050565b6000612dc082612f20565b612e175760405162461bcd60e51b815260206004820152602260248201527f455243313139303a2054686520746f6b656e20646f6573206e6f7420657869736044820152613a1760f11b6064820152608401610af1565b6000612e2283611540565b9050806001600160a01b0316846001600160a01b03161480612e5d5750836001600160a01b0316612e5284612359565b6001600160a01b0316145b80612e8d57506001600160a01b038082166000908152600a602090815260408083209388168352929052205460ff165b949350505050565b612ea0848484613142565b612eac84848484613e03565b610b06576040805162461bcd60e51b81526020600482015260248101919091527f455243313139303a205472616e7366657220746f20636f6e7472616374206e6f60448201527f7420696d706c656d656e74696e6720494552433131393052656365697665722e6064820152608401610af1565b6000818152600260205260408120546001600160a01b0316158015906109bb5750506000908152600360205260409020546001600160a01b0316151590565b6000612f6a82612f20565b612fc15760405162461bcd60e51b815260206004820152602260248201527f455243313139303a2054686520746f6b656e20646f6573206e6f7420657869736044820152613a1760f11b6064820152608401610af1565b506000908152600d602052604090205460ff1690565b6000612fe282612f20565b6130395760405162461bcd60e51b815260206004820152602260248201527f455243313139303a2054686520746f6b656e20646f6573206e6f7420657869736044820152613a1760f11b6064820152608401610af1565b506000908152600e602052604090205460ff1690565b600061305a82612f20565b6130b15760405162461bcd60e51b815260206004820152602260248201527f455243313139303a2054686520746f6b656e20646f6573206e6f7420657869736044820152613a1760f11b6064820152608401610af1565b60006130bc83610e9d565b9050806001600160a01b0316846001600160a01b031614806130f75750836001600160a01b03166130ec84610f53565b6001600160a01b0316145b80612e8d57506001600160a01b038082166000908152600c602090815260408083209388168352929052205460ff16612e8d565b6131368484846137b2565b612eac84848484613fa3565b600061314d82611540565b9050836001600160a01b0316816001600160a01b0316146131fc5760405162461bcd60e51b815260206004820152604260248201527f455243313139303a2043616e6e6f74207472616e7366657220746865206f776e60448201527f657273686970206c6963656e7365206966206974206973206e6f74206f776e6560648201527f642e000000000000000000000000000000000000000000000000000000000000608482015260a401610af1565b6001600160a01b0383166132785760405162461bcd60e51b815260206004820152602d60248201527f455243313139303a2043616e6e6f74207472616e7366657220746f207468652060448201527f7a65726f20616464726573732e000000000000000000000000000000000000006064820152608401610af1565b61328481600084613ab6565b6001600160a01b03841660009081526006602052604081208054600192906132ad9084906146e7565b90915550506001600160a01b03831660009081526006602052604081208054600192906132db90849061485a565b9091555050600082815260026020526040808220805473ffffffffffffffffffffffffffffffffffffffff19166001600160a01b0387811691821790925591518593918816917fe80a6bc7d5973fd4e185e65f6809de784f12b41b6e342e215b7d37669cd3cc7f91a450505050565b601080546001600160a01b0383811673ffffffffffffffffffffffffffffffffffffffff19831681179093556040519116919082907f8be0079c531659141344cd1fd0a4f28419497f9722a3daafe3b4186f6b6457e090600090a35050565b6001600160a01b0382166134255760405162461bcd60e51b815260206004820152602760248201527f455243313139303a20746f2063616e6e6f7420626520746865207a65726f206160448201527f6464726573732e000000000000000000000000000000000000000000000000006064820152608401610af1565b61342e81612f20565b156134a15760405162461bcd60e51b815260206004820152602260248201527f455243313139303a2054686520746f6b656e20616c726561647920657869737460448201527f732e0000000000000000000000000000000000000000000000000000000000006064820152608401610af1565b6001600160a01b03821660009081526006602052604081208054600192906134ca90849061485a565b90915550506001600160a01b03821660009081526007602052604081208054600192906134f890849061485a565b9091555050600081815260026020908152604080832080546001600160a01b03871673ffffffffffffffffffffffffffffffffffffffff199182168117909255600390935281842080549093168117909255518392907fe80a6bc7d5973fd4e185e65f6809de784f12b41b6e342e215b7d37669cd3cc7f908290a460405181906001600160a01b038416906000907f17e7f9521d748f438723d107c498592c030975fd52ce9ca0ff758b7b96cb36ca908290a45050565b6135b883612f20565b61360f5760405162461bcd60e51b815260206004820152602260248201527f455243313139303a2054686520746f6b656e20646f6573206e6f7420657869736044820152613a1760f11b6064820152608401610af1565b6000838152600f60205260409020610b06908383614154565b61363183612f20565b6136885760405162461bcd60e51b815260206004820152602260248201527f455243313139303a2054686520746f6b656e20646f6573206e6f7420657869736044820152613a1760f11b6064820152608401610af1565b60648260ff1611156137025760405162461bcd60e51b815260206004820152603160248201527f455243313139303a20526f79616c747920666f722072656e74616c206f75742060448201527f6f662072616e6765205b302c3130305d2e0000000000000000000000000000006064820152608401610af1565b60648160ff16111561377c5760405162461bcd60e51b815260206004820152603d60248201527f455243313139303a20526f79616c747920666f72206f776e657273686970207460448201527f72616e73666572206f7574206f662072616e6765205b302c3130305d2e0000006064820152608401610af1565b6000928352600d60209081526040808520805460ff1990811660ff96871617909155600e90925290932080549093169116179055565b60006137bd82610e9d565b9050836001600160a01b0316816001600160a01b03161461386c5760405162461bcd60e51b815260206004820152604260248201527f455243313139303a2043616e6e6f74207472616e7366657220746865206f776e60448201527f657273686970206c6963656e7365206966206974206973206e6f74206f776e6560648201527f642e000000000000000000000000000000000000000000000000000000000000608482015260a401610af1565b6001600160a01b0383166138e85760405162461bcd60e51b815260206004820152602d60248201527f455243313139303a2043616e6e6f74207472616e7366657220746f207468652060448201527f7a65726f20616464726573732e000000000000000000000000000000000000006064820152608401610af1565b6138f3818484613c0d565b6001600160a01b038416600090815260076020526040812080546001929061391c9084906146e7565b90915550506001600160a01b038316600090815260076020526040812080546001929061394a90849061485a565b9091555050600082815260036020526040808220805473ffffffffffffffffffffffffffffffffffffffff19166001600160a01b0387811691821790925591518593918816917f17e7f9521d748f438723d107c498592c030975fd52ce9ca0ff758b7b96cb36ca91a450505050565b816001600160a01b0316836001600160a01b03161415613a415760405162461bcd60e51b815260206004820152603560248201527f455243313139303a20546865206372656174697665206f776e65722063616e6e60448201527f6f7420617070726f766520746865697273656c662e00000000000000000000006064820152608401610af1565b6001600160a01b038381166000818152600c6020908152604080832094871680845294909152808220805460ff19168615159081179091559051909392917f17307eab39ab6107e8899845ad3d59bd9653f200f220920489ca2b5937696c3191a4505050565b6060601280546109d090614696565b600081815260096020526040808220805473ffffffffffffffffffffffffffffffffffffffff19166001600160a01b0386811691821790925591518493918716917f8c5be1e5ebec7d5bd14f71427d1e84f3dd0314c0f7b2291e5b200ac8c7c3b92591a4505050565b816001600160a01b0316836001600160a01b03161415613ba75760405162461bcd60e51b815260206004820152602c60248201527f455243313139303a20546865206f776e65722063616e6e6f7420617070726f7660448201527f6520746865697273656c662e00000000000000000000000000000000000000006064820152608401610af1565b6001600160a01b038381166000818152600a6020908152604080832094871680845294909152808220805460ff19168615159081179091559051909392917f17307eab39ab6107e8899845ad3d59bd9653f200f220920489ca2b5937696c3191a4505050565b6000818152600b6020526040808220805473ffffffffffffffffffffffffffffffffffffffff19166001600160a01b0386811691821790925591518493918716917f8c5be1e5ebec7d5bd14f71427d1e84f3dd0314c0f7b2291e5b200ac8c7c3b92591a4505050565b6001600160a01b038316613ce05760405162461bcd60e51b815260206004820152602b60248201527f455243313139303a2072656e7465722063616e6e6f7420626520746865207a6560448201526a39379030b2323932b9b99760a91b6064820152608401610af1565b613ce982612f20565b613d405760405162461bcd60e51b815260206004820152602260248201527f455243313139303a2054686520746f6b656e20646f6573206e6f7420657869736044820152613a1760f11b6064820152608401610af1565b60008281526004602090815260408083206001600160a01b0387168085529083528184208590558584526005835281842080546001818101835591865284862001805473ffffffffffffffffffffffffffffffffffffffff19168317905590845260089092528220805491929091613db990849061485a565b909155505060405181815282906001600160a01b038516907fbde1f9520db9dbbe765a8fa71cf09322ecafa1c2ac591112fe5b2f137549d6de9060200160405180910390a3505050565b60006001600160a01b0384163b15613f98576040517f6b6ea7610000000000000000000000000000000000000000000000000000000081526001600160a01b03851690636b6ea76190613e60903390899088908890600401614872565b6020604051808303816000875af1925050508015613e9b575060408051601f3d908101601f19168201909252613e98918101906148ae565b60015b613f4d573d808015613ec9576040519150601f19603f3d011682016040523d82523d6000602084013e613ece565b606091505b508051613f45576040805162461bcd60e51b81526020600482015260248101919091527f455243313139303a205472616e7366657220746f20636f6e7472616374206e6f60448201527f7420696d706c656d656e74696e6720494552433131393052656365697665722e6064820152608401610af1565b805181602001fd5b7fffffffff00000000000000000000000000000000000000000000000000000000167f6b6ea76100000000000000000000000000000000000000000000000000000000149050612e8d565b506001949350505050565b60006001600160a01b0384163b15613f98576040517f996206e00000000000000000000000000000000000000000000000000000000081526001600160a01b0385169063996206e090614000903390899088908890600401614872565b6020604051808303816000875af192505050801561403b575060408051601f3d908101601f19168201909252614038918101906148ae565b60015b614109573d808015614069576040519150601f19603f3d011682016040523d82523d6000602084013e61406e565b606091505b508051613f455760405162461bcd60e51b815260206004820152605560248201527f455243313139303a205472696564207472616e7366657220746f20636f6e747260448201527f616374206e6f7420696d706c656d656e74696e6720494552433131393043726560648201527f61746976654c6963656e736552656365697665722e0000000000000000000000608482015260a401610af1565b7fffffffff00000000000000000000000000000000000000000000000000000000167f996206e000000000000000000000000000000000000000000000000000000000149050612e8d565b82805461416090614696565b90600052602060002090601f01602090048101928261418257600085556141c8565b82601f1061419b5782800160ff198235161785556141c8565b828001600101855582156141c8579182015b828111156141c85782358255916020019190600101906141ad565b506141d49291506141d8565b5090565b5b808211156141d457600081556001016141d9565b7fffffffff0000000000000000000000000000000000000000000000000000000081168114612a1257600080fd5b60006020828403121561422d57600080fd5b8135612352816141ed565b60005b8381101561425357818101518382015260200161423b565b83811115610b065750506000910152565b6000815180845261427c816020860160208601614238565b601f01601f19169290920160200192915050565b6020815260006123526020830184614264565b80356001600160a01b03811681146142ba57600080fd5b919050565b634e487b7160e01b600052604160045260246000fd5b600080600080608085870312156142eb57600080fd5b6142f4856142a3565b9350614302602086016142a3565b925060408501359150606085013567ffffffffffffffff8082111561432657600080fd5b818701915087601f83011261433a57600080fd5b81358181111561434c5761434c6142bf565b604051601f8201601f19908116603f01168101908382118183101715614374576143746142bf565b816040528281528a602084870101111561438d57600080fd5b82602086016020830137600060208483010152809550505050505092959194509250565b6000806000606084860312156143c657600080fd5b505081359360208301359350604090920135919050565b600080604083850312156143f057600080fd5b6143f9836142a3565b9150614407602084016142a3565b90509250929050565b60006020828403121561442257600080fd5b5035919050565b60008060006060848603121561443e57600080fd5b614447846142a3565b9250614455602085016142a3565b9150604084013590509250925092565b60008060006060848603121561447a57600080fd5b8335925060208401359150614491604085016142a3565b90509250925092565b6000602082840312156144ac57600080fd5b612352826142a3565b600080604083850312156144c857600080fd5b82359150614407602084016142a3565b600080604083850312156144eb57600080fd5b50508035926020909101359150565b803560ff811681146142ba57600080fd5b60008060008060006080868803121561452357600080fd5b61452c866142a3565b9450602086013567ffffffffffffffff8082111561454957600080fd5b818801915088601f83011261455d57600080fd5b81358181111561456c57600080fd5b89602082850101111561457e57600080fd5b602083019650809550505050614596604087016144fa565b91506145a4606087016144fa565b90509295509295909350565b6020808252825182820181905260009190848201906040850190845b818110156145f15783516001600160a01b0316835292840192918401916001016145cc565b50909695505050505050565b6000806040838503121561461057600080fd5b614619836142a3565b91506020830135801515811461462e57600080fd5b809150509250929050565b6000806040838503121561464c57600080fd5b614655836142a3565b946020939093013593505050565b60008060006060848603121561467857600080fd5b614681846142a3565b95602085013595506040909401359392505050565b600181811c908216806146aa57607f821691505b602082108114156146cb57634e487b7160e01b600052602260045260246000fd5b50919050565b634e487b7160e01b600052601160045260246000fd5b6000828210156146f9576146f96146d1565b500390565b60008261471b57634e487b7160e01b600052601260045260246000fd5b500490565b600081600019048311821515161561473a5761473a6146d1565b500290565b600060ff821660ff841680821015614759576147596146d1565b90039392505050565b634e487b7160e01b600052603260045260246000fd5b634e487b7160e01b600052603160045260246000fd5b60006000198214156147a2576147a26146d1565b5060010190565b6000835160206147bc8285838901614238565b845491840191600090600181811c90808316806147da57607f831692505b8583108114156147f857634e487b7160e01b85526022600452602485fd5b80801561480c576001811461481d5761484a565b60ff1985168852838801955061484a565b60008b81526020902060005b858110156148425781548a820152908401908801614829565b505083880195505b50939a9950505050505050505050565b6000821982111561486d5761486d6146d1565b500190565b60006001600160a01b038087168352808616602084015250836040830152608060608301526148a46080830184614264565b9695505050505050565b6000602082840312156148c057600080fd5b8151612352816141ed56fea2646970667358221220119e7cb3adcbbdf388e48b520269913ef759bd2192f4e6bcf89a23d95553063964736f6c634300080b0033a26469706673582212200fd36b77943beb89f48a5279a888c3a4a533c109f3ce270d12b1b8c65a6a38f864736f6c634300080b0033",
  "immutableReferences": {},
  "source": "// SPDX-License-Identifier: MIT\npragma solidity >=0.4.22 <0.9.0;\n\nimport \"./IERC1190Marketplace.sol\";\nimport \"non-fungible-royalty-token/contracts/ERC1190Tradable.sol\";\nimport \"@openzeppelin/contracts/utils/Context.sol\";\n\ncontract ERC1190Marketplace is Context, IERC1190Marketplace {\n    mapping(address => address[]) private _collectionsOwned;\n\n    mapping(address => address) private _collectionCreators;\n\n    address[] private _creators;\n\n    address[] private _collections;\n\n    mapping(address => mapping(uint256 => address[]))\n        private _ownershipLicenseApprovalRequests;\n\n    mapping(address => mapping(uint256 => address[]))\n        private _creativeLicenseApprovalRequests;\n\n    function creatorOf(address collectionAddress)\n        external\n        view\n        override\n        returns (address)\n    {\n        require(\n            collectionAddress != address(0),\n            \"ERC1190Marketplace: collectionAddress cannot be the zero address.\"\n        );\n\n        return _collectionCreators[collectionAddress];\n    }\n\n    function allCollections()\n        external\n        view\n        override\n        returns (address[] memory)\n    {\n        return _collections;\n    }\n\n    function collectionsOf(address collectionOwner)\n        external\n        view\n        override\n        returns (address[] memory)\n    {\n        require(\n            collectionOwner != address(0),\n            \"ERC1190Marketplace: collectionOwner cannot be the zero address.\"\n        );\n\n        return _collectionsOwned[collectionOwner];\n    }\n\n    function deployNewCollection(\n        string calldata name,\n        string calldata symbol,\n        string calldata baseURI\n    ) external override returns (address) {\n        ERC1190Tradable newCollection = new ERC1190Tradable(\n            name,\n            symbol,\n            baseURI\n        );\n        address newCollectionAddress = address(newCollection);\n        address creator = _msgSender();\n\n        newCollection.transferOwnership(creator);\n\n        _collectionsOwned[creator].push(newCollectionAddress);\n        _collectionCreators[newCollectionAddress] = creator;\n        _creators.push(creator);\n        _collections.push(newCollectionAddress);\n\n        emit CollectionDeployed(name, symbol, baseURI, newCollectionAddress);\n\n        return newCollectionAddress;\n    }\n\n    function requireOwnershipLicenseTransferApproval(\n        address collectionAddress,\n        uint256 tokenId\n    ) external override {\n        require(\n            collectionAddress != address(0),\n            \"ERC1190Marketplace: collectionAddress cannot be the zero address.\"\n        );\n\n        _ownershipLicenseApprovalRequests[collectionAddress][tokenId].push(\n            _msgSender()\n        );\n\n        emit LicenseRequestSent(collectionAddress, tokenId);\n    }\n\n    function requireCreativeLicenseTransferApproval(\n        address collectionAddress,\n        uint256 tokenId\n    ) external override {\n        require(\n            collectionAddress != address(0),\n            \"ERC1190Marketplace: collectionAddress cannot be the zero address.\"\n        );\n\n        _creativeLicenseApprovalRequests[collectionAddress][tokenId].push(\n            _msgSender()\n        );\n\n        emit LicenseRequestSent(collectionAddress, tokenId);\n    }\n\n    function removeOwnershipLicenseTransferApproval(\n        address collectionAddress,\n        uint256 tokenId,\n        address toRemove\n    ) external override {\n        require(\n            collectionAddress != address(0),\n            \"ERC1190Marketplace: collectionAddress cannot be the zero address.\"\n        );\n\n        address[] memory requests = _ownershipLicenseApprovalRequests[\n            collectionAddress\n        ][tokenId];\n        bool stop = false;\n\n        for (uint256 i = 0; i < requests.length; i++) {\n            if (requests[i] == toRemove) {\n                _ownershipLicenseApprovalRequests[collectionAddress][tokenId][\n                    i\n                ] = _ownershipLicenseApprovalRequests[collectionAddress][\n                    tokenId\n                ][\n                    _ownershipLicenseApprovalRequests[collectionAddress][\n                        tokenId\n                    ].length - 1\n                ];\n                _ownershipLicenseApprovalRequests[collectionAddress][tokenId]\n                    .pop();\n                stop = true;\n            }\n        }\n    }\n\n    function removeCreativeLicenseTransferApproval(\n        address collectionAddress,\n        uint256 tokenId,\n        address toRemove\n    ) external override {\n        require(\n            collectionAddress != address(0),\n            \"ERC1190Marketplace: collectionAddress cannot be the zero address.\"\n        );\n\n        address[] memory requests = _creativeLicenseApprovalRequests[\n            collectionAddress\n        ][tokenId];\n        bool stop = false;\n\n        for (uint256 i = 0; i < requests.length; i++) {\n            if (requests[i] == toRemove) {\n                _creativeLicenseApprovalRequests[collectionAddress][tokenId][\n                    i\n                ] = _creativeLicenseApprovalRequests[collectionAddress][\n                    tokenId\n                ][\n                    _creativeLicenseApprovalRequests[collectionAddress][tokenId]\n                        .length - 1\n                ];\n                _creativeLicenseApprovalRequests[collectionAddress][tokenId]\n                    .pop();\n                stop = true;\n            }\n        }\n    }\n\n    function getOwnershipLicenseTransferRequests(\n        address collectionAddress,\n        uint256 tokenId\n    ) external view override returns (address[] memory) {\n        require(\n            collectionAddress != address(0),\n            \"ERC1190Marketplace: collectionAddress cannot be the zero address.\"\n        );\n        return _ownershipLicenseApprovalRequests[collectionAddress][tokenId];\n    }\n\n    function getCreativeLicenseTransferRequests(\n        address collectionAddress,\n        uint256 tokenId\n    ) external view override returns (address[] memory) {\n        require(\n            collectionAddress != address(0),\n            \"ERC1190Marketplace: collectionAddress cannot be the zero address.\"\n        );\n        return _creativeLicenseApprovalRequests[collectionAddress][tokenId];\n    }\n}\n",
  "sourcePath": "/Users/tommaso/Progetti/non-fungible-royalty-token/marketplace-contracts/contracts/ERC1190Marketplace.sol",
  "compiler": {
    "name": "solc",
    "version": "0.8.11+commit.d7f03943.Emscripten.clang"
  },
  "schemaVersion": "3.4.4",
  "updatedAt": "2022-02-06T19:56:11.034Z",
  "networkType": "ethereum",
  "devdoc": {
    "kind": "dev",
    "methods": {},
    "version": 1
  },
  "userdoc": {
    "kind": "user",
    "methods": {},
    "version": 1
  }
}